{
  "_format": "hh-sol-artifact-1",
  "contractName": "AccessControlManager",
  "sourceName": "contracts/AccessControlManager.sol",
  "abi": [
    {
      "inputs": [],
      "stateMutability": "nonpayable",
      "type": "constructor"
    },
    {
      "inputs": [],
      "name": "AccessControlBadConfirmation",
      "type": "error"
    },
    {
      "inputs": [
        {
          "internalType": "address",
          "name": "account",
          "type": "address"
        },
        {
          "internalType": "bytes32",
          "name": "neededRole",
          "type": "bytes32"
        }
      ],
      "name": "AccessControlUnauthorizedAccount",
      "type": "error"
    },
    {
      "anonymous": false,
      "inputs": [
        {
          "indexed": true,
          "internalType": "bytes32",
          "name": "role",
          "type": "bytes32"
        },
        {
          "indexed": true,
          "internalType": "bytes32",
          "name": "previousAdminRole",
          "type": "bytes32"
        },
        {
          "indexed": true,
          "internalType": "bytes32",
          "name": "newAdminRole",
          "type": "bytes32"
        }
      ],
      "name": "RoleAdminChanged",
      "type": "event"
    },
    {
      "anonymous": false,
      "inputs": [
        {
          "indexed": true,
          "internalType": "bytes32",
          "name": "role",
          "type": "bytes32"
        },
        {
          "indexed": true,
          "internalType": "address",
          "name": "account",
          "type": "address"
        },
        {
          "indexed": true,
          "internalType": "address",
          "name": "sender",
          "type": "address"
        }
      ],
      "name": "RoleGranted",
      "type": "event"
    },
    {
      "anonymous": false,
      "inputs": [
        {
          "indexed": true,
          "internalType": "bytes32",
          "name": "role",
          "type": "bytes32"
        },
        {
          "indexed": true,
          "internalType": "address",
          "name": "account",
          "type": "address"
        },
        {
          "indexed": true,
          "internalType": "address",
          "name": "sender",
          "type": "address"
        }
      ],
      "name": "RoleRevoked",
      "type": "event"
    },
    {
      "inputs": [],
      "name": "ADMIN_ROLE",
      "outputs": [
        {
          "internalType": "bytes32",
          "name": "",
          "type": "bytes32"
        }
      ],
      "stateMutability": "view",
      "type": "function"
    },
    {
      "inputs": [],
      "name": "DEFAULT_ADMIN_ROLE",
      "outputs": [
        {
          "internalType": "bytes32",
          "name": "",
          "type": "bytes32"
        }
      ],
      "stateMutability": "view",
      "type": "function"
    },
    {
      "inputs": [],
      "name": "DISTRIBUTOR_ROLE",
      "outputs": [
        {
          "internalType": "bytes32",
          "name": "",
          "type": "bytes32"
        }
      ],
      "stateMutability": "view",
      "type": "function"
    },
    {
      "inputs": [],
      "name": "INSTANCE_ROLE",
      "outputs": [
        {
          "internalType": "bytes32",
          "name": "",
          "type": "bytes32"
        }
      ],
      "stateMutability": "view",
      "type": "function"
    },
    {
      "inputs": [],
      "name": "USER_ROLE",
      "outputs": [
        {
          "internalType": "bytes32",
          "name": "",
          "type": "bytes32"
        }
      ],
      "stateMutability": "view",
      "type": "function"
    },
    {
      "inputs": [
        {
          "internalType": "bytes32",
          "name": "role",
          "type": "bytes32"
        }
      ],
      "name": "getRoleAdmin",
      "outputs": [
        {
          "internalType": "bytes32",
          "name": "",
          "type": "bytes32"
        }
      ],
      "stateMutability": "view",
      "type": "function"
    },
    {
      "inputs": [
        {
          "internalType": "bytes32",
          "name": "role",
          "type": "bytes32"
        },
        {
          "internalType": "address",
          "name": "account",
          "type": "address"
        }
      ],
      "name": "grantRole",
      "outputs": [],
      "stateMutability": "nonpayable",
      "type": "function"
    },
    {
      "inputs": [
        {
          "internalType": "bytes32",
          "name": "role",
          "type": "bytes32"
        },
        {
          "internalType": "address",
          "name": "contractAddress",
          "type": "address"
        }
      ],
      "name": "grantRoleToContract",
      "outputs": [],
      "stateMutability": "nonpayable",
      "type": "function"
    },
    {
      "inputs": [
        {
          "internalType": "bytes32",
          "name": "role",
          "type": "bytes32"
        },
        {
          "internalType": "address",
          "name": "contractAddress",
          "type": "address"
        }
      ],
      "name": "grantRoleToWallet",
      "outputs": [],
      "stateMutability": "nonpayable",
      "type": "function"
    },
    {
      "inputs": [
        {
          "internalType": "bytes32",
          "name": "role",
          "type": "bytes32"
        },
        {
          "internalType": "address",
          "name": "account",
          "type": "address"
        }
      ],
      "name": "hasRole",
      "outputs": [
        {
          "internalType": "bool",
          "name": "",
          "type": "bool"
        }
      ],
      "stateMutability": "view",
      "type": "function"
    },
    {
      "inputs": [
        {
          "internalType": "bytes32",
          "name": "role",
          "type": "bytes32"
        },
        {
          "internalType": "address",
          "name": "contractAddress",
          "type": "address"
        }
      ],
      "name": "hasRoleForContract",
      "outputs": [
        {
          "internalType": "bool",
          "name": "",
          "type": "bool"
        }
      ],
      "stateMutability": "view",
      "type": "function"
    },
    {
      "inputs": [
        {
          "internalType": "bytes32",
          "name": "role",
          "type": "bytes32"
        },
        {
          "internalType": "address",
          "name": "callerConfirmation",
          "type": "address"
        }
      ],
      "name": "renounceRole",
      "outputs": [],
      "stateMutability": "nonpayable",
      "type": "function"
    },
    {
      "inputs": [
        {
          "internalType": "bytes32",
          "name": "role",
          "type": "bytes32"
        },
        {
          "internalType": "address",
          "name": "account",
          "type": "address"
        }
      ],
      "name": "revokeRole",
      "outputs": [],
      "stateMutability": "nonpayable",
      "type": "function"
    },
    {
      "inputs": [
        {
          "internalType": "bytes4",
          "name": "interfaceId",
          "type": "bytes4"
        }
      ],
      "name": "supportsInterface",
      "outputs": [
        {
          "internalType": "bool",
          "name": "",
          "type": "bool"
        }
      ],
      "stateMutability": "view",
      "type": "function"
    }
  ],
  "bytecode": "0x608060405234801561001057600080fd5b5061002a600080516020610c4d83398151915260006100fc565b6100627f14823911f2da1b49f045a0929a60b8c1f2a7fc8c06c7284ca3e8ab4e193a08c8600080516020610c4d8339815191526100fc565b61009a7f1fbe8ca02d8a028bb1d006343dd44cf5cbcd0e3f4761bfba56c3fbd822626718600080516020610c4d8339815191526100fc565b6100d27ffbd454f36a7e1a388bd6fc3ab10d434aa4578f811acbbcf33afb1c697486313c600080516020610c4d8339815191526100fc565b6100dd600033610147565b506100f6600080516020610c4d83398151915233610147565b506101f3565b600082815260208190526040808220600101805490849055905190918391839186917fbd79b86ffe0ab8e8776151514217cd7cacd52c909f66475c3af44e129f0b00ff9190a4505050565b6000828152602081815260408083206001600160a01b038516845290915281205460ff166101e9576000838152602081815260408083206001600160a01b03861684529091529020805460ff191660011790556101a13390565b6001600160a01b0316826001600160a01b0316847f2f8788117e7eff1d82e926ec794901d17c78024a50270940304540a733656f0d60405160405180910390a45060016101ed565b5060005b92915050565b610a4b806102026000396000f3fe608060405234801561001057600080fd5b50600436106100ea5760003560e01c8063827ebb371161008c578063c8e71e7b11610066578063c8e71e7b14610223578063d547741f1461024a578063da44401e1461025d578063f0bd87cc1461027057600080fd5b8063827ebb37146101d157806391d14854146101e4578063a217fddf1461021b57600080fd5b80632f2ff15d116100c85780632f2ff15d1461016f57806336568abe146101845780635a57f1f51461019757806375b238fc146101aa57600080fd5b806301ffc9a7146100ef5780631311916114610117578063248a9ca31461014c575b600080fd5b6101026100fd366004610927565b610297565b60405190151581526020015b60405180910390f35b61013e7f14823911f2da1b49f045a0929a60b8c1f2a7fc8c06c7284ca3e8ab4e193a08c881565b60405190815260200161010e565b61013e61015a366004610969565b60009081526020819052604090206001015490565b61018261017d366004610982565b610330565b005b610182610192366004610982565b61035b565b6101826101a5366004610982565b6103ac565b61013e7fa49807205ce4d355092ef5a8a18f56e8913cf4a201fbe287825b095693c2177581565b6101026101df366004610982565b610660565b6101026101f2366004610982565b6000918252602082815260408084206001600160a01b0393909316845291905290205460ff1690565b61013e600081565b61013e7f1fbe8ca02d8a028bb1d006343dd44cf5cbcd0e3f4761bfba56c3fbd82262671881565b610182610258366004610982565b61068c565b61018261026b366004610982565b6106b1565b61013e7ffbd454f36a7e1a388bd6fc3ab10d434aa4578f811acbbcf33afb1c697486313c81565b60007fffffffff0000000000000000000000000000000000000000000000000000000082167f7965db0b00000000000000000000000000000000000000000000000000000000148061032a57507f01ffc9a7000000000000000000000000000000000000000000000000000000007fffffffff000000000000000000000000000000000000000000000000000000008316145b92915050565b60008281526020819052604090206001015461034b816106e5565b61035583836106f2565b50505050565b6001600160a01b038116331461039d576040517f6697b23200000000000000000000000000000000000000000000000000000000815260040160405180910390fd5b6103a7828261079c565b505050565b7f1fbe8ca02d8a028bb1d006343dd44cf5cbcd0e3f4761bfba56c3fbd8226267188214806103f957507f14823911f2da1b49f045a0929a60b8c1f2a7fc8c06c7284ca3e8ab4e193a08c882145b6104705760405162461bcd60e51b815260206004820152603060248201527f4f6e6c7920494e5354414e43455f524f4c4520616e6420555345525f524f4c4560448201527f2063616e2062652061737369676e65640000000000000000000000000000000060648201526084015b60405180910390fd5b6001600160a01b03811660009081527facd580a020501fb9e6e77ea6de4fa4c69db20d4380b2b52a7816676113b1fa9a60209081526040808320547f7d7ffb7a348e1c6a02869081a26547b49160dd3df72d1d75a570eb9b698292ec8352818420547f61e9d7e5b9ecb953628610c8e8aed5035eb527e78ac991a2d11b46a953913189845293829020548251808401909352600f83527f686173496e7374616e6365526f6c6500000000000000000000000000000000009383019390935260ff908116938116921690610543908461081f565b6105826040518060400160405280600c81526020017f68617341646d696e526f6c6500000000000000000000000000000000000000008152508361081f565b6105c16040518060400160405280600b81526020017f68617355736572526f6c650000000000000000000000000000000000000000008152508261081f565b821580156105cd575081155b80156105d7575080155b156105eb576105e68585610330565b610659565b60405162461bcd60e51b815260206004820152602a60248201527f5573657220616c726561647920686173206120646966666572656e7420726f6c60448201527f652061737369676e6564000000000000000000000000000000000000000000006064820152608401610467565b5050505050565b6000828152602081815260408083206001600160a01b038516845290915281205460ff165b9392505050565b6000828152602081905260409020600101546106a7816106e5565b610355838361079c565b7fa49807205ce4d355092ef5a8a18f56e8913cf4a201fbe287825b095693c217756106db816106e5565b6103a78383610330565b6106ef8133610896565b50565b6000828152602081815260408083206001600160a01b038516845290915281205460ff16610794576000838152602081815260408083206001600160a01b03861684529091529020805460ff1916600117905561074c3390565b6001600160a01b0316826001600160a01b0316847f2f8788117e7eff1d82e926ec794901d17c78024a50270940304540a733656f0d60405160405180910390a450600161032a565b50600061032a565b6000828152602081815260408083206001600160a01b038516845290915281205460ff1615610794576000838152602081815260408083206001600160a01b0386168085529252808320805460ff1916905551339286917ff6391f5c32d9c69d2a47ea670b442974b53935d1edc7fd64eb21e047a839171b9190a450600161032a565b61089282826040516024016108359291906109be565b60408051601f198184030181529190526020810180517bffffffffffffffffffffffffffffffffffffffffffffffffffffffff167fc3b5563500000000000000000000000000000000000000000000000000000000179052610902565b5050565b6000828152602081815260408083206001600160a01b038516845290915290205460ff16610892576040517fe2517d3f0000000000000000000000000000000000000000000000000000000081526001600160a01b038216600482015260248101839052604401610467565b6106ef8160006a636f6e736f6c652e6c6f679050600080835160208501845afa505050565b60006020828403121561093957600080fd5b81357fffffffff000000000000000000000000000000000000000000000000000000008116811461068557600080fd5b60006020828403121561097b57600080fd5b5035919050565b6000806040838503121561099557600080fd5b8235915060208301356001600160a01b03811681146109b357600080fd5b809150509250929050565b604081526000835180604084015260005b818110156109ec57602081870181015160608684010152016109cf565b506000606082850101526060601f19601f8301168401019150508215156020830152939250505056fea2646970667358221220b82d7918b9ed354f8ec70a5851ccd3318b6f18512761e1ac5b801f2ff35d8adf64736f6c634300081b0033a49807205ce4d355092ef5a8a18f56e8913cf4a201fbe287825b095693c21775",
  "linkReferences": {},
  "deployedLinkReferences": {}
}