{
  "_format": "hh-sol-artifact-1",
  "contractName": "AccessControlManager",
  "sourceName": "contracts/AccessControlManager.sol",
  "abi": [
    {
      "inputs": [],
      "stateMutability": "nonpayable",
      "type": "constructor"
    },
    {
      "inputs": [],
      "name": "AccessControlBadConfirmation",
      "type": "error"
    },
    {
      "inputs": [
        {
          "internalType": "address",
          "name": "account",
          "type": "address"
        },
        {
          "internalType": "bytes32",
          "name": "neededRole",
          "type": "bytes32"
        }
      ],
      "name": "AccessControlUnauthorizedAccount",
      "type": "error"
    },
    {
      "anonymous": false,
      "inputs": [
        {
          "indexed": true,
          "internalType": "bytes32",
          "name": "role",
          "type": "bytes32"
        },
        {
          "indexed": true,
          "internalType": "bytes32",
          "name": "previousAdminRole",
          "type": "bytes32"
        },
        {
          "indexed": true,
          "internalType": "bytes32",
          "name": "newAdminRole",
          "type": "bytes32"
        }
      ],
      "name": "RoleAdminChanged",
      "type": "event"
    },
    {
      "anonymous": false,
      "inputs": [
        {
          "indexed": true,
          "internalType": "bytes32",
          "name": "role",
          "type": "bytes32"
        },
        {
          "indexed": true,
          "internalType": "address",
          "name": "account",
          "type": "address"
        },
        {
          "indexed": true,
          "internalType": "address",
          "name": "sender",
          "type": "address"
        }
      ],
      "name": "RoleGranted",
      "type": "event"
    },
    {
      "anonymous": false,
      "inputs": [
        {
          "indexed": true,
          "internalType": "bytes32",
          "name": "role",
          "type": "bytes32"
        },
        {
          "indexed": true,
          "internalType": "address",
          "name": "account",
          "type": "address"
        },
        {
          "indexed": true,
          "internalType": "address",
          "name": "sender",
          "type": "address"
        }
      ],
      "name": "RoleRevoked",
      "type": "event"
    },
    {
      "inputs": [],
      "name": "ADMIN_ROLE",
      "outputs": [
        {
          "internalType": "bytes32",
          "name": "",
          "type": "bytes32"
        }
      ],
      "stateMutability": "view",
      "type": "function"
    },
    {
      "inputs": [],
      "name": "DEFAULT_ADMIN_ROLE",
      "outputs": [
        {
          "internalType": "bytes32",
          "name": "",
          "type": "bytes32"
        }
      ],
      "stateMutability": "view",
      "type": "function"
    },
    {
      "inputs": [],
      "name": "DISTRIBUTOR_ROLE",
      "outputs": [
        {
          "internalType": "bytes32",
          "name": "",
          "type": "bytes32"
        }
      ],
      "stateMutability": "view",
      "type": "function"
    },
    {
      "inputs": [],
      "name": "INSTANCE_ROLE",
      "outputs": [
        {
          "internalType": "bytes32",
          "name": "",
          "type": "bytes32"
        }
      ],
      "stateMutability": "view",
      "type": "function"
    },
    {
      "inputs": [],
      "name": "USER_ROLE",
      "outputs": [
        {
          "internalType": "bytes32",
          "name": "",
          "type": "bytes32"
        }
      ],
      "stateMutability": "view",
      "type": "function"
    },
    {
      "inputs": [
        {
          "internalType": "bytes32",
          "name": "role",
          "type": "bytes32"
        }
      ],
      "name": "getRoleAdmin",
      "outputs": [
        {
          "internalType": "bytes32",
          "name": "",
          "type": "bytes32"
        }
      ],
      "stateMutability": "view",
      "type": "function"
    },
    {
      "inputs": [
        {
          "internalType": "bytes32",
          "name": "role",
          "type": "bytes32"
        },
        {
          "internalType": "address",
          "name": "account",
          "type": "address"
        }
      ],
      "name": "grantRole",
      "outputs": [],
      "stateMutability": "nonpayable",
      "type": "function"
    },
    {
      "inputs": [
        {
          "internalType": "bytes32",
          "name": "role",
          "type": "bytes32"
        },
        {
          "internalType": "address",
          "name": "contractAddress",
          "type": "address"
        }
      ],
      "name": "grantRoleToContract",
      "outputs": [],
      "stateMutability": "nonpayable",
      "type": "function"
    },
    {
      "inputs": [
        {
          "internalType": "bytes32",
          "name": "role",
          "type": "bytes32"
        },
        {
          "internalType": "address",
          "name": "contractAddress",
          "type": "address"
        }
      ],
      "name": "grantRoleToWallet",
      "outputs": [],
      "stateMutability": "nonpayable",
      "type": "function"
    },
    {
      "inputs": [
        {
          "internalType": "bytes32",
          "name": "role",
          "type": "bytes32"
        },
        {
          "internalType": "address",
          "name": "account",
          "type": "address"
        }
      ],
      "name": "hasRole",
      "outputs": [
        {
          "internalType": "bool",
          "name": "",
          "type": "bool"
        }
      ],
      "stateMutability": "view",
      "type": "function"
    },
    {
      "inputs": [
        {
          "internalType": "bytes32",
          "name": "role",
          "type": "bytes32"
        },
        {
          "internalType": "address",
          "name": "contractAddress",
          "type": "address"
        }
      ],
      "name": "hasRoleForContract",
      "outputs": [
        {
          "internalType": "bool",
          "name": "",
          "type": "bool"
        }
      ],
      "stateMutability": "view",
      "type": "function"
    },
    {
      "inputs": [
        {
          "internalType": "bytes32",
          "name": "role",
          "type": "bytes32"
        },
        {
          "internalType": "address",
          "name": "callerConfirmation",
          "type": "address"
        }
      ],
      "name": "renounceRole",
      "outputs": [],
      "stateMutability": "nonpayable",
      "type": "function"
    },
    {
      "inputs": [
        {
          "internalType": "bytes32",
          "name": "role",
          "type": "bytes32"
        },
        {
          "internalType": "address",
          "name": "account",
          "type": "address"
        }
      ],
      "name": "revokeRole",
      "outputs": [],
      "stateMutability": "nonpayable",
      "type": "function"
    },
    {
      "inputs": [
        {
          "internalType": "bytes4",
          "name": "interfaceId",
          "type": "bytes4"
        }
      ],
      "name": "supportsInterface",
      "outputs": [
        {
          "internalType": "bool",
          "name": "",
          "type": "bool"
        }
      ],
      "stateMutability": "view",
      "type": "function"
    }
  ],
  "bytecode": "0x608060405234801561001057600080fd5b5061002a600080516020610aa183398151915260006100fc565b6100627f14823911f2da1b49f045a0929a60b8c1f2a7fc8c06c7284ca3e8ab4e193a08c8600080516020610aa18339815191526100fc565b61009a7f1fbe8ca02d8a028bb1d006343dd44cf5cbcd0e3f4761bfba56c3fbd822626718600080516020610aa18339815191526100fc565b6100d27ffbd454f36a7e1a388bd6fc3ab10d434aa4578f811acbbcf33afb1c697486313c600080516020610aa18339815191526100fc565b6100dd600033610147565b506100f6600080516020610aa183398151915233610147565b506101f3565b600082815260208190526040808220600101805490849055905190918391839186917fbd79b86ffe0ab8e8776151514217cd7cacd52c909f66475c3af44e129f0b00ff9190a4505050565b6000828152602081815260408083206001600160a01b038516845290915281205460ff166101e9576000838152602081815260408083206001600160a01b03861684529091529020805460ff191660011790556101a13390565b6001600160a01b0316826001600160a01b0316847f2f8788117e7eff1d82e926ec794901d17c78024a50270940304540a733656f0d60405160405180910390a45060016101ed565b5060005b92915050565b61089f806102026000396000f3fe608060405234801561001057600080fd5b50600436106100ea5760003560e01c8063827ebb371161008c578063c8e71e7b11610066578063c8e71e7b14610223578063d547741f1461024a578063da44401e1461025d578063f0bd87cc1461027057600080fd5b8063827ebb37146101d157806391d14854146101e4578063a217fddf1461021b57600080fd5b80632f2ff15d116100c85780632f2ff15d1461016f57806336568abe146101845780635a57f1f51461019757806375b238fc146101aa57600080fd5b806301ffc9a7146100ef5780631311916114610117578063248a9ca31461014c575b600080fd5b6101026100fd3660046107d2565b610297565b60405190151581526020015b60405180910390f35b61013e7f14823911f2da1b49f045a0929a60b8c1f2a7fc8c06c7284ca3e8ab4e193a08c881565b60405190815260200161010e565b61013e61015a366004610814565b60009081526020819052604090206001015490565b61018261017d36600461082d565b610330565b005b61018261019236600461082d565b61035b565b6101826101a536600461082d565b6103ac565b61013e7fa49807205ce4d355092ef5a8a18f56e8913cf4a201fbe287825b095693c2177581565b6101026101df36600461082d565b6105a3565b6101026101f236600461082d565b6000918252602082815260408084206001600160a01b0393909316845291905290205460ff1690565b61013e600081565b61013e7f1fbe8ca02d8a028bb1d006343dd44cf5cbcd0e3f4761bfba56c3fbd82262671881565b61018261025836600461082d565b6105cf565b61018261026b36600461082d565b6105f4565b61013e7ffbd454f36a7e1a388bd6fc3ab10d434aa4578f811acbbcf33afb1c697486313c81565b60007fffffffff0000000000000000000000000000000000000000000000000000000082167f7965db0b00000000000000000000000000000000000000000000000000000000148061032a57507f01ffc9a7000000000000000000000000000000000000000000000000000000007fffffffff000000000000000000000000000000000000000000000000000000008316145b92915050565b60008281526020819052604090206001015461034b81610628565b6103558383610635565b50505050565b6001600160a01b038116331461039d576040517f6697b23200000000000000000000000000000000000000000000000000000000815260040160405180910390fd5b6103a782826106df565b505050565b7f1fbe8ca02d8a028bb1d006343dd44cf5cbcd0e3f4761bfba56c3fbd8226267188214806103f957507f14823911f2da1b49f045a0929a60b8c1f2a7fc8c06c7284ca3e8ab4e193a08c882145b6104705760405162461bcd60e51b815260206004820152603060248201527f4f6e6c7920494e5354414e43455f524f4c4520616e6420555345525f524f4c4560448201527f2063616e2062652061737369676e65640000000000000000000000000000000060648201526084015b60405180910390fd5b6001600160a01b03811660009081527facd580a020501fb9e6e77ea6de4fa4c69db20d4380b2b52a7816676113b1fa9a60209081526040808320547f7d7ffb7a348e1c6a02869081a26547b49160dd3df72d1d75a570eb9b698292ec8352818420547f61e9d7e5b9ecb953628610c8e8aed5035eb527e78ac991a2d11b46a95391318990935292205460ff92831692918216911682158015610510575081155b801561051a575080155b1561052e576105298585610330565b61059c565b60405162461bcd60e51b815260206004820152602a60248201527f5573657220616c726561647920686173206120646966666572656e7420726f6c60448201527f652061737369676e6564000000000000000000000000000000000000000000006064820152608401610467565b5050505050565b6000828152602081815260408083206001600160a01b038516845290915281205460ff165b9392505050565b6000828152602081905260409020600101546105ea81610628565b61035583836106df565b7fa49807205ce4d355092ef5a8a18f56e8913cf4a201fbe287825b095693c2177561061e81610628565b6103a78383610330565b6106328133610762565b50565b6000828152602081815260408083206001600160a01b038516845290915281205460ff166106d7576000838152602081815260408083206001600160a01b03861684529091529020805460ff1916600117905561068f3390565b6001600160a01b0316826001600160a01b0316847f2f8788117e7eff1d82e926ec794901d17c78024a50270940304540a733656f0d60405160405180910390a450600161032a565b50600061032a565b6000828152602081815260408083206001600160a01b038516845290915281205460ff16156106d7576000838152602081815260408083206001600160a01b0386168085529252808320805460ff1916905551339286917ff6391f5c32d9c69d2a47ea670b442974b53935d1edc7fd64eb21e047a839171b9190a450600161032a565b6000828152602081815260408083206001600160a01b038516845290915290205460ff166107ce576040517fe2517d3f0000000000000000000000000000000000000000000000000000000081526001600160a01b038216600482015260248101839052604401610467565b5050565b6000602082840312156107e457600080fd5b81357fffffffff00000000000000000000000000000000000000000000000000000000811681146105c857600080fd5b60006020828403121561082657600080fd5b5035919050565b6000806040838503121561084057600080fd5b8235915060208301356001600160a01b038116811461085e57600080fd5b80915050925092905056fea2646970667358221220333555d8da0905dd47ed48a1baa00da38b1d0a8eca3424104aa4c0b317d720c064736f6c634300081b0033a49807205ce4d355092ef5a8a18f56e8913cf4a201fbe287825b095693c21775",
  "linkReferences": {},
  "deployedLinkReferences": {}
}