{
  "_format": "hh-sol-artifact-1",
  "contractName": "Poll",
  "sourceName": "contracts/Poll.sol",
  "abi": [
    {
      "inputs": [
        {
          "internalType": "string",
          "name": "_title",
          "type": "string"
        },
        {
          "internalType": "string[]",
          "name": "_votingOptions",
          "type": "string[]"
        },
        {
          "internalType": "uint256",
          "name": "_endDate",
          "type": "uint256"
        },
        {
          "internalType": "uint256",
          "name": "_minAge",
          "type": "uint256"
        },
        {
          "internalType": "string",
          "name": "_location",
          "type": "string"
        },
        {
          "internalType": "uint256",
          "name": "_minTokensRequired",
          "type": "uint256"
        },
        {
          "internalType": "address",
          "name": "_creator",
          "type": "address"
        },
        {
          "internalType": "address",
          "name": "_accessControlManager",
          "type": "address"
        },
        {
          "internalType": "address",
          "name": "_tokenDistribution",
          "type": "address"
        }
      ],
      "stateMutability": "nonpayable",
      "type": "constructor"
    },
    {
      "anonymous": false,
      "inputs": [
        {
          "indexed": true,
          "internalType": "address",
          "name": "from",
          "type": "address"
        },
        {
          "indexed": false,
          "internalType": "uint256",
          "name": "id",
          "type": "uint256"
        },
        {
          "indexed": false,
          "internalType": "uint256",
          "name": "amount",
          "type": "uint256"
        }
      ],
      "name": "NFTReceived",
      "type": "event"
    },
    {
      "anonymous": false,
      "inputs": [
        {
          "indexed": false,
          "internalType": "string",
          "name": "title",
          "type": "string"
        },
        {
          "indexed": false,
          "internalType": "uint256[]",
          "name": "results",
          "type": "uint256[]"
        }
      ],
      "name": "PollFinalized",
      "type": "event"
    },
    {
      "anonymous": false,
      "inputs": [
        {
          "indexed": true,
          "internalType": "address",
          "name": "voter",
          "type": "address"
        },
        {
          "indexed": false,
          "internalType": "uint256",
          "name": "optionIndex",
          "type": "uint256"
        },
        {
          "indexed": false,
          "internalType": "uint256",
          "name": "amount",
          "type": "uint256"
        }
      ],
      "name": "VoteCast",
      "type": "event"
    },
    {
      "anonymous": false,
      "inputs": [
        {
          "indexed": true,
          "internalType": "address",
          "name": "voter",
          "type": "address"
        },
        {
          "indexed": false,
          "internalType": "uint256[]",
          "name": "optionIndexes",
          "type": "uint256[]"
        },
        {
          "indexed": false,
          "internalType": "uint256[]",
          "name": "amounts",
          "type": "uint256[]"
        }
      ],
      "name": "VotesCast",
      "type": "event"
    },
    {
      "inputs": [],
      "name": "accessControlManager",
      "outputs": [
        {
          "internalType": "contract AccessControlManager",
          "name": "",
          "type": "address"
        }
      ],
      "stateMutability": "view",
      "type": "function"
    },
    {
      "inputs": [
        {
          "internalType": "uint256",
          "name": "optionIndex",
          "type": "uint256"
        },
        {
          "internalType": "uint256",
          "name": "amount",
          "type": "uint256"
        }
      ],
      "name": "castVote",
      "outputs": [],
      "stateMutability": "nonpayable",
      "type": "function"
    },
    {
      "inputs": [
        {
          "internalType": "uint256[]",
          "name": "optionIndexes",
          "type": "uint256[]"
        },
        {
          "internalType": "uint256[]",
          "name": "amounts",
          "type": "uint256[]"
        }
      ],
      "name": "castVotes",
      "outputs": [],
      "stateMutability": "nonpayable",
      "type": "function"
    },
    {
      "inputs": [],
      "name": "creator",
      "outputs": [
        {
          "internalType": "address",
          "name": "",
          "type": "address"
        }
      ],
      "stateMutability": "view",
      "type": "function"
    },
    {
      "inputs": [],
      "name": "endDate",
      "outputs": [
        {
          "internalType": "uint256",
          "name": "",
          "type": "uint256"
        }
      ],
      "stateMutability": "view",
      "type": "function"
    },
    {
      "inputs": [],
      "name": "finalizePoll",
      "outputs": [],
      "stateMutability": "nonpayable",
      "type": "function"
    },
    {
      "inputs": [],
      "name": "getEligibility",
      "outputs": [
        {
          "internalType": "uint256",
          "name": "",
          "type": "uint256"
        },
        {
          "internalType": "string",
          "name": "",
          "type": "string"
        },
        {
          "internalType": "uint256",
          "name": "",
          "type": "uint256"
        }
      ],
      "stateMutability": "view",
      "type": "function"
    },
    {
      "inputs": [],
      "name": "getResults",
      "outputs": [
        {
          "internalType": "uint256[]",
          "name": "",
          "type": "uint256[]"
        }
      ],
      "stateMutability": "view",
      "type": "function"
    },
    {
      "inputs": [],
      "name": "getTotalOptions",
      "outputs": [
        {
          "internalType": "uint256",
          "name": "",
          "type": "uint256"
        }
      ],
      "stateMutability": "view",
      "type": "function"
    },
    {
      "inputs": [
        {
          "internalType": "address",
          "name": "user",
          "type": "address"
        }
      ],
      "name": "getUserVotes",
      "outputs": [
        {
          "internalType": "uint256[]",
          "name": "optionIndexes",
          "type": "uint256[]"
        },
        {
          "internalType": "uint256[]",
          "name": "amounts",
          "type": "uint256[]"
        }
      ],
      "stateMutability": "view",
      "type": "function"
    },
    {
      "inputs": [
        {
          "internalType": "uint256",
          "name": "optionIndex",
          "type": "uint256"
        }
      ],
      "name": "getVoteCount",
      "outputs": [
        {
          "internalType": "uint256",
          "name": "",
          "type": "uint256"
        }
      ],
      "stateMutability": "view",
      "type": "function"
    },
    {
      "inputs": [],
      "name": "isFinalized",
      "outputs": [
        {
          "internalType": "bool",
          "name": "",
          "type": "bool"
        }
      ],
      "stateMutability": "view",
      "type": "function"
    },
    {
      "inputs": [],
      "name": "location",
      "outputs": [
        {
          "internalType": "string",
          "name": "",
          "type": "string"
        }
      ],
      "stateMutability": "view",
      "type": "function"
    },
    {
      "inputs": [],
      "name": "minAge",
      "outputs": [
        {
          "internalType": "uint256",
          "name": "",
          "type": "uint256"
        }
      ],
      "stateMutability": "view",
      "type": "function"
    },
    {
      "inputs": [],
      "name": "minTokensRequired",
      "outputs": [
        {
          "internalType": "uint256",
          "name": "",
          "type": "uint256"
        }
      ],
      "stateMutability": "view",
      "type": "function"
    },
    {
      "inputs": [
        {
          "internalType": "address",
          "name": "",
          "type": "address"
        },
        {
          "internalType": "address",
          "name": "from",
          "type": "address"
        },
        {
          "internalType": "uint256[]",
          "name": "ids",
          "type": "uint256[]"
        },
        {
          "internalType": "uint256[]",
          "name": "values",
          "type": "uint256[]"
        },
        {
          "internalType": "bytes",
          "name": "",
          "type": "bytes"
        }
      ],
      "name": "onERC1155BatchReceived",
      "outputs": [
        {
          "internalType": "bytes4",
          "name": "",
          "type": "bytes4"
        }
      ],
      "stateMutability": "nonpayable",
      "type": "function"
    },
    {
      "inputs": [
        {
          "internalType": "address",
          "name": "",
          "type": "address"
        },
        {
          "internalType": "address",
          "name": "from",
          "type": "address"
        },
        {
          "internalType": "uint256",
          "name": "id",
          "type": "uint256"
        },
        {
          "internalType": "uint256",
          "name": "value",
          "type": "uint256"
        },
        {
          "internalType": "bytes",
          "name": "",
          "type": "bytes"
        }
      ],
      "name": "onERC1155Received",
      "outputs": [
        {
          "internalType": "bytes4",
          "name": "",
          "type": "bytes4"
        }
      ],
      "stateMutability": "nonpayable",
      "type": "function"
    },
    {
      "inputs": [],
      "name": "pollTitle",
      "outputs": [
        {
          "internalType": "string",
          "name": "",
          "type": "string"
        }
      ],
      "stateMutability": "view",
      "type": "function"
    },
    {
      "inputs": [
        {
          "internalType": "bytes4",
          "name": "interfaceId",
          "type": "bytes4"
        }
      ],
      "name": "supportsInterface",
      "outputs": [
        {
          "internalType": "bool",
          "name": "",
          "type": "bool"
        }
      ],
      "stateMutability": "view",
      "type": "function"
    },
    {
      "inputs": [],
      "name": "tokenDistribution",
      "outputs": [
        {
          "internalType": "contract TokenDistribution",
          "name": "",
          "type": "address"
        }
      ],
      "stateMutability": "view",
      "type": "function"
    },
    {
      "inputs": [
        {
          "internalType": "address",
          "name": "",
          "type": "address"
        },
        {
          "internalType": "uint256",
          "name": "",
          "type": "uint256"
        }
      ],
      "name": "votes",
      "outputs": [
        {
          "internalType": "uint256",
          "name": "",
          "type": "uint256"
        }
      ],
      "stateMutability": "view",
      "type": "function"
    },
    {
      "inputs": [
        {
          "internalType": "uint256",
          "name": "",
          "type": "uint256"
        }
      ],
      "name": "votingOptions",
      "outputs": [
        {
          "internalType": "string",
          "name": "description",
          "type": "string"
        },
        {
          "internalType": "uint256",
          "name": "voteCount",
          "type": "uint256"
        }
      ],
      "stateMutability": "view",
      "type": "function"
    }
  ],
  "bytecode": "0x608060405234801561001057600080fd5b506040516122ce3803806122ce83398101604081905261002f9161049f565b4287116100835760405162461bcd60e51b815260206004820152601e60248201527f456e642064617465206d75737420626520696e2074686520667574757265000060448201526064015b60405180910390fd5b600086116100e15760405162461bcd60e51b815260206004820152602560248201527f4d696e696d756d20616765206d7573742062652067726561746572207468616e604482015264207a65726f60d81b606482015260840161007a565b6001600160a01b0383166101375760405162461bcd60e51b815260206004820152601e60248201527f43726561746f7220616464726573732063616e6e6f74206265207a65726f0000604482015260640161007a565b6001600160a01b0382166101a15760405162461bcd60e51b815260206004820152602b60248201527f416363657373436f6e74726f6c4d616e6167657220616464726573732063616e60448201526a6e6f74206265207a65726f60a81b606482015260840161007a565b6001600160a01b0381166102085760405162461bcd60e51b815260206004820152602860248201527f546f6b656e446973747269627574696f6e20616464726573732063616e6e6f74604482015267206265207a65726f60c01b606482015260840161007a565b600080546001600160a01b038085166001600160a01b031992831617909255600180549284169290911691909117905560026102448a82610610565b5060038790556007869055600861025b8682610610565b50600984905560048054610100600160a81b0319166101006001600160a01b0386160217905560005b88518110156102f857600560405180604001604052808b84815181106102ac576102ac6106ce565b602090810291909101810151825260009181018290528354600181018555938252902081519192600202019081906102e49082610610565b506020919091015160019182015501610284565b50506004805460ff19169055506106e49650505050505050565b634e487b7160e01b600052604160045260246000fd5b604051601f8201601f191681016001600160401b038111828210171561035057610350610312565b604052919050565b600082601f83011261036957600080fd5b81516001600160401b0381111561038257610382610312565b610395601f8201601f1916602001610328565b8181528460208386010111156103aa57600080fd5b60005b828110156103c9576020818601810151838301820152016103ad565b506000918101602001919091529392505050565b600082601f8301126103ee57600080fd5b81516001600160401b0381111561040757610407610312565b8060051b61041760208201610328565b9182526020818501810192908101908684111561043357600080fd5b6020860192505b838310156104795782516001600160401b0381111561045857600080fd5b610467886020838a0101610358565b8352506020928301929091019061043a565b9695505050505050565b80516001600160a01b038116811461049a57600080fd5b919050565b60008060008060008060008060006101208a8c0312156104be57600080fd5b89516001600160401b038111156104d457600080fd5b6104e08c828d01610358565b60208c0151909a5090506001600160401b038111156104fe57600080fd5b61050a8c828d016103dd565b60408c015160608d015160808e0151929b50909950975090506001600160401b0381111561053757600080fd5b6105438c828d01610358565b60a08c0151909650945061055b905060c08b01610483565b925061056960e08b01610483565b91506105786101008b01610483565b90509295985092959850929598565b600181811c9082168061059b57607f821691505b6020821081036105bb57634e487b7160e01b600052602260045260246000fd5b50919050565b601f82111561060b57806000526020600020601f840160051c810160208510156105e85750805b601f840160051c820191505b8181101561060857600081556001016105f4565b50505b505050565b81516001600160401b0381111561062957610629610312565b61063d816106378454610587565b846105c1565b6020601f82116001811461067157600083156106595750848201515b600019600385901b1c1916600184901b178455610608565b600084815260208120601f198516915b828110156106a15787850151825560209485019460019092019101610681565b50848210156106bf5786840151600019600387901b60f8161c191681555b50505050600190811b01905550565b634e487b7160e01b600052603260045260246000fd5b611bdb806106f36000396000f3fe608060405234801561001057600080fd5b50600436106101825760003560e01c80639f2524ee116100d8578063c24a0f8b1161008c578063ceeb71d411610066578063ceeb71d414610334578063dff67f6b14610347578063f23a6e611461036857600080fd5b8063c24a0f8b1461031a578063c4614c0714610323578063ca4c20d01461032b57600080fd5b8063b2db3503116100bd578063b2db3503146102d3578063b4a0bdf3146102db578063bc197c81146102ee57600080fd5b80639f2524ee14610295578063b2c2f2e8146102c057600080fd5b80634717f97c1161013a57806355519d871161011457806355519d87146102505780638d4e408314610267578063950c78221461027457600080fd5b80634717f97c1461021e5780634d6b2df214610233578063516f279e1461023b57600080fd5b806308a6077c1161016b57806308a6077c146101df5780631a7316ab146101f25780632c0a3f891461020957600080fd5b806301ffc9a71461018757806302d05d3f146101af575b600080fd5b61019a61019536600461154d565b61037b565b60405190151581526020015b60405180910390f35b6004546101c79061010090046001600160a01b031681565b6040516001600160a01b0390911681526020016101a6565b6001546101c7906001600160a01b031681565b6101fa6103e4565b6040516101a6939291906115c4565b61021c6102173660046115ed565b610489565b005b61022661086d565b6040516101a6919061164b565b61021c610969565b610243610a17565b6040516101a6919061165e565b61025960075481565b6040519081526020016101a6565b60045461019a9060ff1681565b61028761028236600461168d565b610aa5565b6040516101a69291906116a8565b6102596102a33660046116d6565b600660209081526000928352604080842090915290825290205481565b6102596102ce366004611700565b610c38565b600554610259565b6000546101c7906001600160a01b031681565b6103016102fc3660046117a7565b610cb8565b6040516001600160e01b031990911681526020016101a6565b61025960035481565b610243610d77565b61025960095481565b61021c610342366004611923565b610d84565b61035a610355366004611700565b611315565b6040516101a692919061198c565b6103016103763660046119ae565b6113d1565b60006001600160e01b031982167f4e2312e00000000000000000000000000000000000000000000000000000000014806103de57507f01ffc9a7000000000000000000000000000000000000000000000000000000006001600160e01b03198316145b92915050565b60006060600060075460086009548180546103fe90611a26565b80601f016020809104026020016040519081016040528092919081815260200182805461042a90611a26565b80156104775780601f1061044c57610100808354040283529160200191610477565b820191906000526020600020905b81548152906001019060200180831161045a57829003601f168201915b50505050509150925092509250909192565b60045460ff16156104e15760405162461bcd60e51b815260206004820152601960248201527f506f6c6c20697320616c72656164792066696e616c697a65640000000000000060448201526064015b60405180910390fd5b60008054906101000a90046001600160a01b03166001600160a01b031663131191616040518163ffffffff1660e01b8152600401602060405180830381865afa158015610532573d6000803e3d6000fd5b505050506040513d601f19601f820116820180604052508101906105569190611a5a565b60005460405163827ebb3760e01b8152600481018390523360248201526001600160a01b039091169063827ebb3790604401602060405180830381865afa1580156105a5573d6000803e3d6000fd5b505050506040513d601f19601f820116820180604052508101906105c99190611a73565b6106155760405162461bcd60e51b815260206004820152601d60248201527f4163636573732064656e6965643a20496e636f727265637420726f6c6500000060448201526064016104d8565b60055483106106665760405162461bcd60e51b815260206004820152601560248201527f496e76616c696420766f74696e67206f7074696f6e000000000000000000000060448201526064016104d8565b600154604051627eeac760e11b81523360048201523060248201819052916000916001600160a01b039091169062fdd58e90604401602060405180830381865afa1580156106b8573d6000803e3d6000fd5b505050506040513d601f19601f820116820180604052508101906106dc9190611a5a565b90508381101561073c5760405162461bcd60e51b815260206004820152602560248201527f496e73756666696369656e74204e465420746f6b656e7320666f722074686973604482015264081c1bdb1b60da1b60648201526084016104d8565b600154604051637921219560e11b8152336004820152306024820152604481018490526064810186905260a06084820152600060a48201526001600160a01b039091169063f242432a9060c401600060405180830381600087803b1580156107a357600080fd5b505af11580156107b7573d6000803e3d6000fd5b5050505083600586815481106107cf576107cf611a95565b906000526020600020906002020160010160008282546107ef9190611ac1565b90915550503360009081526006602090815260408083208884529091528120805486929061081e908490611ac1565b9091555050604080518681526020810186905233917fb4cfecf70861b7b150d8337780d34fb4cbc2114b5fb1fe51a5c5fca1849f7274910160405180910390a2610866611444565b5050505050565b60045460609060ff166108c25760405162461bcd60e51b815260206004820152601f60248201527f506f6c6c20686173206e6f74206265656e2066696e616c697a6564207965740060448201526064016104d8565b60055460009067ffffffffffffffff8111156108e0576108e061186e565b604051908082528060200260200182016040528015610909578160200160208202803683370190505b50905060005b600554811015610963576005818154811061092c5761092c611a95565b90600052602060002090600202016001015482828151811061095057610950611a95565b602090810291909101015260010161090f565b50919050565b60035442116109ba5760405162461bcd60e51b815260206004820152601460248201527f506f6c6c206973207374696c6c2061637469766500000000000000000000000060448201526064016104d8565b60045460ff1615610a0d5760405162461bcd60e51b815260206004820152601960248201527f506f6c6c20697320616c72656164792066696e616c697a65640000000000000060448201526064016104d8565b610a15611461565b565b60088054610a2490611a26565b80601f0160208091040260200160405190810160405280929190818152602001828054610a5090611a26565b8015610a9d5780601f10610a7257610100808354040283529160200191610a9d565b820191906000526020600020905b815481529060010190602001808311610a8057829003601f168201915b505050505081565b60055460609081906000805b82811015610af8576001600160a01b038616600090815260066020908152604080832084845290915290205415610af05781610aec81611ad4565b9250505b600101610ab1565b508067ffffffffffffffff811115610b1257610b1261186e565b604051908082528060200260200182016040528015610b3b578160200160208202803683370190505b5093508067ffffffffffffffff811115610b5757610b5761186e565b604051908082528060200260200182016040528015610b80578160200160208202803683370190505b5092506000805b83811015610c2f576001600160a01b038716600090815260066020908152604080832084845290915290205415610c275780868381518110610bcb57610bcb611a95565b6020908102919091018101919091526001600160a01b038816600090815260068252604080822084835290925220548551869084908110610c0e57610c0e611a95565b602090810291909101015281610c2381611ad4565b9250505b600101610b87565b50505050915091565b6005546000908210610c8c5760405162461bcd60e51b815260206004820152601460248201527f496e76616c6964206f7074696f6e20696e64657800000000000000000000000060448201526064016104d8565b60058281548110610c9f57610c9f611a95565b9060005260206000209060020201600101549050919050565b6000805b86811015610d4857886001600160a01b03167f81280eb48cd4fdc7e7aa30f01a44da552d3c96a0944ee2cb8ce0e6e4cc1891a1898984818110610d0157610d01611a95565b90506020020135888885818110610d1a57610d1a611a95565b90506020020135604051610d38929190918252602082015260400190565b60405180910390a2600101610cbc565b507fbc197c81000000000000000000000000000000000000000000000000000000009998505050505050505050565b60028054610a2490611a26565b60045460ff1615610dd75760405162461bcd60e51b815260206004820152601960248201527f506f6c6c20697320616c72656164792066696e616c697a65640000000000000060448201526064016104d8565b60008054906101000a90046001600160a01b03166001600160a01b031663131191616040518163ffffffff1660e01b8152600401602060405180830381865afa158015610e28573d6000803e3d6000fd5b505050506040513d601f19601f82011682018060405250810190610e4c9190611a5a565b60005460405163827ebb3760e01b8152600481018390523360248201526001600160a01b039091169063827ebb3790604401602060405180830381865afa158015610e9b573d6000803e3d6000fd5b505050506040513d601f19601f82011682018060405250810190610ebf9190611a73565b610f0b5760405162461bcd60e51b815260206004820152601d60248201527f4163636573732064656e6965643a20496e636f727265637420726f6c6500000060448201526064016104d8565b8151835114610f5c5760405162461bcd60e51b815260206004820152601e60248201527f4d69736d61746368656420696e646578657320616e6420616d6f756e7473000060448201526064016104d8565b600154604051627eeac760e11b81523360048201523060248201819052916000916001600160a01b039091169062fdd58e90604401602060405180830381865afa158015610fae573d6000803e3d6000fd5b505050506040513d601f19601f82011682018060405250810190610fd29190611a5a565b90506000805b86518110156110e5576005548751889083908110610ff857610ff8611a95565b60200260200101511061104d5760405162461bcd60e51b815260206004820152601560248201527f496e76616c696420766f74696e67206f7074696f6e000000000000000000000060448201526064016104d8565b600086828151811061106157611061611a95565b6020026020010151116110b65760405162461bcd60e51b815260206004820181905260248201527f416d6f756e74206d7573742062652067726561746572207468616e207a65726f60448201526064016104d8565b8581815181106110c8576110c8611a95565b6020026020010151826110db9190611ac1565b9150600101610fd8565b50808210156111445760405162461bcd60e51b815260206004820152602560248201527f496e73756666696369656e74204e465420746f6b656e7320666f722074686973604482015264081c1bdb1b60da1b60648201526084016104d8565b600154604051637921219560e11b8152336004820152306024820152604481018590526064810183905260a06084820152600060a48201526001600160a01b039091169063f242432a9060c401600060405180830381600087803b1580156111ab57600080fd5b505af11580156111bf573d6000803e3d6000fd5b5050505060005b86518110156112c1578581815181106111e1576111e1611a95565b602002602001015160058883815181106111fd576111fd611a95565b60200260200101518154811061121557611215611a95565b906000526020600020906002020160010160008282546112359190611ac1565b9250508190555085818151811061124e5761124e611a95565b602002602001015160066000336001600160a01b03166001600160a01b03168152602001908152602001600020600089848151811061128f5761128f611a95565b6020026020010151815260200190815260200160002060008282546112b49190611ac1565b90915550506001016111c6565b50336001600160a01b03167f0976f46bbe903f9096eb0952887bca9cf22e2fce0c19372119b908f10a4e206f87876040516112fd9291906116a8565b60405180910390a261130d611444565b505050505050565b6005818154811061132557600080fd5b906000526020600020906002020160009150905080600001805461134890611a26565b80601f016020809104026020016040519081016040528092919081815260200182805461137490611a26565b80156113c15780601f10611396576101008083540402835291602001916113c1565b820191906000526020600020905b8154815290600101906020018083116113a457829003601f168201915b5050505050908060010154905082565b60408051858152602081018590526000916001600160a01b038816917f81280eb48cd4fdc7e7aa30f01a44da552d3c96a0944ee2cb8ce0e6e4cc1891a1910160405180910390a2507ff23a6e61000000000000000000000000000000000000000000000000000000009695505050505050565b60035442118015611458575060045460ff16155b15610a1557610a155b6004805460ff1916600117905560055460009067ffffffffffffffff81111561148c5761148c61186e565b6040519080825280602002602001820160405280156114b5578160200160208202803683370190505b50905060005b60055481101561150f57600581815481106114d8576114d8611a95565b9060005260206000209060020201600101548282815181106114fc576114fc611a95565b60209081029190910101526001016114bb565b507f0b5388ca9ed400b20e1fd0b28009e66319e7c4254c44c9b29ce5d970726931b1600282604051611542929190611aed565b60405180910390a150565b60006020828403121561155f57600080fd5b81356001600160e01b03198116811461157757600080fd5b9392505050565b6000815180845260005b818110156115a457602081850181015186830182015201611588565b506000602082860101526020601f19601f83011685010191505092915050565b8381526060602082015260006115dd606083018561157e565b9050826040830152949350505050565b6000806040838503121561160057600080fd5b50508035926020909101359150565b600081518084526020840193506020830160005b82811015611641578151865260209586019590910190600101611623565b5093949350505050565b602081526000611577602083018461160f565b602081526000611577602083018461157e565b80356001600160a01b038116811461168857600080fd5b919050565b60006020828403121561169f57600080fd5b61157782611671565b6040815260006116bb604083018561160f565b82810360208401526116cd818561160f565b95945050505050565b600080604083850312156116e957600080fd5b6116f283611671565b946020939093013593505050565b60006020828403121561171257600080fd5b5035919050565b60008083601f84011261172b57600080fd5b50813567ffffffffffffffff81111561174357600080fd5b6020830191508360208260051b850101111561175e57600080fd5b9250929050565b60008083601f84011261177757600080fd5b50813567ffffffffffffffff81111561178f57600080fd5b60208301915083602082850101111561175e57600080fd5b60008060008060008060008060a0898b0312156117c357600080fd5b6117cc89611671565b97506117da60208a01611671565b9650604089013567ffffffffffffffff8111156117f657600080fd5b6118028b828c01611719565b909750955050606089013567ffffffffffffffff81111561182257600080fd5b61182e8b828c01611719565b909550935050608089013567ffffffffffffffff81111561184e57600080fd5b61185a8b828c01611765565b999c989b5096995094979396929594505050565b634e487b7160e01b600052604160045260246000fd5b600082601f83011261189557600080fd5b813567ffffffffffffffff8111156118af576118af61186e565b8060051b604051601f19603f830116810181811067ffffffffffffffff821117156118dc576118dc61186e565b6040529182526020818501810192908101868411156118fa57600080fd5b6020860192505b83831015611919578235815260209283019201611901565b5095945050505050565b6000806040838503121561193657600080fd5b823567ffffffffffffffff81111561194d57600080fd5b61195985828601611884565b925050602083013567ffffffffffffffff81111561197657600080fd5b61198285828601611884565b9150509250929050565b60408152600061199f604083018561157e565b90508260208301529392505050565b60008060008060008060a087890312156119c757600080fd5b6119d087611671565b95506119de60208801611671565b94506040870135935060608701359250608087013567ffffffffffffffff811115611a0857600080fd5b611a1489828a01611765565b979a9699509497509295939492505050565b600181811c90821680611a3a57607f821691505b60208210810361096357634e487b7160e01b600052602260045260246000fd5b600060208284031215611a6c57600080fd5b5051919050565b600060208284031215611a8557600080fd5b8151801515811461157757600080fd5b634e487b7160e01b600052603260045260246000fd5b634e487b7160e01b600052601160045260246000fd5b808201808211156103de576103de611aab565b600060018201611ae657611ae6611aab565b5060010190565b604081526000808454818160011c90506001821680611b0d57607f821691505b602082108103611b2b57634e487b7160e01b84526022600452602484fd5b6040860182905260608601818015611b4a5760018114611b6057611b8e565b60ff198516825283151560051b82019550611b8e565b60008a81526020902060005b85811015611b8857815484820152600190910190602001611b6c565b83019650505b505050505082810360208401526116cd818561160f56fea264697066735822122039a3a250eaeeb3d9e9859da05c9722b723aa40ec490be1246b14946f04be437164736f6c634300081b0033",
  "linkReferences": {},
  "deployedLinkReferences": {}
}