{
  "_format": "hh-sol-artifact-1",
  "contractName": "Poll",
  "sourceName": "contracts/Poll.sol",
  "abi": [
    {
      "inputs": [
        {
          "internalType": "string",
          "name": "_title",
          "type": "string"
        },
        {
          "internalType": "string[]",
          "name": "_votingOptions",
          "type": "string[]"
        },
        {
          "internalType": "uint256",
          "name": "_endDate",
          "type": "uint256"
        },
        {
          "internalType": "uint256",
          "name": "_minAge",
          "type": "uint256"
        },
        {
          "internalType": "string",
          "name": "_location",
          "type": "string"
        },
        {
          "internalType": "uint256",
          "name": "_minTokensRequired",
          "type": "uint256"
        },
        {
          "internalType": "address",
          "name": "_creator",
          "type": "address"
        },
        {
          "internalType": "address",
          "name": "_accessControlManager",
          "type": "address"
        }
      ],
      "stateMutability": "nonpayable",
      "type": "constructor"
    },
    {
      "anonymous": false,
      "inputs": [
        {
          "indexed": false,
          "internalType": "string",
          "name": "title",
          "type": "string"
        },
        {
          "indexed": false,
          "internalType": "uint256[]",
          "name": "results",
          "type": "uint256[]"
        }
      ],
      "name": "PollFinalized",
      "type": "event"
    },
    {
      "anonymous": false,
      "inputs": [
        {
          "indexed": true,
          "internalType": "address",
          "name": "voter",
          "type": "address"
        },
        {
          "indexed": false,
          "internalType": "uint256",
          "name": "optionIndex",
          "type": "uint256"
        },
        {
          "indexed": false,
          "internalType": "uint256",
          "name": "amount",
          "type": "uint256"
        }
      ],
      "name": "VoteCast",
      "type": "event"
    },
    {
      "anonymous": false,
      "inputs": [
        {
          "indexed": false,
          "internalType": "address",
          "name": "user",
          "type": "address"
        }
      ],
      "name": "VotesReset",
      "type": "event"
    },
    {
      "inputs": [],
      "name": "accessControlManager",
      "outputs": [
        {
          "internalType": "contract AccessControlManager",
          "name": "",
          "type": "address"
        }
      ],
      "stateMutability": "view",
      "type": "function"
    },
    {
      "inputs": [
        {
          "internalType": "address",
          "name": "user",
          "type": "address"
        },
        {
          "internalType": "uint256",
          "name": "optionIndex",
          "type": "uint256"
        },
        {
          "internalType": "uint256",
          "name": "amount",
          "type": "uint256"
        }
      ],
      "name": "castVote",
      "outputs": [],
      "stateMutability": "nonpayable",
      "type": "function"
    },
    {
      "inputs": [],
      "name": "creator",
      "outputs": [
        {
          "internalType": "address",
          "name": "",
          "type": "address"
        }
      ],
      "stateMutability": "view",
      "type": "function"
    },
    {
      "inputs": [],
      "name": "endDate",
      "outputs": [
        {
          "internalType": "uint256",
          "name": "",
          "type": "uint256"
        }
      ],
      "stateMutability": "view",
      "type": "function"
    },
    {
      "inputs": [],
      "name": "finalizePoll",
      "outputs": [],
      "stateMutability": "nonpayable",
      "type": "function"
    },
    {
      "inputs": [],
      "name": "getEligibility",
      "outputs": [
        {
          "internalType": "uint256",
          "name": "",
          "type": "uint256"
        },
        {
          "internalType": "string",
          "name": "",
          "type": "string"
        },
        {
          "internalType": "uint256",
          "name": "",
          "type": "uint256"
        }
      ],
      "stateMutability": "view",
      "type": "function"
    },
    {
      "inputs": [],
      "name": "getResults",
      "outputs": [
        {
          "internalType": "uint256[]",
          "name": "",
          "type": "uint256[]"
        }
      ],
      "stateMutability": "view",
      "type": "function"
    },
    {
      "inputs": [],
      "name": "getTotalOptions",
      "outputs": [
        {
          "internalType": "uint256",
          "name": "",
          "type": "uint256"
        }
      ],
      "stateMutability": "view",
      "type": "function"
    },
    {
      "inputs": [
        {
          "internalType": "address",
          "name": "user",
          "type": "address"
        }
      ],
      "name": "getUserVotes",
      "outputs": [
        {
          "internalType": "uint256[]",
          "name": "optionIndexes",
          "type": "uint256[]"
        },
        {
          "internalType": "uint256[]",
          "name": "amounts",
          "type": "uint256[]"
        }
      ],
      "stateMutability": "view",
      "type": "function"
    },
    {
      "inputs": [
        {
          "internalType": "uint256",
          "name": "optionIndex",
          "type": "uint256"
        }
      ],
      "name": "getVoteCount",
      "outputs": [
        {
          "internalType": "uint256",
          "name": "",
          "type": "uint256"
        }
      ],
      "stateMutability": "view",
      "type": "function"
    },
    {
      "inputs": [],
      "name": "isFinalized",
      "outputs": [
        {
          "internalType": "bool",
          "name": "",
          "type": "bool"
        }
      ],
      "stateMutability": "view",
      "type": "function"
    },
    {
      "inputs": [],
      "name": "location",
      "outputs": [
        {
          "internalType": "string",
          "name": "",
          "type": "string"
        }
      ],
      "stateMutability": "view",
      "type": "function"
    },
    {
      "inputs": [],
      "name": "minAge",
      "outputs": [
        {
          "internalType": "uint256",
          "name": "",
          "type": "uint256"
        }
      ],
      "stateMutability": "view",
      "type": "function"
    },
    {
      "inputs": [],
      "name": "minTokensRequired",
      "outputs": [
        {
          "internalType": "uint256",
          "name": "",
          "type": "uint256"
        }
      ],
      "stateMutability": "view",
      "type": "function"
    },
    {
      "inputs": [],
      "name": "pollTitle",
      "outputs": [
        {
          "internalType": "string",
          "name": "",
          "type": "string"
        }
      ],
      "stateMutability": "view",
      "type": "function"
    },
    {
      "inputs": [
        {
          "internalType": "address",
          "name": "user",
          "type": "address"
        }
      ],
      "name": "resetVotes",
      "outputs": [],
      "stateMutability": "nonpayable",
      "type": "function"
    },
    {
      "inputs": [
        {
          "internalType": "address",
          "name": "",
          "type": "address"
        },
        {
          "internalType": "uint256",
          "name": "",
          "type": "uint256"
        }
      ],
      "name": "votes",
      "outputs": [
        {
          "internalType": "uint256",
          "name": "",
          "type": "uint256"
        }
      ],
      "stateMutability": "view",
      "type": "function"
    },
    {
      "inputs": [
        {
          "internalType": "uint256",
          "name": "",
          "type": "uint256"
        }
      ],
      "name": "votingOptions",
      "outputs": [
        {
          "internalType": "string",
          "name": "description",
          "type": "string"
        },
        {
          "internalType": "uint256",
          "name": "voteCount",
          "type": "uint256"
        }
      ],
      "stateMutability": "view",
      "type": "function"
    }
  ],
  "bytecode": "0x608060405234801561001057600080fd5b5060405161188038038061188083398101604081905261002f91610422565b4286116100835760405162461bcd60e51b815260206004820152601e60248201527f456e642064617465206d75737420626520696e2074686520667574757265000060448201526064015b60405180910390fd5b600085116100e15760405162461bcd60e51b815260206004820152602560248201527f4d696e696d756d20616765206d7573742062652067726561746572207468616e604482015264207a65726f60d81b606482015260840161007a565b6001600160a01b0382166101375760405162461bcd60e51b815260206004820152601e60248201527f43726561746f7220616464726573732063616e6e6f74206265207a65726f0000604482015260640161007a565b6001600160a01b0381166101a15760405162461bcd60e51b815260206004820152602b60248201527f416363657373436f6e74726f6c4d616e6167657220616464726573732063616e60448201526a6e6f74206265207a65726f60a81b606482015260840161007a565b600080546001600160a01b0319166001600160a01b03831617905560016101c88982610582565b506002869055600685905560076101df8582610582565b50600883905560038054610100600160a81b0319166101006001600160a01b0385160217905560005b875181101561027c57600460405180604001604052808a848151811061023057610230610640565b602090810291909101810151825260009181018290528354600181018555938252902081519192600202019081906102689082610582565b506020919091015160019182015501610208565b50506003805460ff191690555061065695505050505050565b634e487b7160e01b600052604160045260246000fd5b604051601f8201601f191681016001600160401b03811182821017156102d3576102d3610295565b604052919050565b600082601f8301126102ec57600080fd5b81516001600160401b0381111561030557610305610295565b610318601f8201601f19166020016102ab565b81815284602083860101111561032d57600080fd5b60005b8281101561034c57602081860181015183830182015201610330565b506000918101602001919091529392505050565b600082601f83011261037157600080fd5b81516001600160401b0381111561038a5761038a610295565b8060051b61039a602082016102ab565b918252602081850181019290810190868411156103b657600080fd5b6020860192505b838310156103fc5782516001600160401b038111156103db57600080fd5b6103ea886020838a01016102db565b835250602092830192909101906103bd565b9695505050505050565b80516001600160a01b038116811461041d57600080fd5b919050565b600080600080600080600080610100898b03121561043f57600080fd5b88516001600160401b0381111561045557600080fd5b6104618b828c016102db565b60208b015190995090506001600160401b0381111561047f57600080fd5b61048b8b828c01610360565b60408b015160608c015160808d0151929a50909850965090506001600160401b038111156104b857600080fd5b6104c48b828c016102db565b60a08b015190955093506104dc905060c08a01610406565b91506104ea60e08a01610406565b90509295985092959890939650565b600181811c9082168061050d57607f821691505b60208210810361052d57634e487b7160e01b600052602260045260246000fd5b50919050565b601f82111561057d57806000526020600020601f840160051c8101602085101561055a5750805b601f840160051c820191505b8181101561057a5760008155600101610566565b50505b505050565b81516001600160401b0381111561059b5761059b610295565b6105af816105a984546104f9565b84610533565b6020601f8211600181146105e357600083156105cb5750848201515b600019600385901b1c1916600184901b17845561057a565b600084815260208120601f198516915b8281101561061357878501518255602094850194600190920191016105f3565b50848210156106315786840151600019600387901b60f8161c191681555b50505050600190811b01905550565b634e487b7160e01b600052603260045260246000fd5b61121b806106656000396000f3fe608060405234801561001057600080fd5b50600436106101365760003560e01c80639f2524ee116100b2578063c24a0f8b11610081578063ca4c20d011610066578063ca4c20d01461028d578063cab2d76e14610296578063dff67f6b146102a957600080fd5b8063c24a0f8b1461027c578063c4614c071461028557600080fd5b80639f2524ee14610223578063b2c2f2e81461024e578063b2db350314610261578063b4a0bdf31461026957600080fd5b80634d6b2df21161010957806355519d87116100ee57806355519d87146101ce5780638d4e4083146101e5578063950c78221461020257600080fd5b80634d6b2df2146101b1578063516f279e146101b957600080fd5b806302d05d3f1461013b578063122d0b9c146101705780631a7316ab146101855780634717f97c1461019c575b600080fd5b6003546101539061010090046001600160a01b031681565b6040516001600160a01b0390911681526020015b60405180910390f35b61018361017e366004610e7e565b6102ca565b005b61018d6104e2565b60405161016793929190610ee6565b6101a4610587565b6040516101679190610f4b565b610183610683565b6101c1610813565b6040516101679190610f5e565b6101d760065481565b604051908152602001610167565b6003546101f29060ff1681565b6040519015158152602001610167565b610215610210366004610e7e565b6108a1565b604051610167929190610f71565b6101d7610231366004610f9f565b600560209081526000928352604080842090915290825290205481565b6101d761025c366004610fc9565b610a34565b6004546101d7565b600054610153906001600160a01b031681565b6101d760025481565b6101c1610ab4565b6101d760085481565b6101836102a4366004610fe2565b610ac1565b6102bc6102b7366004610fc9565b610da6565b604051610167929190611015565b60008054906101000a90046001600160a01b03166001600160a01b031663131191616040518163ffffffff1660e01b8152600401602060405180830381865afa15801561031b573d6000803e3d6000fd5b505050506040513d601f19601f8201168201806040525081019061033f9190611037565b60005460405163827ebb3760e01b8152600481018390523360248201526001600160a01b039091169063827ebb3790604401602060405180830381865afa15801561038e573d6000803e3d6000fd5b505050506040513d601f19601f820116820180604052508101906103b29190611050565b6104035760405162461bcd60e51b815260206004820152601d60248201527f4163636573732064656e6965643a20496e636f727265637420726f6c6500000060448201526064015b60405180910390fd5b60005b6004548110156104a1576001600160a01b0383166000908152600560209081526040808320848452909152902054801561049857806004838154811061044e5761044e611072565b9060005260206000209060020201600101600082825461046e919061109e565b90915550506001600160a01b03841660009081526005602090815260408083208584529091528120555b50600101610406565b506040516001600160a01b03831681527f52377ea4d8812f0bb534fc079993e288b4ea73d011a2a368502255052a6b77309060200160405180910390a15050565b60006060600060065460076008548180546104fc906110b7565b80601f0160208091040260200160405190810160405280929190818152602001828054610528906110b7565b80156105755780601f1061054a57610100808354040283529160200191610575565b820191906000526020600020905b81548152906001019060200180831161055857829003601f168201915b50505050509150925092509250909192565b60035460609060ff166105dc5760405162461bcd60e51b815260206004820152601f60248201527f506f6c6c20686173206e6f74206265656e2066696e616c697a6564207965740060448201526064016103fa565b60045460009067ffffffffffffffff8111156105fa576105fa6110eb565b604051908082528060200260200182016040528015610623578160200160208202803683370190505b50905060005b60045481101561067d576004818154811061064657610646611072565b90600052602060002090600202016001015482828151811061066a5761066a611072565b6020908102919091010152600101610629565b50919050565b60025442116106d45760405162461bcd60e51b815260206004820152601460248201527f506f6c6c206973207374696c6c2061637469766500000000000000000000000060448201526064016103fa565b60035460ff16156107275760405162461bcd60e51b815260206004820152601960248201527f506f6c6c20697320616c72656164792066696e616c697a65640000000000000060448201526064016103fa565b6003805460ff1916600117905560045460009067ffffffffffffffff811115610752576107526110eb565b60405190808252806020026020018201604052801561077b578160200160208202803683370190505b50905060005b6004548110156107d5576004818154811061079e5761079e611072565b9060005260206000209060020201600101548282815181106107c2576107c2611072565b6020908102919091010152600101610781565b507f0b5388ca9ed400b20e1fd0b28009e66319e7c4254c44c9b29ce5d970726931b1600182604051610808929190611101565b60405180910390a150565b60078054610820906110b7565b80601f016020809104026020016040519081016040528092919081815260200182805461084c906110b7565b80156108995780601f1061086e57610100808354040283529160200191610899565b820191906000526020600020905b81548152906001019060200180831161087c57829003601f168201915b505050505081565b60045460609081906000805b828110156108f4576001600160a01b0386166000908152600560209081526040808320848452909152902054156108ec57816108e8816111b9565b9250505b6001016108ad565b508067ffffffffffffffff81111561090e5761090e6110eb565b604051908082528060200260200182016040528015610937578160200160208202803683370190505b5093508067ffffffffffffffff811115610953576109536110eb565b60405190808252806020026020018201604052801561097c578160200160208202803683370190505b5092506000805b83811015610a2b576001600160a01b038716600090815260056020908152604080832084845290915290205415610a2357808683815181106109c7576109c7611072565b6020908102919091018101919091526001600160a01b038816600090815260058252604080822084835290925220548551869084908110610a0a57610a0a611072565b602090810291909101015281610a1f816111b9565b9250505b600101610983565b50505050915091565b6004546000908210610a885760405162461bcd60e51b815260206004820152601460248201527f496e76616c6964206f7074696f6e20696e64657800000000000000000000000060448201526064016103fa565b60048281548110610a9b57610a9b611072565b9060005260206000209060020201600101549050919050565b60018054610820906110b7565b600254421115610b135760405162461bcd60e51b815260206004820152600e60248201527f506f6c6c2068617320656e64656400000000000000000000000000000000000060448201526064016103fa565b60035460ff1615610b665760405162461bcd60e51b815260206004820152601960248201527f506f6c6c20697320616c72656164792066696e616c697a65640000000000000060448201526064016103fa565b60008054906101000a90046001600160a01b03166001600160a01b031663131191616040518163ffffffff1660e01b8152600401602060405180830381865afa158015610bb7573d6000803e3d6000fd5b505050506040513d601f19601f82011682018060405250810190610bdb9190611037565b60005460405163827ebb3760e01b8152600481018390523360248201526001600160a01b039091169063827ebb3790604401602060405180830381865afa158015610c2a573d6000803e3d6000fd5b505050506040513d601f19601f82011682018060405250810190610c4e9190611050565b610c9a5760405162461bcd60e51b815260206004820152601d60248201527f4163636573732064656e6965643a20496e636f727265637420726f6c6500000060448201526064016103fa565b6004548310610ceb5760405162461bcd60e51b815260206004820152601560248201527f496e76616c696420766f74696e67206f7074696f6e000000000000000000000060448201526064016103fa565b8160048481548110610cff57610cff611072565b90600052602060002090600202016001016000828254610d1f91906111d2565b90915550506001600160a01b038416600090815260056020908152604080832086845290915281208054849290610d579084906111d2565b909155505060408051848152602081018490526001600160a01b038616917fb4cfecf70861b7b150d8337780d34fb4cbc2114b5fb1fe51a5c5fca1849f7274910160405180910390a250505050565b60048181548110610db657600080fd5b9060005260206000209060020201600091509050806000018054610dd9906110b7565b80601f0160208091040260200160405190810160405280929190818152602001828054610e05906110b7565b8015610e525780601f10610e2757610100808354040283529160200191610e52565b820191906000526020600020905b815481529060010190602001808311610e3557829003601f168201915b5050505050908060010154905082565b80356001600160a01b0381168114610e7957600080fd5b919050565b600060208284031215610e9057600080fd5b610e9982610e62565b9392505050565b6000815180845260005b81811015610ec657602081850181015186830182015201610eaa565b506000602082860101526020601f19601f83011685010191505092915050565b838152606060208201526000610eff6060830185610ea0565b9050826040830152949350505050565b600081518084526020840193506020830160005b82811015610f41578151865260209586019590910190600101610f23565b5093949350505050565b602081526000610e996020830184610f0f565b602081526000610e996020830184610ea0565b604081526000610f846040830185610f0f565b8281036020840152610f968185610f0f565b95945050505050565b60008060408385031215610fb257600080fd5b610fbb83610e62565b946020939093013593505050565b600060208284031215610fdb57600080fd5b5035919050565b600080600060608486031215610ff757600080fd5b61100084610e62565b95602085013595506040909401359392505050565b6040815260006110286040830185610ea0565b90508260208301529392505050565b60006020828403121561104957600080fd5b5051919050565b60006020828403121561106257600080fd5b81518015158114610e9957600080fd5b634e487b7160e01b600052603260045260246000fd5b634e487b7160e01b600052601160045260246000fd5b818103818111156110b1576110b1611088565b92915050565b600181811c908216806110cb57607f821691505b60208210810361067d57634e487b7160e01b600052602260045260246000fd5b634e487b7160e01b600052604160045260246000fd5b604081526000808454818160011c9050600182168061112157607f821691505b60208210810361113f57634e487b7160e01b84526022600452602484fd5b604086018290526060860181801561115e5760018114611174576111a2565b60ff198516825283151560051b820195506111a2565b60008a81526020902060005b8581101561119c57815484820152600190910190602001611180565b83019650505b50505050508281036020840152610f968185610f0f565b6000600182016111cb576111cb611088565b5060010190565b808201808211156110b1576110b161108856fea2646970667358221220d7f3bd620c27c5828fafb5bad02ea9ad5d663826aca21f6c065d68bc9a9f11e264736f6c634300081b0033",
  "linkReferences": {},
  "deployedLinkReferences": {}
}