{
  "_format": "hh-sol-artifact-1",
  "contractName": "PollFactory",
  "sourceName": "contracts/PollFactory.sol",
  "abi": [
    {
      "inputs": [
        {
          "internalType": "address",
          "name": "_tokenDistribution",
          "type": "address"
        },
        {
          "internalType": "address",
          "name": "_accessControlManager",
          "type": "address"
        }
      ],
      "stateMutability": "nonpayable",
      "type": "constructor"
    },
    {
      "anonymous": false,
      "inputs": [
        {
          "indexed": true,
          "internalType": "address",
          "name": "pollAddress",
          "type": "address"
        },
        {
          "indexed": true,
          "internalType": "address",
          "name": "creator",
          "type": "address"
        },
        {
          "indexed": false,
          "internalType": "string",
          "name": "title",
          "type": "string"
        },
        {
          "indexed": false,
          "internalType": "uint256",
          "name": "endDate",
          "type": "uint256"
        },
        {
          "indexed": false,
          "internalType": "uint256",
          "name": "pollId",
          "type": "uint256"
        }
      ],
      "name": "PollCreated",
      "type": "event"
    },
    {
      "inputs": [],
      "name": "accessControlManager",
      "outputs": [
        {
          "internalType": "contract AccessControlManager",
          "name": "",
          "type": "address"
        }
      ],
      "stateMutability": "view",
      "type": "function"
    },
    {
      "inputs": [
        {
          "internalType": "uint256",
          "name": "",
          "type": "uint256"
        }
      ],
      "name": "allPolls",
      "outputs": [
        {
          "internalType": "address",
          "name": "",
          "type": "address"
        }
      ],
      "stateMutability": "view",
      "type": "function"
    },
    {
      "inputs": [
        {
          "internalType": "string",
          "name": "title",
          "type": "string"
        },
        {
          "internalType": "string[]",
          "name": "options",
          "type": "string[]"
        },
        {
          "internalType": "uint256",
          "name": "endDate",
          "type": "uint256"
        },
        {
          "internalType": "uint256",
          "name": "minAge",
          "type": "uint256"
        },
        {
          "internalType": "string",
          "name": "location",
          "type": "string"
        },
        {
          "internalType": "uint256",
          "name": "minTokensRequired",
          "type": "uint256"
        },
        {
          "internalType": "uint256",
          "name": "totalTokenSupply",
          "type": "uint256"
        }
      ],
      "name": "createPoll",
      "outputs": [
        {
          "internalType": "address",
          "name": "",
          "type": "address"
        }
      ],
      "stateMutability": "nonpayable",
      "type": "function"
    },
    {
      "inputs": [],
      "name": "getPollCount",
      "outputs": [
        {
          "internalType": "uint256",
          "name": "",
          "type": "uint256"
        }
      ],
      "stateMutability": "view",
      "type": "function"
    },
    {
      "inputs": [
        {
          "internalType": "address",
          "name": "instance",
          "type": "address"
        }
      ],
      "name": "getPollsByInstance",
      "outputs": [
        {
          "internalType": "address[]",
          "name": "",
          "type": "address[]"
        }
      ],
      "stateMutability": "view",
      "type": "function"
    },
    {
      "inputs": [
        {
          "internalType": "address",
          "name": "",
          "type": "address"
        },
        {
          "internalType": "uint256",
          "name": "",
          "type": "uint256"
        }
      ],
      "name": "pollsByInstance",
      "outputs": [
        {
          "internalType": "address",
          "name": "",
          "type": "address"
        }
      ],
      "stateMutability": "view",
      "type": "function"
    },
    {
      "inputs": [],
      "name": "tokenDistribution",
      "outputs": [
        {
          "internalType": "contract TokenDistribution",
          "name": "",
          "type": "address"
        }
      ],
      "stateMutability": "view",
      "type": "function"
    }
  ],
  "bytecode": "0x608060405234801561001057600080fd5b5060405161313f38038061313f83398101604081905261002f916100e1565b6001600160a01b0382166100945760405162461bcd60e51b815260206004820152602260248201527f496e76616c696420746f6b656e20646973747269627574696f6e206164647265604482015261737360f01b606482015260840160405180910390fd5b600180546001600160a01b039384166001600160a01b03199182161790915560008054929093169116179055610114565b80516001600160a01b03811681146100dc57600080fd5b919050565b600080604083850312156100f457600080fd5b6100fd836100c5565b915061010b602084016100c5565b90509250929050565b61301c806101236000396000f3fe608060405234801561001057600080fd5b506004361061007d5760003560e01c806397b20e571161005b57806397b20e57146100d6578063b4a0bdf3146100e9578063daf14105146100fc578063f32fa6701461011c57600080fd5b806308a6077c1461008257806311a52746146100b2578063637cd874146100c3575b600080fd5b600154610095906001600160a01b031681565b6040516001600160a01b0390911681526020015b60405180910390f35b6002546040519081526020016100a9565b6100956100d1366004610807565b61012f565b6100956100e43660046108f0565b610159565b600054610095906001600160a01b031681565b61010f61010a366004610a5d565b61074c565b6040516100a99190610a7f565b61009561012a366004610acb565b6107c2565b6002818154811061013f57600080fd5b6000918252602090912001546001600160a01b0316905081565b60008060009054906101000a90046001600160a01b03166001600160a01b031663c8e71e7b6040518163ffffffff1660e01b8152600401602060405180830381865afa1580156101ad573d6000803e3d6000fd5b505050506040513d601f19601f820116820180604052508101906101d19190610af5565b6000546040517f827ebb37000000000000000000000000000000000000000000000000000000008152600481018390523360248201526001600160a01b039091169063827ebb3790604401602060405180830381865afa158015610239573d6000803e3d6000fd5b505050506040513d601f19601f8201168201806040525081019061025d9190610b0e565b6102ae5760405162461bcd60e51b815260206004820152601d60248201527f4163636573732064656e6965643a20496e636f727265637420726f6c6500000060448201526064015b60405180910390fd5b60008951116102ff5760405162461bcd60e51b815260206004820152601660248201527f506f6c6c207469746c652069732072657175697265640000000000000000000060448201526064016102a5565b42871161034e5760405162461bcd60e51b815260206004820152601e60248201527f456e642064617465206d75737420626520696e2074686520667574757265000060448201526064016102a5565b600083116103c45760405162461bcd60e51b815260206004820152602c60248201527f546f74616c20746f6b656e20737570706c79206d75737420626520677265617460448201527f6572207468616e207a65726f000000000000000000000000000000000000000060648201526084016102a5565b600054604080517ff0bd87cc00000000000000000000000000000000000000000000000000000000815290516001600160a01b03909216916391d1485491839163f0bd87cc916004808201926020929091908290030181865afa15801561042f573d6000803e3d6000fd5b505050506040513d601f19601f820116820180604052508101906104539190610af5565b6040517fffffffff0000000000000000000000000000000000000000000000000000000060e084901b1681526004810191909152306024820152604401602060405180830381865afa1580156104ad573d6000803e3d6000fd5b505050506040513d601f19601f820116820180604052508101906104d19190610b0e565b6105435760405162461bcd60e51b815260206004820152602560248201527f506f6c6c466163746f72793a204d697373696e67204449535452494255544f5260448201527f5f524f4c4500000000000000000000000000000000000000000000000000000060648201526084016102a5565b600080546001546040518c928c928c928c928c928c9233926001600160a01b03908116921690610572906107fa565b61058499989796959493929190610b76565b604051809103906000f0801580156105a0573d6000803e3d6000fd5b506001546040517fcb07bc240000000000000000000000000000000000000000000000000000000081526001600160a01b038084166004830152602482018890529293508392600092169063cb07bc24906044016020604051808303816000875af1158015610613573d6000803e3d6000fd5b505050506040513d601f19601f820116820180604052508101906106379190610af5565b90506002829080600181540180825580915050600190039060005260206000200160009091909190916101000a8154816001600160a01b0302191690836001600160a01b0316021790555060036000336001600160a01b03166001600160a01b03168152602001908152602001600020829080600181540180825580915050600190039060005260206000200160009091909190916101000a8154816001600160a01b0302191690836001600160a01b03160217905550336001600160a01b0316826001600160a01b03167fc8e1a5afd2a71bc5379921cb420cbc2932bfbe68eec90bca06922a533b44d1e08e8d8560405161073593929190610c4f565b60405180910390a3509a9950505050505050505050565b6001600160a01b0381166000908152600360209081526040918290208054835181840281018401909452808452606093928301828280156107b657602002820191906000526020600020905b81546001600160a01b03168152600190910190602001808311610798575b50505050509050919050565b600360205281600052604060002081815481106107de57600080fd5b6000918252602090912001546001600160a01b03169150829050565b61237280610c7583390190565b60006020828403121561081957600080fd5b5035919050565b7f4e487b7100000000000000000000000000000000000000000000000000000000600052604160045260246000fd5b604051601f8201601f1916810167ffffffffffffffff8111828210171561087857610878610820565b604052919050565b600082601f83011261089157600080fd5b813567ffffffffffffffff8111156108ab576108ab610820565b6108be601f8201601f191660200161084f565b8181528460208386010111156108d357600080fd5b816020850160208301376000918101602001919091529392505050565b600080600080600080600060e0888a03121561090b57600080fd5b873567ffffffffffffffff81111561092257600080fd5b61092e8a828b01610880565b975050602088013567ffffffffffffffff81111561094b57600080fd5b8801601f81018a1361095c57600080fd5b803567ffffffffffffffff81111561097657610976610820565b8060051b6109866020820161084f565b9182526020818401810192908101908d8411156109a257600080fd5b6020850192505b838310156109e957823567ffffffffffffffff8111156109c857600080fd5b6109d78f602083890101610880565b835250602092830192909101906109a9565b9950505050604089013595505060608801359350608088013567ffffffffffffffff811115610a1757600080fd5b610a238a828b01610880565b979a969950949793969560a0850135955060c0909401359392505050565b80356001600160a01b0381168114610a5857600080fd5b919050565b600060208284031215610a6f57600080fd5b610a7882610a41565b9392505050565b602080825282518282018190526000918401906040840190835b81811015610ac05783516001600160a01b0316835260209384019390920191600101610a99565b509095945050505050565b60008060408385031215610ade57600080fd5b610ae783610a41565b946020939093013593505050565b600060208284031215610b0757600080fd5b5051919050565b600060208284031215610b2057600080fd5b81518015158114610a7857600080fd5b6000815180845260005b81811015610b5657602081850181015186830182015201610b3a565b506000602082860101526020601f19601f83011685010191505092915050565b61012081526000610b8b61012083018c610b30565b8281036020840152808b5180835260208301915060208160051b84010160208e0160005b83811015610be157601f19868403018552610bcb838351610b30565b6020958601959093509190910190600101610baf565b50508c60408701528b60608701528581036080870152610c01818c610b30565b9450505050508560a0830152610c2260c08301866001600160a01b03169052565b6001600160a01b03841660e08301526001600160a01b0383166101008301529a9950505050505050505050565b606081526000610c626060830186610b30565b6020830194909452506040015291905056fe608060405234801561001057600080fd5b5060405161237238038061237283398101604081905261002f9161049f565b4287116100835760405162461bcd60e51b815260206004820152601e60248201527f456e642064617465206d75737420626520696e2074686520667574757265000060448201526064015b60405180910390fd5b600086116100e15760405162461bcd60e51b815260206004820152602560248201527f4d696e696d756d20616765206d7573742062652067726561746572207468616e604482015264207a65726f60d81b606482015260840161007a565b6001600160a01b0383166101375760405162461bcd60e51b815260206004820152601e60248201527f43726561746f7220616464726573732063616e6e6f74206265207a65726f0000604482015260640161007a565b6001600160a01b0382166101a15760405162461bcd60e51b815260206004820152602b60248201527f416363657373436f6e74726f6c4d616e6167657220616464726573732063616e60448201526a6e6f74206265207a65726f60a81b606482015260840161007a565b6001600160a01b0381166102085760405162461bcd60e51b815260206004820152602860248201527f546f6b656e446973747269627574696f6e20616464726573732063616e6e6f74604482015267206265207a65726f60c01b606482015260840161007a565b600080546001600160a01b038085166001600160a01b031992831617909255600180549284169290911691909117905560026102448a82610610565b5060038790556007869055600861025b8682610610565b50600984905560048054610100600160a81b0319166101006001600160a01b0386160217905560005b88518110156102f857600560405180604001604052808b84815181106102ac576102ac6106ce565b602090810291909101810151825260009181018290528354600181018555938252902081519192600202019081906102e49082610610565b506020919091015160019182015501610284565b50506004805460ff19169055506106e49650505050505050565b634e487b7160e01b600052604160045260246000fd5b604051601f8201601f191681016001600160401b038111828210171561035057610350610312565b604052919050565b600082601f83011261036957600080fd5b81516001600160401b0381111561038257610382610312565b610395601f8201601f1916602001610328565b8181528460208386010111156103aa57600080fd5b60005b828110156103c9576020818601810151838301820152016103ad565b506000918101602001919091529392505050565b600082601f8301126103ee57600080fd5b81516001600160401b0381111561040757610407610312565b8060051b61041760208201610328565b9182526020818501810192908101908684111561043357600080fd5b6020860192505b838310156104795782516001600160401b0381111561045857600080fd5b610467886020838a0101610358565b8352506020928301929091019061043a565b9695505050505050565b80516001600160a01b038116811461049a57600080fd5b919050565b60008060008060008060008060006101208a8c0312156104be57600080fd5b89516001600160401b038111156104d457600080fd5b6104e08c828d01610358565b60208c0151909a5090506001600160401b038111156104fe57600080fd5b61050a8c828d016103dd565b60408c015160608d015160808e0151929b50909950975090506001600160401b0381111561053757600080fd5b6105438c828d01610358565b60a08c0151909650945061055b905060c08b01610483565b925061056960e08b01610483565b91506105786101008b01610483565b90509295985092959850929598565b600181811c9082168061059b57607f821691505b6020821081036105bb57634e487b7160e01b600052602260045260246000fd5b50919050565b601f82111561060b57806000526020600020601f840160051c810160208510156105e85750805b601f840160051c820191505b8181101561060857600081556001016105f4565b50505b505050565b81516001600160401b0381111561062957610629610312565b61063d816106378454610587565b846105c1565b6020601f82116001811461067157600083156106595750848201515b600019600385901b1c1916600184901b178455610608565b600084815260208120601f198516915b828110156106a15787850151825560209485019460019092019101610681565b50848210156106bf5786840151600019600387901b60f8161c191681555b50505050600190811b01905550565b634e487b7160e01b600052603260045260246000fd5b611c7f806106f36000396000f3fe608060405234801561001057600080fd5b50600436106101825760003560e01c80639f2524ee116100d8578063c24a0f8b1161008c578063ceeb71d411610066578063ceeb71d414610334578063dff67f6b14610347578063f23a6e611461036857600080fd5b8063c24a0f8b1461031a578063c4614c0714610323578063ca4c20d01461032b57600080fd5b8063b2db3503116100bd578063b2db3503146102d3578063b4a0bdf3146102db578063bc197c81146102ee57600080fd5b80639f2524ee14610295578063b2c2f2e8146102c057600080fd5b80634717f97c1161013a57806355519d871161011457806355519d87146102505780638d4e408314610267578063950c78221461027457600080fd5b80634717f97c1461021e5780634d6b2df214610233578063516f279e1461023b57600080fd5b806308a6077c1161016b57806308a6077c146101df5780631a7316ab146101f25780632c0a3f891461020957600080fd5b806301ffc9a71461018757806302d05d3f146101af575b600080fd5b61019a6101953660046115f1565b61037b565b60405190151581526020015b60405180910390f35b6004546101c79061010090046001600160a01b031681565b6040516001600160a01b0390911681526020016101a6565b6001546101c7906001600160a01b031681565b6101fa6103e4565b6040516101a693929190611668565b61021c610217366004611691565b610489565b005b6102266108bf565b6040516101a691906116ef565b61021c6109bb565b610243610a69565b6040516101a69190611702565b61025960075481565b6040519081526020016101a6565b60045461019a9060ff1681565b610287610282366004611731565b610af7565b6040516101a692919061174c565b6102596102a336600461177a565b600660209081526000928352604080842090915290825290205481565b6102596102ce3660046117a4565b610c8a565b600554610259565b6000546101c7906001600160a01b031681565b6103016102fc36600461184b565b610d0a565b6040516001600160e01b031990911681526020016101a6565b61025960035481565b610243610dc9565b61025960095481565b61021c6103423660046119c7565b610dd6565b61035a6103553660046117a4565b6113b9565b6040516101a6929190611a30565b610301610376366004611a52565b611475565b60006001600160e01b031982167f4e2312e00000000000000000000000000000000000000000000000000000000014806103de57507f01ffc9a7000000000000000000000000000000000000000000000000000000006001600160e01b03198316145b92915050565b60006060600060075460086009548180546103fe90611aca565b80601f016020809104026020016040519081016040528092919081815260200182805461042a90611aca565b80156104775780601f1061044c57610100808354040283529160200191610477565b820191906000526020600020905b81548152906001019060200180831161045a57829003601f168201915b50505050509150925092509250909192565b6003544211156104e05760405162461bcd60e51b815260206004820152600e60248201527f506f6c6c2068617320656e64656400000000000000000000000000000000000060448201526064015b60405180910390fd5b60045460ff16156105335760405162461bcd60e51b815260206004820152601960248201527f506f6c6c20697320616c72656164792066696e616c697a65640000000000000060448201526064016104d7565b60008054906101000a90046001600160a01b03166001600160a01b031663131191616040518163ffffffff1660e01b8152600401602060405180830381865afa158015610584573d6000803e3d6000fd5b505050506040513d601f19601f820116820180604052508101906105a89190611afe565b60005460405163827ebb3760e01b8152600481018390523360248201526001600160a01b039091169063827ebb3790604401602060405180830381865afa1580156105f7573d6000803e3d6000fd5b505050506040513d601f19601f8201168201806040525081019061061b9190611b17565b6106675760405162461bcd60e51b815260206004820152601d60248201527f4163636573732064656e6965643a20496e636f727265637420726f6c6500000060448201526064016104d7565b60055483106106b85760405162461bcd60e51b815260206004820152601560248201527f496e76616c696420766f74696e67206f7074696f6e000000000000000000000060448201526064016104d7565b600154604051627eeac760e11b81523360048201523060248201819052916000916001600160a01b039091169062fdd58e90604401602060405180830381865afa15801561070a573d6000803e3d6000fd5b505050506040513d601f19601f8201168201806040525081019061072e9190611afe565b90508381101561078e5760405162461bcd60e51b815260206004820152602560248201527f496e73756666696369656e74204e465420746f6b656e7320666f722074686973604482015264081c1bdb1b60da1b60648201526084016104d7565b600154604051637921219560e11b8152336004820152306024820152604481018490526064810186905260a06084820152600060a48201526001600160a01b039091169063f242432a9060c401600060405180830381600087803b1580156107f557600080fd5b505af1158015610809573d6000803e3d6000fd5b50505050836005868154811061082157610821611b39565b906000526020600020906002020160010160008282546108419190611b65565b909155505033600090815260066020908152604080832088845290915281208054869290610870908490611b65565b9091555050604080518681526020810186905233917fb4cfecf70861b7b150d8337780d34fb4cbc2114b5fb1fe51a5c5fca1849f7274910160405180910390a26108b86114e8565b5050505050565b60045460609060ff166109145760405162461bcd60e51b815260206004820152601f60248201527f506f6c6c20686173206e6f74206265656e2066696e616c697a6564207965740060448201526064016104d7565b60055460009067ffffffffffffffff81111561093257610932611912565b60405190808252806020026020018201604052801561095b578160200160208202803683370190505b50905060005b6005548110156109b5576005818154811061097e5761097e611b39565b9060005260206000209060020201600101548282815181106109a2576109a2611b39565b6020908102919091010152600101610961565b50919050565b6003544211610a0c5760405162461bcd60e51b815260206004820152601460248201527f506f6c6c206973207374696c6c2061637469766500000000000000000000000060448201526064016104d7565b60045460ff1615610a5f5760405162461bcd60e51b815260206004820152601960248201527f506f6c6c20697320616c72656164792066696e616c697a65640000000000000060448201526064016104d7565b610a67611505565b565b60088054610a7690611aca565b80601f0160208091040260200160405190810160405280929190818152602001828054610aa290611aca565b8015610aef5780601f10610ac457610100808354040283529160200191610aef565b820191906000526020600020905b815481529060010190602001808311610ad257829003601f168201915b505050505081565b60055460609081906000805b82811015610b4a576001600160a01b038616600090815260066020908152604080832084845290915290205415610b425781610b3e81611b78565b9250505b600101610b03565b508067ffffffffffffffff811115610b6457610b64611912565b604051908082528060200260200182016040528015610b8d578160200160208202803683370190505b5093508067ffffffffffffffff811115610ba957610ba9611912565b604051908082528060200260200182016040528015610bd2578160200160208202803683370190505b5092506000805b83811015610c81576001600160a01b038716600090815260066020908152604080832084845290915290205415610c795780868381518110610c1d57610c1d611b39565b6020908102919091018101919091526001600160a01b038816600090815260068252604080822084835290925220548551869084908110610c6057610c60611b39565b602090810291909101015281610c7581611b78565b9250505b600101610bd9565b50505050915091565b6005546000908210610cde5760405162461bcd60e51b815260206004820152601460248201527f496e76616c6964206f7074696f6e20696e64657800000000000000000000000060448201526064016104d7565b60058281548110610cf157610cf1611b39565b9060005260206000209060020201600101549050919050565b6000805b86811015610d9a57886001600160a01b03167f81280eb48cd4fdc7e7aa30f01a44da552d3c96a0944ee2cb8ce0e6e4cc1891a1898984818110610d5357610d53611b39565b90506020020135888885818110610d6c57610d6c611b39565b90506020020135604051610d8a929190918252602082015260400190565b60405180910390a2600101610d0e565b507fbc197c81000000000000000000000000000000000000000000000000000000009998505050505050505050565b60028054610a7690611aca565b600354421115610e285760405162461bcd60e51b815260206004820152600e60248201527f506f6c6c2068617320656e64656400000000000000000000000000000000000060448201526064016104d7565b60045460ff1615610e7b5760405162461bcd60e51b815260206004820152601960248201527f506f6c6c20697320616c72656164792066696e616c697a65640000000000000060448201526064016104d7565b60008054906101000a90046001600160a01b03166001600160a01b031663131191616040518163ffffffff1660e01b8152600401602060405180830381865afa158015610ecc573d6000803e3d6000fd5b505050506040513d601f19601f82011682018060405250810190610ef09190611afe565b60005460405163827ebb3760e01b8152600481018390523360248201526001600160a01b039091169063827ebb3790604401602060405180830381865afa158015610f3f573d6000803e3d6000fd5b505050506040513d601f19601f82011682018060405250810190610f639190611b17565b610faf5760405162461bcd60e51b815260206004820152601d60248201527f4163636573732064656e6965643a20496e636f727265637420726f6c6500000060448201526064016104d7565b81518351146110005760405162461bcd60e51b815260206004820152601e60248201527f4d69736d61746368656420696e646578657320616e6420616d6f756e7473000060448201526064016104d7565b600154604051627eeac760e11b81523360048201523060248201819052916000916001600160a01b039091169062fdd58e90604401602060405180830381865afa158015611052573d6000803e3d6000fd5b505050506040513d601f19601f820116820180604052508101906110769190611afe565b90506000805b865181101561118957600554875188908390811061109c5761109c611b39565b6020026020010151106110f15760405162461bcd60e51b815260206004820152601560248201527f496e76616c696420766f74696e67206f7074696f6e000000000000000000000060448201526064016104d7565b600086828151811061110557611105611b39565b60200260200101511161115a5760405162461bcd60e51b815260206004820181905260248201527f416d6f756e74206d7573742062652067726561746572207468616e207a65726f60448201526064016104d7565b85818151811061116c5761116c611b39565b60200260200101518261117f9190611b65565b915060010161107c565b50808210156111e85760405162461bcd60e51b815260206004820152602560248201527f496e73756666696369656e74204e465420746f6b656e7320666f722074686973604482015264081c1bdb1b60da1b60648201526084016104d7565b600154604051637921219560e11b8152336004820152306024820152604481018590526064810183905260a06084820152600060a48201526001600160a01b039091169063f242432a9060c401600060405180830381600087803b15801561124f57600080fd5b505af1158015611263573d6000803e3d6000fd5b5050505060005b86518110156113655785818151811061128557611285611b39565b602002602001015160058883815181106112a1576112a1611b39565b6020026020010151815481106112b9576112b9611b39565b906000526020600020906002020160010160008282546112d99190611b65565b925050819055508581815181106112f2576112f2611b39565b602002602001015160066000336001600160a01b03166001600160a01b03168152602001908152602001600020600089848151811061133357611333611b39565b6020026020010151815260200190815260200160002060008282546113589190611b65565b909155505060010161126a565b50336001600160a01b03167f0976f46bbe903f9096eb0952887bca9cf22e2fce0c19372119b908f10a4e206f87876040516113a192919061174c565b60405180910390a26113b16114e8565b505050505050565b600581815481106113c957600080fd5b90600052602060002090600202016000915090508060000180546113ec90611aca565b80601f016020809104026020016040519081016040528092919081815260200182805461141890611aca565b80156114655780601f1061143a57610100808354040283529160200191611465565b820191906000526020600020905b81548152906001019060200180831161144857829003601f168201915b5050505050908060010154905082565b60408051858152602081018590526000916001600160a01b038816917f81280eb48cd4fdc7e7aa30f01a44da552d3c96a0944ee2cb8ce0e6e4cc1891a1910160405180910390a2507ff23a6e61000000000000000000000000000000000000000000000000000000009695505050505050565b600354421180156114fc575060045460ff16155b15610a6757610a675b6004805460ff1916600117905560055460009067ffffffffffffffff81111561153057611530611912565b604051908082528060200260200182016040528015611559578160200160208202803683370190505b50905060005b6005548110156115b3576005818154811061157c5761157c611b39565b9060005260206000209060020201600101548282815181106115a0576115a0611b39565b602090810291909101015260010161155f565b507f0b5388ca9ed400b20e1fd0b28009e66319e7c4254c44c9b29ce5d970726931b16002826040516115e6929190611b91565b60405180910390a150565b60006020828403121561160357600080fd5b81356001600160e01b03198116811461161b57600080fd5b9392505050565b6000815180845260005b818110156116485760208185018101518683018201520161162c565b506000602082860101526020601f19601f83011685010191505092915050565b8381526060602082015260006116816060830185611622565b9050826040830152949350505050565b600080604083850312156116a457600080fd5b50508035926020909101359150565b600081518084526020840193506020830160005b828110156116e55781518652602095860195909101906001016116c7565b5093949350505050565b60208152600061161b60208301846116b3565b60208152600061161b6020830184611622565b80356001600160a01b038116811461172c57600080fd5b919050565b60006020828403121561174357600080fd5b61161b82611715565b60408152600061175f60408301856116b3565b828103602084015261177181856116b3565b95945050505050565b6000806040838503121561178d57600080fd5b61179683611715565b946020939093013593505050565b6000602082840312156117b657600080fd5b5035919050565b60008083601f8401126117cf57600080fd5b50813567ffffffffffffffff8111156117e757600080fd5b6020830191508360208260051b850101111561180257600080fd5b9250929050565b60008083601f84011261181b57600080fd5b50813567ffffffffffffffff81111561183357600080fd5b60208301915083602082850101111561180257600080fd5b60008060008060008060008060a0898b03121561186757600080fd5b61187089611715565b975061187e60208a01611715565b9650604089013567ffffffffffffffff81111561189a57600080fd5b6118a68b828c016117bd565b909750955050606089013567ffffffffffffffff8111156118c657600080fd5b6118d28b828c016117bd565b909550935050608089013567ffffffffffffffff8111156118f257600080fd5b6118fe8b828c01611809565b999c989b5096995094979396929594505050565b634e487b7160e01b600052604160045260246000fd5b600082601f83011261193957600080fd5b813567ffffffffffffffff81111561195357611953611912565b8060051b604051601f19603f830116810181811067ffffffffffffffff8211171561198057611980611912565b60405291825260208185018101929081018684111561199e57600080fd5b6020860192505b838310156119bd5782358152602092830192016119a5565b5095945050505050565b600080604083850312156119da57600080fd5b823567ffffffffffffffff8111156119f157600080fd5b6119fd85828601611928565b925050602083013567ffffffffffffffff811115611a1a57600080fd5b611a2685828601611928565b9150509250929050565b604081526000611a436040830185611622565b90508260208301529392505050565b60008060008060008060a08789031215611a6b57600080fd5b611a7487611715565b9550611a8260208801611715565b94506040870135935060608701359250608087013567ffffffffffffffff811115611aac57600080fd5b611ab889828a01611809565b979a9699509497509295939492505050565b600181811c90821680611ade57607f821691505b6020821081036109b557634e487b7160e01b600052602260045260246000fd5b600060208284031215611b1057600080fd5b5051919050565b600060208284031215611b2957600080fd5b8151801515811461161b57600080fd5b634e487b7160e01b600052603260045260246000fd5b634e487b7160e01b600052601160045260246000fd5b808201808211156103de576103de611b4f565b600060018201611b8a57611b8a611b4f565b5060010190565b604081526000808454818160011c90506001821680611bb157607f821691505b602082108103611bcf57634e487b7160e01b84526022600452602484fd5b6040860182905260608601818015611bee5760018114611c0457611c32565b60ff198516825283151560051b82019550611c32565b60008a81526020902060005b85811015611c2c57815484820152600190910190602001611c10565b83019650505b5050505050828103602084015261177181856116b356fea2646970667358221220e720025c793abe043424d4b5a332bfd859114e6ddddf3933c1ba81968510c80364736f6c634300081b0033a2646970667358221220cd18b3c815315dc11d402533a9d819483f647985101cac6bc9cc45ef3cb1d1b764736f6c634300081b0033",
  "linkReferences": {},
  "deployedLinkReferences": {}
}