{
  "_format": "hh-sol-artifact-1",
  "contractName": "Subscription",
  "sourceName": "contracts/Subscription.sol",
  "abi": [
    {
      "inputs": [
        {
          "internalType": "address",
          "name": "_tokenDistribution",
          "type": "address"
        },
        {
          "internalType": "address",
          "name": "_userRegistration",
          "type": "address"
        },
        {
          "internalType": "address",
          "name": "_accessControlManager",
          "type": "address"
        }
      ],
      "stateMutability": "nonpayable",
      "type": "constructor"
    },
    {
      "anonymous": false,
      "inputs": [
        {
          "indexed": true,
          "internalType": "address",
          "name": "user",
          "type": "address"
        },
        {
          "indexed": false,
          "internalType": "address",
          "name": "poll",
          "type": "address"
        },
        {
          "indexed": false,
          "internalType": "uint256",
          "name": "tokenAmount",
          "type": "uint256"
        }
      ],
      "name": "UserSubscribed",
      "type": "event"
    },
    {
      "inputs": [],
      "name": "accessControlManager",
      "outputs": [
        {
          "internalType": "contract AccessControlManager",
          "name": "",
          "type": "address"
        }
      ],
      "stateMutability": "view",
      "type": "function"
    },
    {
      "inputs": [
        {
          "internalType": "address",
          "name": "poll",
          "type": "address"
        },
        {
          "internalType": "address",
          "name": "user",
          "type": "address"
        }
      ],
      "name": "checkEligibility",
      "outputs": [
        {
          "internalType": "bool",
          "name": "",
          "type": "bool"
        }
      ],
      "stateMutability": "view",
      "type": "function"
    },
    {
      "inputs": [
        {
          "internalType": "address",
          "name": "poll",
          "type": "address"
        },
        {
          "internalType": "address",
          "name": "user",
          "type": "address"
        }
      ],
      "name": "isUserSubscribedToPoll",
      "outputs": [
        {
          "internalType": "bool",
          "name": "",
          "type": "bool"
        }
      ],
      "stateMutability": "view",
      "type": "function"
    },
    {
      "inputs": [
        {
          "internalType": "address",
          "name": "poll",
          "type": "address"
        },
        {
          "internalType": "address",
          "name": "user",
          "type": "address"
        }
      ],
      "name": "subscribeUser",
      "outputs": [],
      "stateMutability": "nonpayable",
      "type": "function"
    },
    {
      "inputs": [],
      "name": "tokenDistribution",
      "outputs": [
        {
          "internalType": "contract TokenDistribution",
          "name": "",
          "type": "address"
        }
      ],
      "stateMutability": "view",
      "type": "function"
    },
    {
      "inputs": [],
      "name": "userRegistration",
      "outputs": [
        {
          "internalType": "contract UserRegistration",
          "name": "",
          "type": "address"
        }
      ],
      "stateMutability": "view",
      "type": "function"
    }
  ],
  "bytecode": "0x608060405234801561001057600080fd5b50604051610dc8380380610dc883398101604081905261002f91610153565b6001600160a01b0383166100955760405162461bcd60e51b815260206004820152602260248201527f496e76616c696420746f6b656e20646973747269627574696f6e206164647265604482015261737360f01b60648201526084015b60405180910390fd5b6001600160a01b0382166100f55760405162461bcd60e51b815260206004820152602160248201527f496e76616c6964207573657220726567697374726174696f6e206164647265736044820152607360f81b606482015260840161008c565b600180546001600160a01b039485166001600160a01b031991821617909155600280549385169382169390931790925560008054919093169116179055610196565b80516001600160a01b038116811461014e57600080fd5b919050565b60008060006060848603121561016857600080fd5b61017184610137565b925061017f60208501610137565b915061018d60408501610137565b90509250925092565b610c23806101a56000396000f3fe608060405234801561001057600080fd5b50600436106100725760003560e01c8063768e9cff11610050578063768e9cff146100dd5780638d77443e146100f0578063b4a0bdf31461010557600080fd5b806308a6077c1461007757806349d31ea9146100a75780634d21ee7f146100ca575b600080fd5b60015461008a906001600160a01b031681565b6040516001600160a01b0390911681526020015b60405180910390f35b6100ba6100b5366004610985565b610118565b604051901515815260200161009e565b60025461008a906001600160a01b031681565b6100ba6100eb366004610985565b61039b565b6101036100fe366004610985565b610545565b005b60005461008a906001600160a01b031681565b60006001600160a01b0382166101755760405162461bcd60e51b815260206004820152601460248201527f496e76616c69642075736572206164647265737300000000000000000000000060448201526064015b60405180910390fd5b6001600160a01b0383166101cb5760405162461bcd60e51b815260206004820152601460248201527f496e76616c696420706f6c6c2061646472657373000000000000000000000000604482015260640161016c565b6001546040517efdd58e0000000000000000000000000000000000000000000000000000000081526001600160a01b038481166004830152858116602483018190529260009291169062fdd58e90604401602060405180830381865afa158015610239573d6000803e3d6000fd5b505050506040513d601f19601f8201168201806040525081019061025d91906109b8565b111561026d576001915050610395565b60008490506000816001600160a01b031663b2db35036040518163ffffffff1660e01b8152600401602060405180830381865afa1580156102b2573d6000803e3d6000fd5b505050506040513d601f19601f820116820180604052508101906102d691906109b8565b905060005b8181101561038c576040517f9f2524ee0000000000000000000000000000000000000000000000000000000081526001600160a01b0387811660048301526024820183905260009190851690639f2524ee90604401602060405180830381865afa15801561034d573d6000803e3d6000fd5b505050506040513d601f19601f8201168201806040525081019061037191906109b8565b1115610384576001945050505050610395565b6001016102db565b50600093505050505b92915050565b6000808390506000816001600160a01b0316631a7316ab6040518163ffffffff1660e01b8152600401600060405180830381865afa1580156103e1573d6000803e3d6000fd5b505050506040513d6000823e601f3d908101601f191682016040526104099190810190610aaf565b50506002546040517fa87430ba0000000000000000000000000000000000000000000000000000000081526001600160a01b0387811660048301529293506000928392169063a87430ba90602401600060405180830381865afa158015610474573d6000803e3d6000fd5b505050506040513d6000823e601f3d908101601f1916820160405261049c9190810190610b13565b935050925050806104f2576104e56040518060400160405280600a81526020017f6e6f7420616369747665000000000000000000000000000000000000000000008152506108d0565b6000945050505050610395565b82821015610538576104e56040518060400160405280600c81526020017f616765203c206d696e41676500000000000000000000000000000000000000008152506108d0565b5060019695505050505050565b60008054906101000a90046001600160a01b03166001600160a01b031663131191616040518163ffffffff1660e01b8152600401602060405180830381865afa158015610596573d6000803e3d6000fd5b505050506040513d601f19601f820116820180604052508101906105ba91906109b8565b6000546040517f827ebb37000000000000000000000000000000000000000000000000000000008152600481018390523360248201526001600160a01b039091169063827ebb3790604401602060405180830381865afa158015610622573d6000803e3d6000fd5b505050506040513d601f19601f820116820180604052508101906106469190610b98565b6106925760405162461bcd60e51b815260206004820152601d60248201527f4163636573732064656e6965643a20496e636f727265637420726f6c65000000604482015260640161016c565b61069c838361039b565b61070e5760405162461bcd60e51b815260206004820152602b60248201527f5573657220646f6573206e6f74206d65657420656c69676962696c697479207260448201527f6571756972656d656e7473000000000000000000000000000000000000000000606482015260840161016c565b6107188383610118565b1561078b5760405162461bcd60e51b815260206004820152602760248201527f5573657220697320616c7265616479207375627363726962656420746f20746860448201527f697320706f6c6c00000000000000000000000000000000000000000000000000606482015260840161016c565b60008390506000816001600160a01b0316631a7316ab6040518163ffffffff1660e01b8152600401600060405180830381865afa1580156107d0573d6000803e3d6000fd5b505050506040513d6000823e601f3d908101601f191682016040526107f89190810190610aaf565b6001546040517f708625620000000000000000000000000000000000000000000000000000000081526001600160a01b0389811660048301528a81166024830152604482018490529295509116925063708625629150606401600060405180830381600087803b15801561086b57600080fd5b505af115801561087f573d6000803e3d6000fd5b5050604080516001600160a01b03898116825260208201869052881693507f9f00bea2a8b5644308c567d4b3e769ed09ff7cb1403a9c2b0e0b1dde87b4dfc592500160405180910390a25050505050565b610941816040516024016108e49190610bba565b60408051601f198184030181529190526020810180517bffffffffffffffffffffffffffffffffffffffffffffffffffffffff167f41304fac00000000000000000000000000000000000000000000000000000000179052610944565b50565b6109418160006a636f6e736f6c652e6c6f679050600080835160208501845afa505050565b80356001600160a01b038116811461098057600080fd5b919050565b6000806040838503121561099857600080fd5b6109a183610969565b91506109af60208401610969565b90509250929050565b6000602082840312156109ca57600080fd5b5051919050565b7f4e487b7100000000000000000000000000000000000000000000000000000000600052604160045260246000fd5b60005b83811015610a1b578181015183820152602001610a03565b50506000910152565b600082601f830112610a3557600080fd5b815167ffffffffffffffff811115610a4f57610a4f6109d1565b604051601f8201601f19908116603f0116810167ffffffffffffffff81118282101715610a7e57610a7e6109d1565b604052818152838201602001851015610a9657600080fd5b610aa7826020830160208701610a00565b949350505050565b600080600060608486031215610ac457600080fd5b8351602085015190935067ffffffffffffffff811115610ae357600080fd5b610aef86828701610a24565b604095909501519396949550929392505050565b8051801515811461098057600080fd5b60008060008060808587031215610b2957600080fd5b845167ffffffffffffffff811115610b4057600080fd5b610b4c87828801610a24565b602087015160408801519196509450905067ffffffffffffffff811115610b7257600080fd5b610b7e87828801610a24565b925050610b8d60608601610b03565b905092959194509250565b600060208284031215610baa57600080fd5b610bb382610b03565b9392505050565b6020815260008251806020840152610bd9816040850160208701610a00565b601f01601f1916919091016040019291505056fea2646970667358221220ce06d4be65f4a19d2ba4057b53d2934582d158443f42a5721bf8b9b05e9d6bf764736f6c634300081b0033",
  "linkReferences": {},
  "deployedLinkReferences": {}
}