{
  "_format": "hh-sol-artifact-1",
  "contractName": "Subscription",
  "sourceName": "contracts/Subscription.sol",
  "abi": [
    {
      "inputs": [
        {
          "internalType": "address",
          "name": "_tokenDistribution",
          "type": "address"
        },
        {
          "internalType": "address",
          "name": "_accessControlManager",
          "type": "address"
        }
      ],
      "stateMutability": "nonpayable",
      "type": "constructor"
    },
    {
      "anonymous": false,
      "inputs": [
        {
          "indexed": true,
          "internalType": "address",
          "name": "user",
          "type": "address"
        },
        {
          "indexed": false,
          "internalType": "address",
          "name": "poll",
          "type": "address"
        },
        {
          "indexed": false,
          "internalType": "uint256",
          "name": "tokenAmount",
          "type": "uint256"
        }
      ],
      "name": "UserSubscribed",
      "type": "event"
    },
    {
      "inputs": [],
      "name": "accessControlManager",
      "outputs": [
        {
          "internalType": "contract AccessControlManager",
          "name": "",
          "type": "address"
        }
      ],
      "stateMutability": "view",
      "type": "function"
    },
    {
      "inputs": [
        {
          "internalType": "address",
          "name": "poll",
          "type": "address"
        },
        {
          "internalType": "address",
          "name": "user",
          "type": "address"
        },
        {
          "internalType": "uint256",
          "name": "userAge",
          "type": "uint256"
        },
        {
          "internalType": "string",
          "name": "userLocation",
          "type": "string"
        },
        {
          "internalType": "uint256",
          "name": "userTokensAvailable",
          "type": "uint256"
        }
      ],
      "name": "subscribeUser",
      "outputs": [],
      "stateMutability": "nonpayable",
      "type": "function"
    },
    {
      "inputs": [],
      "name": "tokenDistribution",
      "outputs": [
        {
          "internalType": "contract TokenDistribution",
          "name": "",
          "type": "address"
        }
      ],
      "stateMutability": "view",
      "type": "function"
    }
  ],
  "bytecode": "0x608060405234801561001057600080fd5b5060405161086038038061086083398101604081905261002f916100e1565b6001600160a01b0382166100945760405162461bcd60e51b815260206004820152602260248201527f496e76616c696420746f6b656e20646973747269627574696f6e206164647265604482015261737360f01b606482015260840160405180910390fd5b600180546001600160a01b039384166001600160a01b03199182161790915560008054929093169116179055610114565b80516001600160a01b03811681146100dc57600080fd5b919050565b600080604083850312156100f457600080fd5b6100fd836100c5565b915061010b602084016100c5565b90509250929050565b61073d806101236000396000f3fe608060405234801561001057600080fd5b50600436106100415760003560e01c806308a6077c146100465780631ed7ebe814610075578063b4a0bdf31461008a575b600080fd5b600154610059906001600160a01b031681565b6040516001600160a01b03909116815260200160405180910390f35b610088610083366004610544565b61009d565b005b600054610059906001600160a01b031681565b60008054906101000a90046001600160a01b03166001600160a01b031663131191616040518163ffffffff1660e01b8152600401602060405180830381865afa1580156100ee573d6000803e3d6000fd5b505050506040513d601f19601f8201168201806040525081019061011291906105f7565b6000546040517f827ebb37000000000000000000000000000000000000000000000000000000008152600481018390523360248201526001600160a01b039091169063827ebb3790604401602060405180830381865afa15801561017a573d6000803e3d6000fd5b505050506040513d601f19601f8201168201806040525081019061019e9190610610565b6101ef5760405162461bcd60e51b815260206004820152601d60248201527f4163636573732064656e6965643a20496e636f727265637420726f6c6500000060448201526064015b60405180910390fd5b60008690506000806000836001600160a01b0316631a7316ab6040518163ffffffff1660e01b8152600401600060405180830381865afa158015610237573d6000803e3d6000fd5b505050506040513d6000823e601f3d908101601f1916820160405261025f919081019061065d565b925092509250828810156102db5760405162461bcd60e51b815260206004820152602260248201527f5573657220646f6573206e6f74206d6565742061676520726571756972656d6560448201527f6e7400000000000000000000000000000000000000000000000000000000000060648201526084016101e6565b816040516020016102ec91906106eb565b604051602081830303815290604052805190602001208760405160200161031391906106eb565b60405160208183030381529060405280519060200120146103765760405162461bcd60e51b815260206004820152601c60248201527f55736572206c6f636174696f6e20646f6573206e6f74206d617463680000000060448201526064016101e6565b808610156103c65760405162461bcd60e51b815260206004820181905260248201527f4e6f7420656e6f75676820746f6b656e7320746f20706172746963697061746560448201526064016101e6565b6001546040517f708625620000000000000000000000000000000000000000000000000000000081526001600160a01b038b811660048301528c811660248301526044820184905283921690637086256290606401600060405180830381600087803b15801561043557600080fd5b505af1158015610449573d6000803e3d6000fd5b5050604080516001600160a01b038f81168252602082018690528e1693507f9f00bea2a8b5644308c567d4b3e769ed09ff7cb1403a9c2b0e0b1dde87b4dfc592500160405180910390a25050505050505050505050565b80356001600160a01b03811681146104b757600080fd5b919050565b7f4e487b7100000000000000000000000000000000000000000000000000000000600052604160045260246000fd5b604051601f8201601f1916810167ffffffffffffffff81118282101715610514576105146104bc565b604052919050565b600067ffffffffffffffff821115610536576105366104bc565b50601f01601f191660200190565b600080600080600060a0868803121561055c57600080fd5b610565866104a0565b9450610573602087016104a0565b935060408601359250606086013567ffffffffffffffff81111561059657600080fd5b8601601f810188136105a757600080fd5b80356105ba6105b58261051c565b6104eb565b8181528960208385010111156105cf57600080fd5b8160208401602083013760009181016020019190915295989497509295608001359392505050565b60006020828403121561060957600080fd5b5051919050565b60006020828403121561062257600080fd5b8151801515811461063257600080fd5b9392505050565b60005b8381101561065457818101518382015260200161063c565b50506000910152565b60008060006060848603121561067257600080fd5b8351602085015190935067ffffffffffffffff81111561069157600080fd5b8401601f810186136106a257600080fd5b80516106b06105b58261051c565b8181528760208385010111156106c557600080fd5b6106d6826020830160208601610639565b60409690960151949795965093949350505050565b600082516106fd818460208701610639565b919091019291505056fea2646970667358221220f5978dc04b160bcfcdfe1959275dc110fec340580f6cf4fcaef23051ed508ce964736f6c634300081b0033",
  "linkReferences": {},
  "deployedLinkReferences": {}
}