{
  "_format": "hh-sol-artifact-1",
  "contractName": "Subscription",
  "sourceName": "contracts/Subscription.sol",
  "abi": [
    {
      "inputs": [
        {
          "internalType": "address",
          "name": "_tokenDistribution",
          "type": "address"
        },
        {
          "internalType": "address",
          "name": "_userRegistration",
          "type": "address"
        },
        {
          "internalType": "address",
          "name": "_accessControlManager",
          "type": "address"
        }
      ],
      "stateMutability": "nonpayable",
      "type": "constructor"
    },
    {
      "anonymous": false,
      "inputs": [
        {
          "indexed": true,
          "internalType": "address",
          "name": "user",
          "type": "address"
        },
        {
          "indexed": false,
          "internalType": "address",
          "name": "poll",
          "type": "address"
        },
        {
          "indexed": false,
          "internalType": "uint256",
          "name": "tokenAmount",
          "type": "uint256"
        }
      ],
      "name": "UserSubscribed",
      "type": "event"
    },
    {
      "inputs": [],
      "name": "accessControlManager",
      "outputs": [
        {
          "internalType": "contract AccessControlManager",
          "name": "",
          "type": "address"
        }
      ],
      "stateMutability": "view",
      "type": "function"
    },
    {
      "inputs": [
        {
          "internalType": "address",
          "name": "poll",
          "type": "address"
        },
        {
          "internalType": "address",
          "name": "user",
          "type": "address"
        }
      ],
      "name": "checkEligibility",
      "outputs": [
        {
          "internalType": "bool",
          "name": "",
          "type": "bool"
        }
      ],
      "stateMutability": "view",
      "type": "function"
    },
    {
      "inputs": [
        {
          "internalType": "address",
          "name": "poll",
          "type": "address"
        },
        {
          "internalType": "address",
          "name": "user",
          "type": "address"
        }
      ],
      "name": "subscribeUser",
      "outputs": [],
      "stateMutability": "nonpayable",
      "type": "function"
    },
    {
      "inputs": [],
      "name": "tokenDistribution",
      "outputs": [
        {
          "internalType": "contract TokenDistribution",
          "name": "",
          "type": "address"
        }
      ],
      "stateMutability": "view",
      "type": "function"
    },
    {
      "inputs": [],
      "name": "userRegistration",
      "outputs": [
        {
          "internalType": "contract UserRegistration",
          "name": "",
          "type": "address"
        }
      ],
      "stateMutability": "view",
      "type": "function"
    }
  ],
  "bytecode": "0x608060405234801561001057600080fd5b50604051610ab1380380610ab183398101604081905261002f91610153565b6001600160a01b0383166100955760405162461bcd60e51b815260206004820152602260248201527f496e76616c696420746f6b656e20646973747269627574696f6e206164647265604482015261737360f01b60648201526084015b60405180910390fd5b6001600160a01b0382166100f55760405162461bcd60e51b815260206004820152602160248201527f496e76616c6964207573657220726567697374726174696f6e206164647265736044820152607360f81b606482015260840161008c565b600180546001600160a01b039485166001600160a01b031991821617909155600280549385169382169390931790925560008054919093169116179055610196565b80516001600160a01b038116811461014e57600080fd5b919050565b60008060006060848603121561016857600080fd5b61017184610137565b925061017f60208501610137565b915061018d60408501610137565b90509250925092565b61090c806101a56000396000f3fe608060405234801561001057600080fd5b50600436106100675760003560e01c8063768e9cff11610050578063768e9cff146100af5780638d77443e146100d2578063b4a0bdf3146100e757600080fd5b806308a6077c1461006c5780634d21ee7f1461009c575b600080fd5b60015461007f906001600160a01b031681565b6040516001600160a01b0390911681526020015b60405180910390f35b60025461007f906001600160a01b031681565b6100c26100bd36600461066e565b6100fa565b6040519015158152602001610093565b6100e56100e036600461066e565b6102a6565b005b60005461007f906001600160a01b031681565b6000808390506000816001600160a01b0316631a7316ab6040518163ffffffff1660e01b8152600401600060405180830381865afa158015610140573d6000803e3d6000fd5b505050506040513d6000823e601f3d908101601f19168201604052610168919081019061077f565b50506002546040517fa87430ba0000000000000000000000000000000000000000000000000000000081526001600160a01b0387811660048301529293506000928392169063a87430ba90602401600060405180830381865afa1580156101d3573d6000803e3d6000fd5b505050506040513d6000823e601f3d908101601f191682016040526101fb91908101906107e3565b93505092505080610251576102446040518060400160405280600a81526020017f6e6f7420616369747665000000000000000000000000000000000000000000008152506105b9565b60009450505050506102a0565b82821015610297576102446040518060400160405280600c81526020017f616765203c206d696e41676500000000000000000000000000000000000000008152506105b9565b60019450505050505b92915050565b60008054906101000a90046001600160a01b03166001600160a01b031663131191616040518163ffffffff1660e01b8152600401602060405180830381865afa1580156102f7573d6000803e3d6000fd5b505050506040513d601f19601f8201168201806040525081019061031b9190610868565b6000546040517f827ebb37000000000000000000000000000000000000000000000000000000008152600481018390523360248201526001600160a01b039091169063827ebb3790604401602060405180830381865afa158015610383573d6000803e3d6000fd5b505050506040513d601f19601f820116820180604052508101906103a79190610881565b6103f85760405162461bcd60e51b815260206004820152601d60248201527f4163636573732064656e6965643a20496e636f727265637420726f6c6500000060448201526064015b60405180910390fd5b61040283836100fa565b6104745760405162461bcd60e51b815260206004820152602b60248201527f5573657220646f6573206e6f74206d65657420656c69676962696c697479207260448201527f6571756972656d656e747300000000000000000000000000000000000000000060648201526084016103ef565b60008390506000816001600160a01b0316631a7316ab6040518163ffffffff1660e01b8152600401600060405180830381865afa1580156104b9573d6000803e3d6000fd5b505050506040513d6000823e601f3d908101601f191682016040526104e1919081019061077f565b6001546040517f708625620000000000000000000000000000000000000000000000000000000081526001600160a01b0389811660048301528a81166024830152604482018490529295509116925063708625629150606401600060405180830381600087803b15801561055457600080fd5b505af1158015610568573d6000803e3d6000fd5b5050604080516001600160a01b03898116825260208201869052881693507f9f00bea2a8b5644308c567d4b3e769ed09ff7cb1403a9c2b0e0b1dde87b4dfc592500160405180910390a25050505050565b61062a816040516024016105cd91906108a3565b60408051601f198184030181529190526020810180517bffffffffffffffffffffffffffffffffffffffffffffffffffffffff167f41304fac0000000000000000000000000000000000000000000000000000000017905261062d565b50565b61062a8160006a636f6e736f6c652e6c6f679050600080835160208501845afa505050565b80356001600160a01b038116811461066957600080fd5b919050565b6000806040838503121561068157600080fd5b61068a83610652565b915061069860208401610652565b90509250929050565b7f4e487b7100000000000000000000000000000000000000000000000000000000600052604160045260246000fd5b60005b838110156106eb5781810151838201526020016106d3565b50506000910152565b600082601f83011261070557600080fd5b815167ffffffffffffffff81111561071f5761071f6106a1565b604051601f8201601f19908116603f0116810167ffffffffffffffff8111828210171561074e5761074e6106a1565b60405281815283820160200185101561076657600080fd5b6107778260208301602087016106d0565b949350505050565b60008060006060848603121561079457600080fd5b8351602085015190935067ffffffffffffffff8111156107b357600080fd5b6107bf868287016106f4565b604095909501519396949550929392505050565b8051801515811461066957600080fd5b600080600080608085870312156107f957600080fd5b845167ffffffffffffffff81111561081057600080fd5b61081c878288016106f4565b602087015160408801519196509450905067ffffffffffffffff81111561084257600080fd5b61084e878288016106f4565b92505061085d606086016107d3565b905092959194509250565b60006020828403121561087a57600080fd5b5051919050565b60006020828403121561089357600080fd5b61089c826107d3565b9392505050565b60208152600082518060208401526108c28160408501602087016106d0565b601f01601f1916919091016040019291505056fea26469706673582212200d79e080cbb9fa3ee89ede585b6cd2396216912845bd4e6fac0ddb5834e4a2c664736f6c634300081b0033",
  "linkReferences": {},
  "deployedLinkReferences": {}
}