{
  "_format": "hh-sol-artifact-1",
  "contractName": "Subscription",
  "sourceName": "contracts/Subscription.sol",
  "abi": [
    {
      "inputs": [
        {
          "internalType": "address",
          "name": "_tokenDistribution",
          "type": "address"
        },
        {
          "internalType": "address",
          "name": "_userRegistration",
          "type": "address"
        },
        {
          "internalType": "address",
          "name": "_accessControlManager",
          "type": "address"
        }
      ],
      "stateMutability": "nonpayable",
      "type": "constructor"
    },
    {
      "anonymous": false,
      "inputs": [
        {
          "indexed": true,
          "internalType": "address",
          "name": "user",
          "type": "address"
        },
        {
          "indexed": false,
          "internalType": "address",
          "name": "poll",
          "type": "address"
        },
        {
          "indexed": false,
          "internalType": "uint256",
          "name": "tokenAmount",
          "type": "uint256"
        }
      ],
      "name": "UserSubscribed",
      "type": "event"
    },
    {
      "inputs": [],
      "name": "accessControlManager",
      "outputs": [
        {
          "internalType": "contract AccessControlManager",
          "name": "",
          "type": "address"
        }
      ],
      "stateMutability": "view",
      "type": "function"
    },
    {
      "inputs": [
        {
          "internalType": "address",
          "name": "poll",
          "type": "address"
        },
        {
          "internalType": "address",
          "name": "user",
          "type": "address"
        }
      ],
      "name": "checkEligibility",
      "outputs": [
        {
          "internalType": "bool",
          "name": "",
          "type": "bool"
        }
      ],
      "stateMutability": "view",
      "type": "function"
    },
    {
      "inputs": [
        {
          "internalType": "address",
          "name": "poll",
          "type": "address"
        },
        {
          "internalType": "address",
          "name": "user",
          "type": "address"
        }
      ],
      "name": "isUserSubscribedToPoll",
      "outputs": [
        {
          "internalType": "bool",
          "name": "",
          "type": "bool"
        }
      ],
      "stateMutability": "view",
      "type": "function"
    },
    {
      "inputs": [
        {
          "internalType": "address",
          "name": "poll",
          "type": "address"
        },
        {
          "internalType": "address",
          "name": "user",
          "type": "address"
        }
      ],
      "name": "subscribeUser",
      "outputs": [],
      "stateMutability": "nonpayable",
      "type": "function"
    },
    {
      "inputs": [],
      "name": "tokenDistribution",
      "outputs": [
        {
          "internalType": "contract TokenDistribution",
          "name": "",
          "type": "address"
        }
      ],
      "stateMutability": "view",
      "type": "function"
    },
    {
      "inputs": [],
      "name": "userRegistration",
      "outputs": [
        {
          "internalType": "contract UserRegistration",
          "name": "",
          "type": "address"
        }
      ],
      "stateMutability": "view",
      "type": "function"
    }
  ],
  "bytecode": "0x608060405234801561001057600080fd5b50604051610cf4380380610cf483398101604081905261002f91610153565b6001600160a01b0383166100955760405162461bcd60e51b815260206004820152602260248201527f496e76616c696420746f6b656e20646973747269627574696f6e206164647265604482015261737360f01b60648201526084015b60405180910390fd5b6001600160a01b0382166100f55760405162461bcd60e51b815260206004820152602160248201527f496e76616c6964207573657220726567697374726174696f6e206164647265736044820152607360f81b606482015260840161008c565b600180546001600160a01b039485166001600160a01b031991821617909155600280549385169382169390931790925560008054919093169116179055610196565b80516001600160a01b038116811461014e57600080fd5b919050565b60008060006060848603121561016857600080fd5b61017184610137565b925061017f60208501610137565b915061018d60408501610137565b90509250925092565b610b4f806101a56000396000f3fe608060405234801561001057600080fd5b50600436106100725760003560e01c8063768e9cff11610050578063768e9cff146100dd5780638d77443e146100f0578063b4a0bdf31461010557600080fd5b806308a6077c1461007757806349d31ea9146100a75780634d21ee7f146100ca575b600080fd5b60015461008a906001600160a01b031681565b6040516001600160a01b0390911681526020015b60405180910390f35b6100ba6100b53660046108ee565b610118565b604051901515815260200161009e565b60025461008a906001600160a01b031681565b6100ba6100eb3660046108ee565b61039b565b6101036100fe3660046108ee565b610547565b005b60005461008a906001600160a01b031681565b60006001600160a01b0382166101755760405162461bcd60e51b815260206004820152601460248201527f496e76616c69642075736572206164647265737300000000000000000000000060448201526064015b60405180910390fd5b6001600160a01b0383166101cb5760405162461bcd60e51b815260206004820152601460248201527f496e76616c696420706f6c6c2061646472657373000000000000000000000000604482015260640161016c565b6001546040517efdd58e0000000000000000000000000000000000000000000000000000000081526001600160a01b038481166004830152858116602483018190529260009291169062fdd58e90604401602060405180830381865afa158015610239573d6000803e3d6000fd5b505050506040513d601f19601f8201168201806040525081019061025d9190610921565b111561026d576001915050610395565b60008490506000816001600160a01b031663b2db35036040518163ffffffff1660e01b8152600401602060405180830381865afa1580156102b2573d6000803e3d6000fd5b505050506040513d601f19601f820116820180604052508101906102d69190610921565b905060005b8181101561038c576040517f9f2524ee0000000000000000000000000000000000000000000000000000000081526001600160a01b0387811660048301526024820183905260009190851690639f2524ee90604401602060405180830381865afa15801561034d573d6000803e3d6000fd5b505050506040513d601f19601f820116820180604052508101906103719190610921565b1115610384576001945050505050610395565b6001016102db565b50600093505050505b92915050565b600080839050806001600160a01b0316638d4e40836040518163ffffffff1660e01b8152600401602060405180830381865afa1580156103df573d6000803e3d6000fd5b505050506040513d601f19601f82011682018060405250810190610403919061094a565b15610412576000915050610395565b6000816001600160a01b0316631a7316ab6040518163ffffffff1660e01b8152600401600060405180830381865afa158015610452573d6000803e3d6000fd5b505050506040513d6000823e601f3d908101601f1916820160405261047a9190810190610a40565b50506002546040517fa87430ba0000000000000000000000000000000000000000000000000000000081526001600160a01b0387811660048301529293506000928392169063a87430ba90602401600060405180830381865afa1580156104e5573d6000803e3d6000fd5b505050506040513d6000823e601f3d908101601f1916820160405261050d9190810190610a94565b93505092505080610525576000945050505050610395565b8282101561053a576000945050505050610395565b5060019695505050505050565b60008054906101000a90046001600160a01b03166001600160a01b031663131191616040518163ffffffff1660e01b8152600401602060405180830381865afa158015610598573d6000803e3d6000fd5b505050506040513d601f19601f820116820180604052508101906105bc9190610921565b6000546040517f827ebb37000000000000000000000000000000000000000000000000000000008152600481018390523360248201526001600160a01b039091169063827ebb3790604401602060405180830381865afa158015610624573d6000803e3d6000fd5b505050506040513d601f19601f82011682018060405250810190610648919061094a565b6106945760405162461bcd60e51b815260206004820152601d60248201527f4163636573732064656e6965643a20496e636f727265637420726f6c65000000604482015260640161016c565b61069e838361039b565b6107105760405162461bcd60e51b815260206004820152602b60248201527f5573657220646f6573206e6f74206d65657420656c69676962696c697479207260448201527f6571756972656d656e7473000000000000000000000000000000000000000000606482015260840161016c565b61071a8383610118565b1561078d5760405162461bcd60e51b815260206004820152602760248201527f5573657220697320616c7265616479207375627363726962656420746f20746860448201527f697320706f6c6c00000000000000000000000000000000000000000000000000606482015260840161016c565b60008390506000816001600160a01b0316631a7316ab6040518163ffffffff1660e01b8152600401600060405180830381865afa1580156107d2573d6000803e3d6000fd5b505050506040513d6000823e601f3d908101601f191682016040526107fa9190810190610a40565b6001546040517f708625620000000000000000000000000000000000000000000000000000000081526001600160a01b0389811660048301528a81166024830152604482018490529295509116925063708625629150606401600060405180830381600087803b15801561086d57600080fd5b505af1158015610881573d6000803e3d6000fd5b5050604080516001600160a01b03898116825260208201869052881693507f9f00bea2a8b5644308c567d4b3e769ed09ff7cb1403a9c2b0e0b1dde87b4dfc592500160405180910390a25050505050565b80356001600160a01b03811681146108e957600080fd5b919050565b6000806040838503121561090157600080fd5b61090a836108d2565b9150610918602084016108d2565b90509250929050565b60006020828403121561093357600080fd5b5051919050565b805180151581146108e957600080fd5b60006020828403121561095c57600080fd5b6109658261093a565b9392505050565b7f4e487b7100000000000000000000000000000000000000000000000000000000600052604160045260246000fd5b600082601f8301126109ac57600080fd5b815167ffffffffffffffff8111156109c6576109c661096c565b604051601f8201601f19908116603f0116810167ffffffffffffffff811182821017156109f5576109f561096c565b604052818152838201602001851015610a0d57600080fd5b60005b82811015610a2c57602081860181015183830182015201610a10565b506000918101602001919091529392505050565b600080600060608486031215610a5557600080fd5b8351602085015190935067ffffffffffffffff811115610a7457600080fd5b610a808682870161099b565b604095909501519396949550929392505050565b60008060008060808587031215610aaa57600080fd5b845167ffffffffffffffff811115610ac157600080fd5b610acd8782880161099b565b602087015160408801519196509450905067ffffffffffffffff811115610af357600080fd5b610aff8782880161099b565b925050610b0e6060860161093a565b90509295919450925056fea26469706673582212207d2258166f1c11bf8d097919d016328a436d942b2b24ca2478302793769e431b64736f6c634300081b0033",
  "linkReferences": {},
  "deployedLinkReferences": {}
}