{
  "_format": "hh-sol-artifact-1",
  "contractName": "TokenDistribution",
  "sourceName": "contracts/TokenDistribution.sol",
  "abi": [
    {
      "inputs": [
        {
          "internalType": "address",
          "name": "_accessControlManager",
          "type": "address"
        }
      ],
      "stateMutability": "nonpayable",
      "type": "constructor"
    },
    {
      "inputs": [],
      "name": "ECDSAInvalidSignature",
      "type": "error"
    },
    {
      "inputs": [
        {
          "internalType": "uint256",
          "name": "length",
          "type": "uint256"
        }
      ],
      "name": "ECDSAInvalidSignatureLength",
      "type": "error"
    },
    {
      "inputs": [
        {
          "internalType": "bytes32",
          "name": "s",
          "type": "bytes32"
        }
      ],
      "name": "ECDSAInvalidSignatureS",
      "type": "error"
    },
    {
      "inputs": [
        {
          "internalType": "address",
          "name": "spender",
          "type": "address"
        },
        {
          "internalType": "uint256",
          "name": "allowance",
          "type": "uint256"
        },
        {
          "internalType": "uint256",
          "name": "needed",
          "type": "uint256"
        }
      ],
      "name": "ERC20InsufficientAllowance",
      "type": "error"
    },
    {
      "inputs": [
        {
          "internalType": "address",
          "name": "sender",
          "type": "address"
        },
        {
          "internalType": "uint256",
          "name": "balance",
          "type": "uint256"
        },
        {
          "internalType": "uint256",
          "name": "needed",
          "type": "uint256"
        }
      ],
      "name": "ERC20InsufficientBalance",
      "type": "error"
    },
    {
      "inputs": [
        {
          "internalType": "address",
          "name": "approver",
          "type": "address"
        }
      ],
      "name": "ERC20InvalidApprover",
      "type": "error"
    },
    {
      "inputs": [
        {
          "internalType": "address",
          "name": "receiver",
          "type": "address"
        }
      ],
      "name": "ERC20InvalidReceiver",
      "type": "error"
    },
    {
      "inputs": [
        {
          "internalType": "address",
          "name": "sender",
          "type": "address"
        }
      ],
      "name": "ERC20InvalidSender",
      "type": "error"
    },
    {
      "inputs": [
        {
          "internalType": "address",
          "name": "spender",
          "type": "address"
        }
      ],
      "name": "ERC20InvalidSpender",
      "type": "error"
    },
    {
      "inputs": [
        {
          "internalType": "uint256",
          "name": "deadline",
          "type": "uint256"
        }
      ],
      "name": "ERC2612ExpiredSignature",
      "type": "error"
    },
    {
      "inputs": [
        {
          "internalType": "address",
          "name": "signer",
          "type": "address"
        },
        {
          "internalType": "address",
          "name": "owner",
          "type": "address"
        }
      ],
      "name": "ERC2612InvalidSigner",
      "type": "error"
    },
    {
      "inputs": [
        {
          "internalType": "address",
          "name": "account",
          "type": "address"
        },
        {
          "internalType": "uint256",
          "name": "currentNonce",
          "type": "uint256"
        }
      ],
      "name": "InvalidAccountNonce",
      "type": "error"
    },
    {
      "inputs": [],
      "name": "InvalidShortString",
      "type": "error"
    },
    {
      "inputs": [
        {
          "internalType": "string",
          "name": "str",
          "type": "string"
        }
      ],
      "name": "StringTooLong",
      "type": "error"
    },
    {
      "anonymous": false,
      "inputs": [
        {
          "indexed": true,
          "internalType": "address",
          "name": "owner",
          "type": "address"
        },
        {
          "indexed": true,
          "internalType": "address",
          "name": "spender",
          "type": "address"
        },
        {
          "indexed": false,
          "internalType": "uint256",
          "name": "value",
          "type": "uint256"
        }
      ],
      "name": "Approval",
      "type": "event"
    },
    {
      "anonymous": false,
      "inputs": [],
      "name": "EIP712DomainChanged",
      "type": "event"
    },
    {
      "anonymous": false,
      "inputs": [
        {
          "indexed": true,
          "internalType": "address",
          "name": "poll",
          "type": "address"
        },
        {
          "indexed": false,
          "internalType": "uint256",
          "name": "amount",
          "type": "uint256"
        }
      ],
      "name": "TokensBurned",
      "type": "event"
    },
    {
      "anonymous": false,
      "inputs": [
        {
          "indexed": true,
          "internalType": "address",
          "name": "poll",
          "type": "address"
        },
        {
          "indexed": true,
          "internalType": "address",
          "name": "user",
          "type": "address"
        },
        {
          "indexed": false,
          "internalType": "uint256",
          "name": "amount",
          "type": "uint256"
        }
      ],
      "name": "TokensDistributed",
      "type": "event"
    },
    {
      "anonymous": false,
      "inputs": [
        {
          "indexed": true,
          "internalType": "address",
          "name": "poll",
          "type": "address"
        },
        {
          "indexed": false,
          "internalType": "uint256",
          "name": "amount",
          "type": "uint256"
        }
      ],
      "name": "TokensMinted",
      "type": "event"
    },
    {
      "anonymous": false,
      "inputs": [
        {
          "indexed": true,
          "internalType": "address",
          "name": "from",
          "type": "address"
        },
        {
          "indexed": true,
          "internalType": "address",
          "name": "to",
          "type": "address"
        },
        {
          "indexed": false,
          "internalType": "uint256",
          "name": "value",
          "type": "uint256"
        }
      ],
      "name": "Transfer",
      "type": "event"
    },
    {
      "inputs": [],
      "name": "DOMAIN_SEPARATOR",
      "outputs": [
        {
          "internalType": "bytes32",
          "name": "",
          "type": "bytes32"
        }
      ],
      "stateMutability": "view",
      "type": "function"
    },
    {
      "inputs": [],
      "name": "accessControlManager",
      "outputs": [
        {
          "internalType": "contract AccessControlManager",
          "name": "",
          "type": "address"
        }
      ],
      "stateMutability": "view",
      "type": "function"
    },
    {
      "inputs": [
        {
          "internalType": "address",
          "name": "owner",
          "type": "address"
        },
        {
          "internalType": "address",
          "name": "spender",
          "type": "address"
        }
      ],
      "name": "allowance",
      "outputs": [
        {
          "internalType": "uint256",
          "name": "",
          "type": "uint256"
        }
      ],
      "stateMutability": "view",
      "type": "function"
    },
    {
      "inputs": [
        {
          "internalType": "address",
          "name": "spender",
          "type": "address"
        },
        {
          "internalType": "uint256",
          "name": "value",
          "type": "uint256"
        }
      ],
      "name": "approve",
      "outputs": [
        {
          "internalType": "bool",
          "name": "",
          "type": "bool"
        }
      ],
      "stateMutability": "nonpayable",
      "type": "function"
    },
    {
      "inputs": [
        {
          "internalType": "address",
          "name": "account",
          "type": "address"
        }
      ],
      "name": "balanceOf",
      "outputs": [
        {
          "internalType": "uint256",
          "name": "",
          "type": "uint256"
        }
      ],
      "stateMutability": "view",
      "type": "function"
    },
    {
      "inputs": [
        {
          "internalType": "uint256",
          "name": "value",
          "type": "uint256"
        }
      ],
      "name": "burn",
      "outputs": [],
      "stateMutability": "nonpayable",
      "type": "function"
    },
    {
      "inputs": [
        {
          "internalType": "address",
          "name": "account",
          "type": "address"
        },
        {
          "internalType": "uint256",
          "name": "value",
          "type": "uint256"
        }
      ],
      "name": "burnFrom",
      "outputs": [],
      "stateMutability": "nonpayable",
      "type": "function"
    },
    {
      "inputs": [
        {
          "internalType": "address",
          "name": "poll",
          "type": "address"
        }
      ],
      "name": "burnRemainingTokens",
      "outputs": [],
      "stateMutability": "nonpayable",
      "type": "function"
    },
    {
      "inputs": [],
      "name": "decimals",
      "outputs": [
        {
          "internalType": "uint8",
          "name": "",
          "type": "uint8"
        }
      ],
      "stateMutability": "view",
      "type": "function"
    },
    {
      "inputs": [
        {
          "internalType": "address",
          "name": "user",
          "type": "address"
        },
        {
          "internalType": "address",
          "name": "poll",
          "type": "address"
        },
        {
          "internalType": "uint256",
          "name": "amount",
          "type": "uint256"
        }
      ],
      "name": "distributeTokens",
      "outputs": [],
      "stateMutability": "nonpayable",
      "type": "function"
    },
    {
      "inputs": [],
      "name": "eip712Domain",
      "outputs": [
        {
          "internalType": "bytes1",
          "name": "fields",
          "type": "bytes1"
        },
        {
          "internalType": "string",
          "name": "name",
          "type": "string"
        },
        {
          "internalType": "string",
          "name": "version",
          "type": "string"
        },
        {
          "internalType": "uint256",
          "name": "chainId",
          "type": "uint256"
        },
        {
          "internalType": "address",
          "name": "verifyingContract",
          "type": "address"
        },
        {
          "internalType": "bytes32",
          "name": "salt",
          "type": "bytes32"
        },
        {
          "internalType": "uint256[]",
          "name": "extensions",
          "type": "uint256[]"
        }
      ],
      "stateMutability": "view",
      "type": "function"
    },
    {
      "inputs": [
        {
          "internalType": "address",
          "name": "poll",
          "type": "address"
        }
      ],
      "name": "getTotalSupplyForPoll",
      "outputs": [
        {
          "internalType": "uint256",
          "name": "",
          "type": "uint256"
        }
      ],
      "stateMutability": "view",
      "type": "function"
    },
    {
      "inputs": [
        {
          "internalType": "address",
          "name": "poll",
          "type": "address"
        },
        {
          "internalType": "uint256",
          "name": "amount",
          "type": "uint256"
        }
      ],
      "name": "mintTokensForPoll",
      "outputs": [],
      "stateMutability": "nonpayable",
      "type": "function"
    },
    {
      "inputs": [],
      "name": "name",
      "outputs": [
        {
          "internalType": "string",
          "name": "",
          "type": "string"
        }
      ],
      "stateMutability": "view",
      "type": "function"
    },
    {
      "inputs": [
        {
          "internalType": "address",
          "name": "owner",
          "type": "address"
        }
      ],
      "name": "nonces",
      "outputs": [
        {
          "internalType": "uint256",
          "name": "",
          "type": "uint256"
        }
      ],
      "stateMutability": "view",
      "type": "function"
    },
    {
      "inputs": [
        {
          "internalType": "address",
          "name": "owner",
          "type": "address"
        },
        {
          "internalType": "address",
          "name": "spender",
          "type": "address"
        },
        {
          "internalType": "uint256",
          "name": "value",
          "type": "uint256"
        },
        {
          "internalType": "uint256",
          "name": "deadline",
          "type": "uint256"
        },
        {
          "internalType": "uint8",
          "name": "v",
          "type": "uint8"
        },
        {
          "internalType": "bytes32",
          "name": "r",
          "type": "bytes32"
        },
        {
          "internalType": "bytes32",
          "name": "s",
          "type": "bytes32"
        }
      ],
      "name": "permit",
      "outputs": [],
      "stateMutability": "nonpayable",
      "type": "function"
    },
    {
      "inputs": [
        {
          "internalType": "address",
          "name": "",
          "type": "address"
        }
      ],
      "name": "pollTotalSupply",
      "outputs": [
        {
          "internalType": "uint256",
          "name": "",
          "type": "uint256"
        }
      ],
      "stateMutability": "view",
      "type": "function"
    },
    {
      "inputs": [],
      "name": "symbol",
      "outputs": [
        {
          "internalType": "string",
          "name": "",
          "type": "string"
        }
      ],
      "stateMutability": "view",
      "type": "function"
    },
    {
      "inputs": [],
      "name": "totalSupply",
      "outputs": [
        {
          "internalType": "uint256",
          "name": "",
          "type": "uint256"
        }
      ],
      "stateMutability": "view",
      "type": "function"
    },
    {
      "inputs": [
        {
          "internalType": "address",
          "name": "to",
          "type": "address"
        },
        {
          "internalType": "uint256",
          "name": "value",
          "type": "uint256"
        }
      ],
      "name": "transfer",
      "outputs": [
        {
          "internalType": "bool",
          "name": "",
          "type": "bool"
        }
      ],
      "stateMutability": "nonpayable",
      "type": "function"
    },
    {
      "inputs": [
        {
          "internalType": "address",
          "name": "from",
          "type": "address"
        },
        {
          "internalType": "address",
          "name": "to",
          "type": "address"
        },
        {
          "internalType": "uint256",
          "name": "value",
          "type": "uint256"
        }
      ],
      "name": "transferFrom",
      "outputs": [
        {
          "internalType": "bool",
          "name": "",
          "type": "bool"
        }
      ],
      "stateMutability": "nonpayable",
      "type": "function"
    }
  ],
  "bytecode": "0x61016060405234801561001157600080fd5b50604051611dec380380611dec83398101604081905261003091610221565b6040518060400160405280600b81526020016a2b37ba34b733aa37b5b2b760a91b81525080604051806040016040528060018152602001603160f81b8152506040518060400160405280600b81526020016a2b37ba34b733aa37b5b2b760a91b81525060405180604001604052806004815260200163564f544560e01b81525081600390816100bf91906102f0565b5060046100cc82826102f0565b506100dc915083905060056101a7565b610120526100eb8160066101a7565b61014052815160208084019190912060e052815190820120610100524660a05261017860e05161010051604080517f8b73c3c69bb8fe3d512ecc4cf759cc79239f7b179b0ffacaa9a75d522b39400f60208201529081019290925260608201524660808201523060a082015260009060c00160405160208183030381529060405280519060200120905090565b60805250503060c05250600880546001600160a01b0319166001600160a01b0392909216919091179055610420565b60006020835110156101c3576101bc836101da565b90506101d4565b816101ce84826102f0565b5060ff90505b92915050565b600080829050601f8151111561020e578260405163305a27a960e01b815260040161020591906103ae565b60405180910390fd5b8051610219826103fc565b179392505050565b60006020828403121561023357600080fd5b81516001600160a01b038116811461024a57600080fd5b9392505050565b634e487b7160e01b600052604160045260246000fd5b600181811c9082168061027b57607f821691505b60208210810361029b57634e487b7160e01b600052602260045260246000fd5b50919050565b601f8211156102eb57806000526020600020601f840160051c810160208510156102c85750805b601f840160051c820191505b818110156102e857600081556001016102d4565b50505b505050565b81516001600160401b0381111561030957610309610251565b61031d816103178454610267565b846102a1565b6020601f82116001811461035157600083156103395750848201515b600019600385901b1c1916600184901b1784556102e8565b600084815260208120601f198516915b828110156103815787850151825560209485019460019092019101610361565b508482101561039f5786840151600019600387901b60f8161c191681555b50505050600190811b01905550565b602081526000825180602084015260005b818110156103dc57602081860181015160408684010152016103bf565b506000604082850101526040601f19601f83011684010191505092915050565b8051602080830151919081101561029b5760001960209190910360031b1b16919050565b60805160a05160c05160e05161010051610120516101405161197261047a600039600061101301526000610fe601526000610f5801526000610f3001526000610e8b01526000610eb501526000610edf01526119726000f3fe608060405234801561001057600080fd5b50600436106101775760003560e01c80637ecebe00116100d8578063aff103471161008c578063cbd20a9111610066578063cbd20a9114610320578063d505accf14610340578063dd62ed3e1461035357600080fd5b8063aff10347146102b9578063b4a0bdf3146102cc578063b5ed82ab146102f757600080fd5b806387acd9c8116100bd57806387acd9c81461028b57806395d89b411461029e578063a9059cbb146102a657600080fd5b80637ecebe001461025d57806384b0196e1461027057600080fd5b80633644e5151161012f5780637086256211610114578063708625621461020e57806370a082311461022157806379cc67901461024a57600080fd5b80633644e515146101f157806342966c68146101f957600080fd5b806318160ddd1161016057806318160ddd146101bd57806323b872dd146101cf578063313ce567146101e257600080fd5b806306fdde031461017c578063095ea7b31461019a575b600080fd5b61018461038c565b6040516101919190611665565b60405180910390f35b6101ad6101a836600461169b565b61041e565b6040519015158152602001610191565b6002545b604051908152602001610191565b6101ad6101dd3660046116c5565b610438565b60405160128152602001610191565b6101c161045c565b61020c610207366004611702565b61046b565b005b61020c61021c3660046116c5565b610478565b6101c161022f36600461171b565b6001600160a01b031660009081526020819052604090205490565b61020c61025836600461169b565b610733565b6101c161026b36600461171b565b61074c565b61027861076a565b6040516101919796959493929190611736565b61020c61029936600461169b565b6107cc565b610184610a0c565b6101ad6102b436600461169b565b610a1b565b61020c6102c736600461171b565b610a29565b6008546102df906001600160a01b031681565b6040516001600160a01b039091168152602001610191565b6101c161030536600461171b565b6001600160a01b031660009081526009602052604090205490565b6101c161032e36600461171b565b60096020526000908152604090205481565b61020c61034e3660046117ea565b610c0a565b6101c161036136600461185d565b6001600160a01b03918216600090815260016020908152604080832093909416825291909152205490565b60606003805461039b90611890565b80601f01602080910402602001604051908101604052809291908181526020018280546103c790611890565b80156104145780601f106103e957610100808354040283529160200191610414565b820191906000526020600020905b8154815290600101906020018083116103f757829003601f168201915b5050505050905090565b60003361042c818585610d76565b60019150505b92915050565b600033610446858285610d88565b610451858585610e1f565b506001949350505050565b6000610466610e7e565b905090565b6104753382610fa9565b50565b600860009054906101000a90046001600160a01b03166001600160a01b031663f0bd87cc6040518163ffffffff1660e01b8152600401602060405180830381865afa1580156104cb573d6000803e3d6000fd5b505050506040513d601f19601f820116820180604052508101906104ef91906118ca565b60085460405163827ebb3760e01b8152600481018390523360248201526001600160a01b039091169063827ebb3790604401602060405180830381865afa15801561053e573d6000803e3d6000fd5b505050506040513d601f19601f8201168201806040525081019061056291906118e3565b6105b35760405162461bcd60e51b815260206004820152601d60248201527f4163636573732064656e6965643a20496e636f727265637420726f6c6500000060448201526064015b60405180910390fd5b6001600160a01b0384166106095760405162461bcd60e51b815260206004820152601460248201527f496e76616c69642075736572206164647265737300000000000000000000000060448201526064016105aa565b6001600160a01b03831661065f5760405162461bcd60e51b815260206004820152601460248201527f496e76616c696420706f6c6c206164647265737300000000000000000000000060448201526064016105aa565b600082116106d55760405162461bcd60e51b815260206004820152602660248201527f546f6b656e20616d6f756e74206d75737420626520677265617465722074686160448201527f6e207a65726f000000000000000000000000000000000000000000000000000060648201526084016105aa565b6106e0838584610e1f565b836001600160a01b0316836001600160a01b03167f3c814279fb91e60473ba2885e11916204b1d6e338708a2c22cca659f28a928968460405161072591815260200190565b60405180910390a350505050565b61073e823383610d88565b6107488282610fa9565b5050565b6001600160a01b038116600090815260076020526040812054610432565b60006060806000806000606061077e610fdf565b61078661100c565b604080516000808252602082019092527f0f000000000000000000000000000000000000000000000000000000000000009b939a50919850469750309650945092509050565b600860009054906101000a90046001600160a01b03166001600160a01b031663f0bd87cc6040518163ffffffff1660e01b8152600401602060405180830381865afa15801561081f573d6000803e3d6000fd5b505050506040513d601f19601f8201168201806040525081019061084391906118ca565b60085460405163827ebb3760e01b8152600481018390523360248201526001600160a01b039091169063827ebb3790604401602060405180830381865afa158015610892573d6000803e3d6000fd5b505050506040513d601f19601f820116820180604052508101906108b691906118e3565b6109025760405162461bcd60e51b815260206004820152601d60248201527f4163636573732064656e6965643a20496e636f727265637420726f6c6500000060448201526064016105aa565b6001600160a01b0383166109585760405162461bcd60e51b815260206004820152601460248201527f496e76616c696420706f6c6c206164647265737300000000000000000000000060448201526064016105aa565b600082116109a85760405162461bcd60e51b815260206004820181905260248201527f416d6f756e74206d7573742062652067726561746572207468616e207a65726f60448201526064016105aa565b6109b28383611039565b6001600160a01b03831660008181526009602052604090819020849055517f3f2c9d57c068687834f0de942a9babb9e5acab57d516d3480a3c16ee165a4273906109ff9085815260200190565b60405180910390a2505050565b60606004805461039b90611890565b60003361042c818585610e1f565b600860009054906101000a90046001600160a01b03166001600160a01b031663f0bd87cc6040518163ffffffff1660e01b8152600401602060405180830381865afa158015610a7c573d6000803e3d6000fd5b505050506040513d601f19601f82011682018060405250810190610aa091906118ca565b60085460405163827ebb3760e01b8152600481018390523360248201526001600160a01b039091169063827ebb3790604401602060405180830381865afa158015610aef573d6000803e3d6000fd5b505050506040513d601f19601f82011682018060405250810190610b1391906118e3565b610b5f5760405162461bcd60e51b815260206004820152601d60248201527f4163636573732064656e6965643a20496e636f727265637420726f6c6500000060448201526064016105aa565b6001600160a01b03821660009081526020819052604090205480610bc55760405162461bcd60e51b815260206004820152601160248201527f4e6f20746f6b656e7320746f206275726e00000000000000000000000000000060448201526064016105aa565b610bcf8382610fa9565b826001600160a01b03167ffd38818f5291bf0bb3a2a48aadc06ba8757865d1dabd804585338aab3009dcb6826040516109ff91815260200190565b83421115610c47576040517f62791302000000000000000000000000000000000000000000000000000000008152600481018590526024016105aa565b60007f6e71edae12b1b97f4d1f60370fef10105fa2faae0126114a169c64845d6126c9888888610c948c6001600160a01b0316600090815260076020526040902080546001810190915590565b6040805160208101969096526001600160a01b0394851690860152929091166060840152608083015260a082015260c0810186905260e0016040516020818303038152906040528051906020012090506000610cef8261106f565b90506000610cff828787876110b7565b9050896001600160a01b0316816001600160a01b031614610d5f576040517f4b800e460000000000000000000000000000000000000000000000000000000081526001600160a01b0380831660048301528b1660248201526044016105aa565b610d6a8a8a8a610d76565b50505050505050505050565b610d8383838360016110e5565b505050565b6001600160a01b038381166000908152600160209081526040808320938616835292905220546000198114610e195781811015610e0a576040517ffb8f41b20000000000000000000000000000000000000000000000000000000081526001600160a01b038416600482015260248101829052604481018390526064016105aa565b610e19848484840360006110e5565b50505050565b6001600160a01b038316610e4957604051634b637e8f60e11b8152600060048201526024016105aa565b6001600160a01b038216610e735760405163ec442f0560e01b8152600060048201526024016105aa565b610d838383836111de565b6000306001600160a01b037f000000000000000000000000000000000000000000000000000000000000000016148015610ed757507f000000000000000000000000000000000000000000000000000000000000000046145b15610f0157507f000000000000000000000000000000000000000000000000000000000000000090565b610466604080517f8b73c3c69bb8fe3d512ecc4cf759cc79239f7b179b0ffacaa9a75d522b39400f60208201527f0000000000000000000000000000000000000000000000000000000000000000918101919091527f000000000000000000000000000000000000000000000000000000000000000060608201524660808201523060a082015260009060c00160405160208183030381529060405280519060200120905090565b6001600160a01b038216610fd357604051634b637e8f60e11b8152600060048201526024016105aa565b610748826000836111de565b60606104667f00000000000000000000000000000000000000000000000000000000000000006005611321565b60606104667f00000000000000000000000000000000000000000000000000000000000000006006611321565b6001600160a01b0382166110635760405163ec442f0560e01b8152600060048201526024016105aa565b610748600083836111de565b600061043261107c610e7e565b836040517f19010000000000000000000000000000000000000000000000000000000000008152600281019290925260228201526042902090565b6000806000806110c9888888886113cc565b9250925092506110d9828261149b565b50909695505050505050565b6001600160a01b038416611128576040517fe602df05000000000000000000000000000000000000000000000000000000008152600060048201526024016105aa565b6001600160a01b03831661116b576040517f94280d62000000000000000000000000000000000000000000000000000000008152600060048201526024016105aa565b6001600160a01b0380851660009081526001602090815260408083209387168352929052208290558015610e1957826001600160a01b0316846001600160a01b03167f8c5be1e5ebec7d5bd14f71427d1e84f3dd0314c0f7b2291e5b200ac8c7c3b9258460405161072591815260200190565b6001600160a01b0383166112095780600260008282546111fe9190611905565b909155506112949050565b6001600160a01b03831660009081526020819052604090205481811015611275576040517fe450d38c0000000000000000000000000000000000000000000000000000000081526001600160a01b038516600482015260248101829052604481018390526064016105aa565b6001600160a01b03841660009081526020819052604090209082900390555b6001600160a01b0382166112b0576002805482900390556112cf565b6001600160a01b03821660009081526020819052604090208054820190555b816001600160a01b0316836001600160a01b03167fddf252ad1be2c89b69c2b068fc378daa952ba7f163c4a11628f55a4df523b3ef8360405161131491815260200190565b60405180910390a3505050565b606060ff831461133b576113348361159f565b9050610432565b81805461134790611890565b80601f016020809104026020016040519081016040528092919081815260200182805461137390611890565b80156113c05780601f10611395576101008083540402835291602001916113c0565b820191906000526020600020905b8154815290600101906020018083116113a357829003601f168201915b50505050509050610432565b600080807f7fffffffffffffffffffffffffffffff5d576e7357a4501ddfe92f46681b20a08411156114075750600091506003905082611491565b604080516000808252602082018084528a905260ff891692820192909252606081018790526080810186905260019060a0016020604051602081039080840390855afa15801561145b573d6000803e3d6000fd5b5050604051601f1901519150506001600160a01b03811661148757506000925060019150829050611491565b9250600091508190505b9450945094915050565b60008260038111156114af576114af611926565b036114b8575050565b60018260038111156114cc576114cc611926565b03611503576040517ff645eedf00000000000000000000000000000000000000000000000000000000815260040160405180910390fd5b600282600381111561151757611517611926565b03611551576040517ffce698f7000000000000000000000000000000000000000000000000000000008152600481018290526024016105aa565b600382600381111561156557611565611926565b03610748576040517fd78bce0c000000000000000000000000000000000000000000000000000000008152600481018290526024016105aa565b606060006115ac836115de565b604080516020808252818301909252919250600091906020820181803683375050509182525060208101929092525090565b600060ff8216601f811115610432576040517fb3512b0c00000000000000000000000000000000000000000000000000000000815260040160405180910390fd5b6000815180845260005b8181101561164557602081850181015186830182015201611629565b506000602082860101526020601f19601f83011685010191505092915050565b602081526000611678602083018461161f565b9392505050565b80356001600160a01b038116811461169657600080fd5b919050565b600080604083850312156116ae57600080fd5b6116b78361167f565b946020939093013593505050565b6000806000606084860312156116da57600080fd5b6116e38461167f565b92506116f16020850161167f565b929592945050506040919091013590565b60006020828403121561171457600080fd5b5035919050565b60006020828403121561172d57600080fd5b6116788261167f565b7fff000000000000000000000000000000000000000000000000000000000000008816815260e06020820152600061177160e083018961161f565b8281036040840152611783818961161f565b606084018890526001600160a01b038716608085015260a0840186905283810360c08501528451808252602080870193509091019060005b818110156117d95783518352602093840193909201916001016117bb565b50909b9a5050505050505050505050565b600080600080600080600060e0888a03121561180557600080fd5b61180e8861167f565b965061181c6020890161167f565b95506040880135945060608801359350608088013560ff8116811461184057600080fd5b9699959850939692959460a0840135945060c09093013592915050565b6000806040838503121561187057600080fd5b6118798361167f565b91506118876020840161167f565b90509250929050565b600181811c908216806118a457607f821691505b6020821081036118c457634e487b7160e01b600052602260045260246000fd5b50919050565b6000602082840312156118dc57600080fd5b5051919050565b6000602082840312156118f557600080fd5b8151801515811461167857600080fd5b8082018082111561043257634e487b7160e01b600052601160045260246000fd5b634e487b7160e01b600052602160045260246000fdfea2646970667358221220762913caae66de8fa8265a93512c42c151ce8eca3a4dfbff5cc399f10f3866ac64736f6c634300081b0033",
  "linkReferences": {},
  "deployedLinkReferences": {}
}