{
  "_format": "hh-sol-artifact-1",
  "contractName": "UserRegistration",
  "sourceName": "contracts/UserRegistration.sol",
  "abi": [
    {
      "inputs": [
        {
          "internalType": "address",
          "name": "_accessControlManager",
          "type": "address"
        }
      ],
      "stateMutability": "nonpayable",
      "type": "constructor"
    },
    {
      "anonymous": false,
      "inputs": [
        {
          "indexed": true,
          "internalType": "address",
          "name": "instance",
          "type": "address"
        },
        {
          "indexed": false,
          "internalType": "string",
          "name": "organization",
          "type": "string"
        },
        {
          "indexed": false,
          "internalType": "string",
          "name": "contact",
          "type": "string"
        }
      ],
      "name": "InstanceRegistered",
      "type": "event"
    },
    {
      "anonymous": false,
      "inputs": [
        {
          "indexed": true,
          "internalType": "address",
          "name": "user",
          "type": "address"
        },
        {
          "indexed": false,
          "internalType": "string",
          "name": "name",
          "type": "string"
        },
        {
          "indexed": false,
          "internalType": "uint256",
          "name": "age",
          "type": "uint256"
        },
        {
          "indexed": false,
          "internalType": "string",
          "name": "email",
          "type": "string"
        }
      ],
      "name": "UserRegistered",
      "type": "event"
    },
    {
      "inputs": [],
      "name": "accessControlManager",
      "outputs": [
        {
          "internalType": "contract AccessControlManager",
          "name": "",
          "type": "address"
        }
      ],
      "stateMutability": "view",
      "type": "function"
    },
    {
      "inputs": [
        {
          "internalType": "address",
          "name": "",
          "type": "address"
        }
      ],
      "name": "instances",
      "outputs": [
        {
          "internalType": "string",
          "name": "organization",
          "type": "string"
        },
        {
          "internalType": "string",
          "name": "contact",
          "type": "string"
        },
        {
          "internalType": "bool",
          "name": "isActive",
          "type": "bool"
        }
      ],
      "stateMutability": "view",
      "type": "function"
    },
    {
      "inputs": [
        {
          "internalType": "address",
          "name": "account",
          "type": "address"
        }
      ],
      "name": "isInstance",
      "outputs": [
        {
          "internalType": "bool",
          "name": "",
          "type": "bool"
        }
      ],
      "stateMutability": "view",
      "type": "function"
    },
    {
      "inputs": [
        {
          "internalType": "address",
          "name": "account",
          "type": "address"
        }
      ],
      "name": "isUser",
      "outputs": [
        {
          "internalType": "bool",
          "name": "",
          "type": "bool"
        }
      ],
      "stateMutability": "view",
      "type": "function"
    },
    {
      "inputs": [
        {
          "internalType": "address",
          "name": "instance",
          "type": "address"
        },
        {
          "internalType": "string",
          "name": "organization",
          "type": "string"
        },
        {
          "internalType": "string",
          "name": "contact",
          "type": "string"
        }
      ],
      "name": "registerInstance",
      "outputs": [],
      "stateMutability": "nonpayable",
      "type": "function"
    },
    {
      "inputs": [
        {
          "internalType": "address",
          "name": "user",
          "type": "address"
        },
        {
          "internalType": "string",
          "name": "name",
          "type": "string"
        },
        {
          "internalType": "uint256",
          "name": "age",
          "type": "uint256"
        },
        {
          "internalType": "string",
          "name": "email",
          "type": "string"
        }
      ],
      "name": "registerUser",
      "outputs": [],
      "stateMutability": "nonpayable",
      "type": "function"
    },
    {
      "inputs": [
        {
          "internalType": "address",
          "name": "instance",
          "type": "address"
        }
      ],
      "name": "revokeInstance",
      "outputs": [],
      "stateMutability": "nonpayable",
      "type": "function"
    },
    {
      "inputs": [
        {
          "internalType": "address",
          "name": "user",
          "type": "address"
        }
      ],
      "name": "revokeUser",
      "outputs": [],
      "stateMutability": "nonpayable",
      "type": "function"
    },
    {
      "inputs": [
        {
          "internalType": "address",
          "name": "",
          "type": "address"
        }
      ],
      "name": "users",
      "outputs": [
        {
          "internalType": "string",
          "name": "name",
          "type": "string"
        },
        {
          "internalType": "uint256",
          "name": "age",
          "type": "uint256"
        },
        {
          "internalType": "string",
          "name": "email",
          "type": "string"
        },
        {
          "internalType": "bool",
          "name": "isActive",
          "type": "bool"
        }
      ],
      "stateMutability": "view",
      "type": "function"
    }
  ],
  "bytecode": "0x6080604052348015600f57600080fd5b50604051611a74380380611a74833981016040819052602c916050565b600080546001600160a01b0319166001600160a01b0392909216919091179055607e565b600060208284031215606157600080fd5b81516001600160a01b0381168114607757600080fd5b9392505050565b6119e78061008d6000396000f3fe608060405234801561001057600080fd5b50600436106100a35760003560e01c8063a87430ba11610076578063b4a0bdf31161005b578063b4a0bdf314610154578063c7491eb51461017f578063ef097fc41461019257600080fd5b8063a87430ba1461011e578063ab5af78e1461014157600080fd5b8063032bb443146100a85780632ce713ec146100d35780634209fff1146100e85780636b44e6be1461010b575b600080fd5b6100bb6100b6366004611538565b6101a5565b6040516100ca939291906115a0565b60405180910390f35b6100e66100e1366004611538565b6102da565b005b6100fb6100f6366004611538565b610667565b60405190151581526020016100ca565b6100fb610119366004611538565b61077a565b61013161012c366004611538565b61088a565b6040516100ca94939291906115d8565b6100e661014f3660046116bc565b6109c5565b600054610167906001600160a01b031681565b6040516001600160a01b0390911681526020016100ca565b6100e661018d366004611735565b610d5e565b6100e66101a0366004611538565b611121565b6002602052600090815260409020805481906101c0906117b8565b80601f01602080910402602001604051908101604052809291908181526020018280546101ec906117b8565b80156102395780601f1061020e57610100808354040283529160200191610239565b820191906000526020600020905b81548152906001019060200180831161021c57829003601f168201915b50505050509080600101805461024e906117b8565b80601f016020809104026020016040519081016040528092919081815260200182805461027a906117b8565b80156102c75780601f1061029c576101008083540402835291602001916102c7565b820191906000526020600020905b8154815290600101906020018083116102aa57829003601f168201915b5050506002909301549192505060ff1683565b60008054906101000a90046001600160a01b03166001600160a01b03166375b238fc6040518163ffffffff1660e01b8152600401602060405180830381865afa15801561032b573d6000803e3d6000fd5b505050506040513d601f19601f8201168201806040525081019061034f91906117f2565b60005460405163827ebb3760e01b8152600481018390523360248201526001600160a01b039091169063827ebb3790604401602060405180830381865afa15801561039e573d6000803e3d6000fd5b505050506040513d601f19601f820116820180604052508101906103c2919061180b565b6104135760405162461bcd60e51b815260206004820152601d60248201527f4163636573732064656e6965643a20496e636f727265637420726f6c6500000060448201526064015b60405180910390fd5b6000546040805163c8e71e7b60e01b815290516001600160a01b039092169163827ebb3791839163c8e71e7b916004808201926020929091908290030181865afa158015610465573d6000803e3d6000fd5b505050506040513d601f19601f8201168201806040525081019061048991906117f2565b6040516001600160e01b031960e084901b16815260048101919091526001600160a01b0385166024820152604401602060405180830381865afa1580156104d4573d6000803e3d6000fd5b505050506040513d601f19601f820116820180604052508101906104f8919061180b565b6105695760405162461bcd60e51b8152602060048201526024808201527f41646472657373206973206e6f742061207265676973746572656420696e737460448201527f616e636500000000000000000000000000000000000000000000000000000000606482015260840161040a565b6000546040805163c8e71e7b60e01b815290516001600160a01b039092169163d547741f91839163c8e71e7b916004808201926020929091908290030181865afa1580156105bb573d6000803e3d6000fd5b505050506040513d601f19601f820116820180604052508101906105df91906117f2565b6040516001600160e01b031960e084901b16815260048101919091526001600160a01b0385166024820152604401600060405180830381600087803b15801561062757600080fd5b505af115801561063b573d6000803e3d6000fd5b5050506001600160a01b03909216600090815260026020819052604090912001805460ff191690555050565b6000805460408051631311916160e01b815290516001600160a01b039092169163827ebb379183916313119161916004808201926020929091908290030181865afa1580156106ba573d6000803e3d6000fd5b505050506040513d601f19601f820116820180604052508101906106de91906117f2565b6040516001600160e01b031960e084901b16815260048101919091526001600160a01b0385166024820152604401602060405180830381865afa158015610729573d6000803e3d6000fd5b505050506040513d601f19601f8201168201806040525081019061074d919061180b565b801561077457506001600160a01b03821660009081526001602052604090206003015460ff165b92915050565b600080546040805163c8e71e7b60e01b815290516001600160a01b039092169163827ebb3791839163c8e71e7b916004808201926020929091908290030181865afa1580156107cd573d6000803e3d6000fd5b505050506040513d601f19601f820116820180604052508101906107f191906117f2565b6040516001600160e01b031960e084901b16815260048101919091526001600160a01b0385166024820152604401602060405180830381865afa15801561083c573d6000803e3d6000fd5b505050506040513d601f19601f82011682018060405250810190610860919061180b565b80156107745750506001600160a01b03166000908152600260208190526040909120015460ff1690565b6001602052600090815260409020805481906108a5906117b8565b80601f01602080910402602001604051908101604052809291908181526020018280546108d1906117b8565b801561091e5780601f106108f35761010080835404028352916020019161091e565b820191906000526020600020905b81548152906001019060200180831161090157829003601f168201915b505050505090806001015490806002018054610939906117b8565b80601f0160208091040260200160405190810160405280929190818152602001828054610965906117b8565b80156109b25780601f10610987576101008083540402835291602001916109b2565b820191906000526020600020905b81548152906001019060200180831161099557829003601f168201915b5050506003909301549192505060ff1684565b6000546040805163c8e71e7b60e01b815290516001600160a01b039092169163827ebb3791839163c8e71e7b916004808201926020929091908290030181865afa158015610a17573d6000803e3d6000fd5b505050506040513d601f19601f82011682018060405250810190610a3b91906117f2565b6040516001600160e01b031960e084901b1681526004810191909152336024820152604401602060405180830381865afa158015610a7d573d6000803e3d6000fd5b505050506040513d601f19601f82011682018060405250810190610aa1919061180b565b15610aee5760405162461bcd60e51b815260206004820152601b60248201527f496e7374616e636520616c726561647920726567697374657265640000000000604482015260640161040a565b6000825111610b3f5760405162461bcd60e51b815260206004820152601c60248201527f4f7267616e697a6174696f6e2063616e6e6f7420626520656d70747900000000604482015260640161040a565b6000815111610b905760405162461bcd60e51b815260206004820152601760248201527f436f6e746163742063616e6e6f7420626520656d707479000000000000000000604482015260640161040a565b6000546040805163c8e71e7b60e01b815290516001600160a01b0390921691635a57f1f591839163c8e71e7b916004808201926020929091908290030181865afa158015610be2573d6000803e3d6000fd5b505050506040513d601f19601f82011682018060405250810190610c0691906117f2565b6040516001600160e01b031960e084901b16815260048101919091526001600160a01b0386166024820152604401600060405180830381600087803b158015610c4e57600080fd5b505af1158015610c62573d6000803e3d6000fd5b50506040805160608101825285815260208082018690526001828401526001600160a01b0388166000908152600290915291909120815191935091508190610caa908261187c565b5060208201516001820190610cbf908261187c565b50604091820151600291909101805460ff19169115159190911790558051808201909152601981527f75736572726567697374726174696f6e20636f6e7472616374000000000000006020820152610d1690611483565b826001600160a01b03167fdea364e7ccff07a8b1d69958da0ab1c9e83febb4f4d9ba4fa1982296ffdcfb278383604051610d5192919061193b565b60405180910390a2505050565b60005460408051631311916160e01b815290516001600160a01b039092169163827ebb379183916313119161916004808201926020929091908290030181865afa158015610db0573d6000803e3d6000fd5b505050506040513d601f19601f82011682018060405250810190610dd491906117f2565b6040516001600160e01b031960e084901b1681526004810191909152336024820152604401602060405180830381865afa158015610e16573d6000803e3d6000fd5b505050506040513d601f19601f82011682018060405250810190610e3a919061180b565b15610e875760405162461bcd60e51b815260206004820152601760248201527f5573657220616c72656164792072656769737465726564000000000000000000604482015260640161040a565b60008211610ed75760405162461bcd60e51b815260206004820152601460248201527f416765206d75737420626520706f736974697665000000000000000000000000604482015260640161040a565b6000835111610f285760405162461bcd60e51b815260206004820152601460248201527f4e616d652063616e6e6f7420626520656d707479000000000000000000000000604482015260640161040a565b6000815111610f795760405162461bcd60e51b815260206004820152601560248201527f456d61696c2063616e6e6f7420626520656d7074790000000000000000000000604482015260640161040a565b60005460408051631311916160e01b815290516001600160a01b0390921691635a57f1f59183916313119161916004808201926020929091908290030181865afa158015610fcb573d6000803e3d6000fd5b505050506040513d601f19601f82011682018060405250810190610fef91906117f2565b6040516001600160e01b031960e084901b16815260048101919091526001600160a01b0387166024820152604401600060405180830381600087803b15801561103757600080fd5b505af115801561104b573d6000803e3d6000fd5b50506040805160808101825286815260208082018790528183018690526001606083018190526001600160a01b038a166000908152915291909120815191935091508190611099908261187c565b5060208201516001820155604082015160028201906110b8908261187c565b50606091909101516003909101805460ff19169115159190911790556040516001600160a01b038516907f25c5affa34344dea3129dd47c6b07e8086cf2ba6acec6b75f5221fb9a8130a559061111390869086908690611969565b60405180910390a250505050565b60008054906101000a90046001600160a01b03166001600160a01b03166375b238fc6040518163ffffffff1660e01b8152600401602060405180830381865afa158015611172573d6000803e3d6000fd5b505050506040513d601f19601f8201168201806040525081019061119691906117f2565b60005460405163827ebb3760e01b8152600481018390523360248201526001600160a01b039091169063827ebb3790604401602060405180830381865afa1580156111e5573d6000803e3d6000fd5b505050506040513d601f19601f82011682018060405250810190611209919061180b565b6112555760405162461bcd60e51b815260206004820152601d60248201527f4163636573732064656e6965643a20496e636f727265637420726f6c65000000604482015260640161040a565b60005460408051631311916160e01b815290516001600160a01b039092169163827ebb379183916313119161916004808201926020929091908290030181865afa1580156112a7573d6000803e3d6000fd5b505050506040513d601f19601f820116820180604052508101906112cb91906117f2565b6040516001600160e01b031960e084901b16815260048101919091526001600160a01b0385166024820152604401602060405180830381865afa158015611316573d6000803e3d6000fd5b505050506040513d601f19601f8201168201806040525081019061133a919061180b565b6113865760405162461bcd60e51b815260206004820181905260248201527f41646472657373206973206e6f74206120726567697374657265642075736572604482015260640161040a565b60005460408051631311916160e01b815290516001600160a01b039092169163d547741f9183916313119161916004808201926020929091908290030181865afa1580156113d8573d6000803e3d6000fd5b505050506040513d601f19601f820116820180604052508101906113fc91906117f2565b6040516001600160e01b031960e084901b16815260048101919091526001600160a01b0385166024820152604401600060405180830381600087803b15801561144457600080fd5b505af1158015611458573d6000803e3d6000fd5b5050506001600160a01b039092166000908152600160205260409020600301805460ff191690555050565b6114f481604051602401611497919061199e565b60408051601f198184030181529190526020810180517bffffffffffffffffffffffffffffffffffffffffffffffffffffffff167f41304fac000000000000000000000000000000000000000000000000000000001790526114f7565b50565b6114f48160006a636f6e736f6c652e6c6f679050600080835160208501845afa505050565b80356001600160a01b038116811461153357600080fd5b919050565b60006020828403121561154a57600080fd5b6115538261151c565b9392505050565b6000815180845260005b8181101561158057602081850181015186830182015201611564565b506000602082860101526020601f19601f83011685010191505092915050565b6060815260006115b3606083018661155a565b82810360208401526115c5818661155a565b9150508215156040830152949350505050565b6080815260006115eb608083018761155a565b8560208401528281036040840152611603818661155a565b915050821515606083015295945050505050565b634e487b7160e01b600052604160045260246000fd5b600082601f83011261163e57600080fd5b813567ffffffffffffffff81111561165857611658611617565b604051601f8201601f19908116603f0116810167ffffffffffffffff8111828210171561168757611687611617565b60405281815283820160200185101561169f57600080fd5b816020850160208301376000918101602001919091529392505050565b6000806000606084860312156116d157600080fd5b6116da8461151c565b9250602084013567ffffffffffffffff8111156116f657600080fd5b6117028682870161162d565b925050604084013567ffffffffffffffff81111561171f57600080fd5b61172b8682870161162d565b9150509250925092565b6000806000806080858703121561174b57600080fd5b6117548561151c565b9350602085013567ffffffffffffffff81111561177057600080fd5b61177c8782880161162d565b93505060408501359150606085013567ffffffffffffffff8111156117a057600080fd5b6117ac8782880161162d565b91505092959194509250565b600181811c908216806117cc57607f821691505b6020821081036117ec57634e487b7160e01b600052602260045260246000fd5b50919050565b60006020828403121561180457600080fd5b5051919050565b60006020828403121561181d57600080fd5b8151801515811461155357600080fd5b601f82111561187757806000526020600020601f840160051c810160208510156118545750805b601f840160051c820191505b818110156118745760008155600101611860565b50505b505050565b815167ffffffffffffffff81111561189657611896611617565b6118aa816118a484546117b8565b8461182d565b6020601f8211600181146118de57600083156118c65750848201515b600019600385901b1c1916600184901b178455611874565b600084815260208120601f198516915b8281101561190e57878501518255602094850194600190920191016118ee565b508482101561192c5786840151600019600387901b60f8161c191681555b50505050600190811b01905550565b60408152600061194e604083018561155a565b8281036020840152611960818561155a565b95945050505050565b60608152600061197c606083018661155a565b8460208401528281036040840152611994818561155a565b9695505050505050565b602081526000611553602083018461155a56fea2646970667358221220f9955cc92d06afa1c647b6fd6ad9553527c01db290aa6de027ce82e8fdc640d164736f6c634300081b0033",
  "linkReferences": {},
  "deployedLinkReferences": {}
}