{
  "_format": "hh-sol-artifact-1",
  "contractName": "UserRegistration",
  "sourceName": "contracts/UserRegistration.sol",
  "abi": [
    {
      "inputs": [
        {
          "internalType": "address",
          "name": "_accessControlManager",
          "type": "address"
        }
      ],
      "stateMutability": "nonpayable",
      "type": "constructor"
    },
    {
      "anonymous": false,
      "inputs": [
        {
          "indexed": true,
          "internalType": "address",
          "name": "instance",
          "type": "address"
        },
        {
          "indexed": false,
          "internalType": "string",
          "name": "organization",
          "type": "string"
        },
        {
          "indexed": false,
          "internalType": "string",
          "name": "contact",
          "type": "string"
        }
      ],
      "name": "InstanceRegistered",
      "type": "event"
    },
    {
      "anonymous": false,
      "inputs": [
        {
          "indexed": true,
          "internalType": "address",
          "name": "user",
          "type": "address"
        },
        {
          "indexed": false,
          "internalType": "string",
          "name": "name",
          "type": "string"
        },
        {
          "indexed": false,
          "internalType": "uint256",
          "name": "age",
          "type": "uint256"
        },
        {
          "indexed": false,
          "internalType": "string",
          "name": "email",
          "type": "string"
        }
      ],
      "name": "UserRegistered",
      "type": "event"
    },
    {
      "inputs": [],
      "name": "accessControlManager",
      "outputs": [
        {
          "internalType": "contract AccessControlManager",
          "name": "",
          "type": "address"
        }
      ],
      "stateMutability": "view",
      "type": "function"
    },
    {
      "inputs": [
        {
          "internalType": "address",
          "name": "",
          "type": "address"
        }
      ],
      "name": "instances",
      "outputs": [
        {
          "internalType": "string",
          "name": "organization",
          "type": "string"
        },
        {
          "internalType": "string",
          "name": "contact",
          "type": "string"
        },
        {
          "internalType": "bool",
          "name": "isActive",
          "type": "bool"
        }
      ],
      "stateMutability": "view",
      "type": "function"
    },
    {
      "inputs": [
        {
          "internalType": "address",
          "name": "account",
          "type": "address"
        }
      ],
      "name": "isInstance",
      "outputs": [
        {
          "internalType": "bool",
          "name": "",
          "type": "bool"
        }
      ],
      "stateMutability": "view",
      "type": "function"
    },
    {
      "inputs": [
        {
          "internalType": "address",
          "name": "account",
          "type": "address"
        }
      ],
      "name": "isUser",
      "outputs": [
        {
          "internalType": "bool",
          "name": "",
          "type": "bool"
        }
      ],
      "stateMutability": "view",
      "type": "function"
    },
    {
      "inputs": [
        {
          "internalType": "address",
          "name": "instance",
          "type": "address"
        },
        {
          "internalType": "string",
          "name": "organization",
          "type": "string"
        },
        {
          "internalType": "string",
          "name": "contact",
          "type": "string"
        }
      ],
      "name": "registerInstance",
      "outputs": [],
      "stateMutability": "nonpayable",
      "type": "function"
    },
    {
      "inputs": [
        {
          "internalType": "address",
          "name": "user",
          "type": "address"
        },
        {
          "internalType": "string",
          "name": "name",
          "type": "string"
        },
        {
          "internalType": "uint256",
          "name": "age",
          "type": "uint256"
        },
        {
          "internalType": "string",
          "name": "email",
          "type": "string"
        }
      ],
      "name": "registerUser",
      "outputs": [],
      "stateMutability": "nonpayable",
      "type": "function"
    },
    {
      "inputs": [
        {
          "internalType": "address",
          "name": "instance",
          "type": "address"
        }
      ],
      "name": "revokeInstance",
      "outputs": [],
      "stateMutability": "nonpayable",
      "type": "function"
    },
    {
      "inputs": [
        {
          "internalType": "address",
          "name": "user",
          "type": "address"
        }
      ],
      "name": "revokeUser",
      "outputs": [],
      "stateMutability": "nonpayable",
      "type": "function"
    },
    {
      "inputs": [
        {
          "internalType": "address",
          "name": "",
          "type": "address"
        }
      ],
      "name": "users",
      "outputs": [
        {
          "internalType": "string",
          "name": "name",
          "type": "string"
        },
        {
          "internalType": "uint256",
          "name": "age",
          "type": "uint256"
        },
        {
          "internalType": "string",
          "name": "email",
          "type": "string"
        },
        {
          "internalType": "bool",
          "name": "isActive",
          "type": "bool"
        }
      ],
      "stateMutability": "view",
      "type": "function"
    }
  ],
  "bytecode": "0x6080604052348015600f57600080fd5b5060405161198d38038061198d833981016040819052602c916050565b600080546001600160a01b0319166001600160a01b0392909216919091179055607e565b600060208284031215606157600080fd5b81516001600160a01b0381168114607757600080fd5b9392505050565b6119008061008d6000396000f3fe608060405234801561001057600080fd5b50600436106100a35760003560e01c8063a87430ba11610076578063b4a0bdf31161005b578063b4a0bdf314610154578063c7491eb51461017f578063ef097fc41461019257600080fd5b8063a87430ba1461011e578063ab5af78e1461014157600080fd5b8063032bb443146100a85780632ce713ec146100d35780634209fff1146100e85780636b44e6be1461010b575b600080fd5b6100bb6100b6366004611464565b6101a5565b6040516100ca939291906114cc565b60405180910390f35b6100e66100e1366004611464565b6102da565b005b6100fb6100f6366004611464565b610667565b60405190151581526020016100ca565b6100fb610119366004611464565b61077a565b61013161012c366004611464565b61088a565b6040516100ca9493929190611504565b6100e661014f3660046115e8565b6109c5565b600054610167906001600160a01b031681565b6040516001600160a01b0390911681526020016100ca565b6100e661018d366004611661565b610d23565b6100e66101a0366004611464565b6110e6565b6002602052600090815260409020805481906101c0906116e4565b80601f01602080910402602001604051908101604052809291908181526020018280546101ec906116e4565b80156102395780601f1061020e57610100808354040283529160200191610239565b820191906000526020600020905b81548152906001019060200180831161021c57829003601f168201915b50505050509080600101805461024e906116e4565b80601f016020809104026020016040519081016040528092919081815260200182805461027a906116e4565b80156102c75780601f1061029c576101008083540402835291602001916102c7565b820191906000526020600020905b8154815290600101906020018083116102aa57829003601f168201915b5050506002909301549192505060ff1683565b60008054906101000a90046001600160a01b03166001600160a01b03166375b238fc6040518163ffffffff1660e01b8152600401602060405180830381865afa15801561032b573d6000803e3d6000fd5b505050506040513d601f19601f8201168201806040525081019061034f919061171e565b60005460405163827ebb3760e01b8152600481018390523360248201526001600160a01b039091169063827ebb3790604401602060405180830381865afa15801561039e573d6000803e3d6000fd5b505050506040513d601f19601f820116820180604052508101906103c29190611737565b6104135760405162461bcd60e51b815260206004820152601d60248201527f4163636573732064656e6965643a20496e636f727265637420726f6c6500000060448201526064015b60405180910390fd5b6000546040805163c8e71e7b60e01b815290516001600160a01b039092169163827ebb3791839163c8e71e7b916004808201926020929091908290030181865afa158015610465573d6000803e3d6000fd5b505050506040513d601f19601f82011682018060405250810190610489919061171e565b6040516001600160e01b031960e084901b16815260048101919091526001600160a01b0385166024820152604401602060405180830381865afa1580156104d4573d6000803e3d6000fd5b505050506040513d601f19601f820116820180604052508101906104f89190611737565b6105695760405162461bcd60e51b8152602060048201526024808201527f41646472657373206973206e6f742061207265676973746572656420696e737460448201527f616e636500000000000000000000000000000000000000000000000000000000606482015260840161040a565b6000546040805163c8e71e7b60e01b815290516001600160a01b039092169163d547741f91839163c8e71e7b916004808201926020929091908290030181865afa1580156105bb573d6000803e3d6000fd5b505050506040513d601f19601f820116820180604052508101906105df919061171e565b6040516001600160e01b031960e084901b16815260048101919091526001600160a01b0385166024820152604401600060405180830381600087803b15801561062757600080fd5b505af115801561063b573d6000803e3d6000fd5b5050506001600160a01b03909216600090815260026020819052604090912001805460ff191690555050565b6000805460408051631311916160e01b815290516001600160a01b039092169163827ebb379183916313119161916004808201926020929091908290030181865afa1580156106ba573d6000803e3d6000fd5b505050506040513d601f19601f820116820180604052508101906106de919061171e565b6040516001600160e01b031960e084901b16815260048101919091526001600160a01b0385166024820152604401602060405180830381865afa158015610729573d6000803e3d6000fd5b505050506040513d601f19601f8201168201806040525081019061074d9190611737565b801561077457506001600160a01b03821660009081526001602052604090206003015460ff165b92915050565b600080546040805163c8e71e7b60e01b815290516001600160a01b039092169163827ebb3791839163c8e71e7b916004808201926020929091908290030181865afa1580156107cd573d6000803e3d6000fd5b505050506040513d601f19601f820116820180604052508101906107f1919061171e565b6040516001600160e01b031960e084901b16815260048101919091526001600160a01b0385166024820152604401602060405180830381865afa15801561083c573d6000803e3d6000fd5b505050506040513d601f19601f820116820180604052508101906108609190611737565b80156107745750506001600160a01b03166000908152600260208190526040909120015460ff1690565b6001602052600090815260409020805481906108a5906116e4565b80601f01602080910402602001604051908101604052809291908181526020018280546108d1906116e4565b801561091e5780601f106108f35761010080835404028352916020019161091e565b820191906000526020600020905b81548152906001019060200180831161090157829003601f168201915b505050505090806001015490806002018054610939906116e4565b80601f0160208091040260200160405190810160405280929190818152602001828054610965906116e4565b80156109b25780601f10610987576101008083540402835291602001916109b2565b820191906000526020600020905b81548152906001019060200180831161099557829003601f168201915b5050506003909301549192505060ff1684565b6000546040805163c8e71e7b60e01b815290516001600160a01b039092169163827ebb3791839163c8e71e7b916004808201926020929091908290030181865afa158015610a17573d6000803e3d6000fd5b505050506040513d601f19601f82011682018060405250810190610a3b919061171e565b6040516001600160e01b031960e084901b1681526004810191909152336024820152604401602060405180830381865afa158015610a7d573d6000803e3d6000fd5b505050506040513d601f19601f82011682018060405250810190610aa19190611737565b15610aee5760405162461bcd60e51b815260206004820152601b60248201527f496e7374616e636520616c726561647920726567697374657265640000000000604482015260640161040a565b6000825111610b3f5760405162461bcd60e51b815260206004820152601c60248201527f4f7267616e697a6174696f6e2063616e6e6f7420626520656d70747900000000604482015260640161040a565b6000815111610b905760405162461bcd60e51b815260206004820152601760248201527f436f6e746163742063616e6e6f7420626520656d707479000000000000000000604482015260640161040a565b6000546040805163c8e71e7b60e01b815290516001600160a01b0390921691635a57f1f591839163c8e71e7b916004808201926020929091908290030181865afa158015610be2573d6000803e3d6000fd5b505050506040513d601f19601f82011682018060405250810190610c06919061171e565b6040516001600160e01b031960e084901b16815260048101919091526001600160a01b0386166024820152604401600060405180830381600087803b158015610c4e57600080fd5b505af1158015610c62573d6000803e3d6000fd5b50506040805160608101825285815260208082018690526001828401526001600160a01b0388166000908152600290915291909120815191935091508190610caa90826117a8565b5060208201516001820190610cbf90826117a8565b50604091820151600291909101805460ff1916911515919091179055516001600160a01b038416907fdea364e7ccff07a8b1d69958da0ab1c9e83febb4f4d9ba4fa1982296ffdcfb2790610d169085908590611867565b60405180910390a2505050565b60005460408051631311916160e01b815290516001600160a01b039092169163827ebb379183916313119161916004808201926020929091908290030181865afa158015610d75573d6000803e3d6000fd5b505050506040513d601f19601f82011682018060405250810190610d99919061171e565b6040516001600160e01b031960e084901b1681526004810191909152336024820152604401602060405180830381865afa158015610ddb573d6000803e3d6000fd5b505050506040513d601f19601f82011682018060405250810190610dff9190611737565b15610e4c5760405162461bcd60e51b815260206004820152601760248201527f5573657220616c72656164792072656769737465726564000000000000000000604482015260640161040a565b60008211610e9c5760405162461bcd60e51b815260206004820152601460248201527f416765206d75737420626520706f736974697665000000000000000000000000604482015260640161040a565b6000835111610eed5760405162461bcd60e51b815260206004820152601460248201527f4e616d652063616e6e6f7420626520656d707479000000000000000000000000604482015260640161040a565b6000815111610f3e5760405162461bcd60e51b815260206004820152601560248201527f456d61696c2063616e6e6f7420626520656d7074790000000000000000000000604482015260640161040a565b60005460408051631311916160e01b815290516001600160a01b0390921691635a57f1f59183916313119161916004808201926020929091908290030181865afa158015610f90573d6000803e3d6000fd5b505050506040513d601f19601f82011682018060405250810190610fb4919061171e565b6040516001600160e01b031960e084901b16815260048101919091526001600160a01b0387166024820152604401600060405180830381600087803b158015610ffc57600080fd5b505af1158015611010573d6000803e3d6000fd5b50506040805160808101825286815260208082018790528183018690526001606083018190526001600160a01b038a16600090815291529190912081519193509150819061105e90826117a8565b50602082015160018201556040820151600282019061107d90826117a8565b50606091909101516003909101805460ff19169115159190911790556040516001600160a01b038516907f25c5affa34344dea3129dd47c6b07e8086cf2ba6acec6b75f5221fb9a8130a55906110d890869086908690611895565b60405180910390a250505050565b60008054906101000a90046001600160a01b03166001600160a01b03166375b238fc6040518163ffffffff1660e01b8152600401602060405180830381865afa158015611137573d6000803e3d6000fd5b505050506040513d601f19601f8201168201806040525081019061115b919061171e565b60005460405163827ebb3760e01b8152600481018390523360248201526001600160a01b039091169063827ebb3790604401602060405180830381865afa1580156111aa573d6000803e3d6000fd5b505050506040513d601f19601f820116820180604052508101906111ce9190611737565b61121a5760405162461bcd60e51b815260206004820152601d60248201527f4163636573732064656e6965643a20496e636f727265637420726f6c65000000604482015260640161040a565b60005460408051631311916160e01b815290516001600160a01b039092169163827ebb379183916313119161916004808201926020929091908290030181865afa15801561126c573d6000803e3d6000fd5b505050506040513d601f19601f82011682018060405250810190611290919061171e565b6040516001600160e01b031960e084901b16815260048101919091526001600160a01b0385166024820152604401602060405180830381865afa1580156112db573d6000803e3d6000fd5b505050506040513d601f19601f820116820180604052508101906112ff9190611737565b61134b5760405162461bcd60e51b815260206004820181905260248201527f41646472657373206973206e6f74206120726567697374657265642075736572604482015260640161040a565b60005460408051631311916160e01b815290516001600160a01b039092169163d547741f9183916313119161916004808201926020929091908290030181865afa15801561139d573d6000803e3d6000fd5b505050506040513d601f19601f820116820180604052508101906113c1919061171e565b6040516001600160e01b031960e084901b16815260048101919091526001600160a01b0385166024820152604401600060405180830381600087803b15801561140957600080fd5b505af115801561141d573d6000803e3d6000fd5b5050506001600160a01b039092166000908152600160205260409020600301805460ff191690555050565b80356001600160a01b038116811461145f57600080fd5b919050565b60006020828403121561147657600080fd5b61147f82611448565b9392505050565b6000815180845260005b818110156114ac57602081850181015186830182015201611490565b506000602082860101526020601f19601f83011685010191505092915050565b6060815260006114df6060830186611486565b82810360208401526114f18186611486565b9150508215156040830152949350505050565b6080815260006115176080830187611486565b856020840152828103604084015261152f8186611486565b915050821515606083015295945050505050565b634e487b7160e01b600052604160045260246000fd5b600082601f83011261156a57600080fd5b813567ffffffffffffffff81111561158457611584611543565b604051601f8201601f19908116603f0116810167ffffffffffffffff811182821017156115b3576115b3611543565b6040528181528382016020018510156115cb57600080fd5b816020850160208301376000918101602001919091529392505050565b6000806000606084860312156115fd57600080fd5b61160684611448565b9250602084013567ffffffffffffffff81111561162257600080fd5b61162e86828701611559565b925050604084013567ffffffffffffffff81111561164b57600080fd5b61165786828701611559565b9150509250925092565b6000806000806080858703121561167757600080fd5b61168085611448565b9350602085013567ffffffffffffffff81111561169c57600080fd5b6116a887828801611559565b93505060408501359150606085013567ffffffffffffffff8111156116cc57600080fd5b6116d887828801611559565b91505092959194509250565b600181811c908216806116f857607f821691505b60208210810361171857634e487b7160e01b600052602260045260246000fd5b50919050565b60006020828403121561173057600080fd5b5051919050565b60006020828403121561174957600080fd5b8151801515811461147f57600080fd5b601f8211156117a357806000526020600020601f840160051c810160208510156117805750805b601f840160051c820191505b818110156117a0576000815560010161178c565b50505b505050565b815167ffffffffffffffff8111156117c2576117c2611543565b6117d6816117d084546116e4565b84611759565b6020601f82116001811461180a57600083156117f25750848201515b600019600385901b1c1916600184901b1784556117a0565b600084815260208120601f198516915b8281101561183a578785015182556020948501946001909201910161181a565b50848210156118585786840151600019600387901b60f8161c191681555b50505050600190811b01905550565b60408152600061187a6040830185611486565b828103602084015261188c8185611486565b95945050505050565b6060815260006118a86060830186611486565b84602084015282810360408401526118c08185611486565b969550505050505056fea2646970667358221220c3faa6d4cc594030b51006a5939426410390c9ef36dc88673c512dde08afb8f964736f6c634300081b0033",
  "linkReferences": {},
  "deployedLinkReferences": {}
}