{
  "_format": "hh-sol-artifact-1",
  "contractName": "Voting",
  "sourceName": "contracts/Voting.sol",
  "abi": [
    {
      "inputs": [
        {
          "internalType": "address",
          "name": "_tokenDistribution",
          "type": "address"
        },
        {
          "internalType": "address",
          "name": "_accessControlManager",
          "type": "address"
        }
      ],
      "stateMutability": "nonpayable",
      "type": "constructor"
    },
    {
      "anonymous": false,
      "inputs": [
        {
          "indexed": true,
          "internalType": "address",
          "name": "voter",
          "type": "address"
        },
        {
          "indexed": false,
          "internalType": "uint256[]",
          "name": "optionIndexes",
          "type": "uint256[]"
        },
        {
          "indexed": false,
          "internalType": "uint256[]",
          "name": "amounts",
          "type": "uint256[]"
        }
      ],
      "name": "VoteCast",
      "type": "event"
    },
    {
      "inputs": [],
      "name": "accessControlManager",
      "outputs": [
        {
          "internalType": "contract AccessControlManager",
          "name": "",
          "type": "address"
        }
      ],
      "stateMutability": "view",
      "type": "function"
    },
    {
      "inputs": [
        {
          "internalType": "address",
          "name": "pollAddress",
          "type": "address"
        },
        {
          "components": [
            {
              "internalType": "uint256[]",
              "name": "optionIndexes",
              "type": "uint256[]"
            },
            {
              "internalType": "uint256[]",
              "name": "amounts",
              "type": "uint256[]"
            }
          ],
          "internalType": "struct Voting.VoteOptions",
          "name": "voteOptions",
          "type": "tuple"
        },
        {
          "components": [
            {
              "internalType": "uint256",
              "name": "deadline",
              "type": "uint256"
            },
            {
              "internalType": "uint8",
              "name": "v",
              "type": "uint8"
            },
            {
              "internalType": "bytes32",
              "name": "r",
              "type": "bytes32"
            },
            {
              "internalType": "bytes32",
              "name": "s",
              "type": "bytes32"
            }
          ],
          "internalType": "struct Voting.PermitSignature",
          "name": "userPermit",
          "type": "tuple"
        },
        {
          "components": [
            {
              "internalType": "uint256",
              "name": "deadline",
              "type": "uint256"
            },
            {
              "internalType": "uint8",
              "name": "v",
              "type": "uint8"
            },
            {
              "internalType": "bytes32",
              "name": "r",
              "type": "bytes32"
            },
            {
              "internalType": "bytes32",
              "name": "s",
              "type": "bytes32"
            }
          ],
          "internalType": "struct Voting.PermitSignature",
          "name": "returnPermit",
          "type": "tuple"
        }
      ],
      "name": "castVotes",
      "outputs": [],
      "stateMutability": "nonpayable",
      "type": "function"
    },
    {
      "inputs": [],
      "name": "tokenDistribution",
      "outputs": [
        {
          "internalType": "contract TokenDistribution",
          "name": "",
          "type": "address"
        }
      ],
      "stateMutability": "view",
      "type": "function"
    }
  ],
  "bytecode": "0x608060405234801561001057600080fd5b506040516111da3803806111da83398101604081905261002f916100e1565b6001600160a01b0382166100945760405162461bcd60e51b815260206004820152602260248201527f496e76616c696420746f6b656e20646973747269627574696f6e206164647265604482015261737360f01b606482015260840160405180910390fd5b600180546001600160a01b039384166001600160a01b03199182161790915560008054929093169116179055610114565b80516001600160a01b03811681146100dc57600080fd5b919050565b600080604083850312156100f457600080fd5b6100fd836100c5565b915061010b602084016100c5565b90509250929050565b6110b7806101236000396000f3fe608060405234801561001057600080fd5b50600436106100415760003560e01c806308a6077c146100465780632a975b3914610075578063b4a0bdf31461008a575b600080fd5b600154610059906001600160a01b031681565b6040516001600160a01b03909116815260200160405180910390f35b610088610083366004610df0565b61009d565b005b600054610059906001600160a01b031681565b60008054906101000a90046001600160a01b03166001600160a01b031663131191616040518163ffffffff1660e01b8152600401602060405180830381865afa1580156100ee573d6000803e3d6000fd5b505050506040513d601f19601f820116820180604052508101906101129190610ed1565b6000546040517f827ebb37000000000000000000000000000000000000000000000000000000008152600481018390523360248201526001600160a01b039091169063827ebb3790604401602060405180830381865afa15801561017a573d6000803e3d6000fd5b505050506040513d601f19601f8201168201806040525081019061019e9190610eea565b6101ef5760405162461bcd60e51b815260206004820152601d60248201527f4163636573732064656e6965643a20496e636f727265637420726f6c6500000060448201526064015b60405180910390fd5b6001600160a01b0385166102455760405162461bcd60e51b815260206004820152601460248201527f496e76616c696420706f6c6c206164647265737300000000000000000000000060448201526064016101e6565b6020840151518451511461029b5760405162461bcd60e51b815260206004820152601e60248201527f4d69736d61746368656420696e646578657320616e6420616d6f756e7473000060448201526064016101e6565b825142106102eb5760405162461bcd60e51b815260206004820152601360248201527f55736572207065726d697420657870697265640000000000000000000000000060448201526064016101e6565b8151421061033b5760405162461bcd60e51b815260206004820152601560248201527f52657475726e207065726d69742065787069726564000000000000000000000060448201526064016101e6565b6000859050806001600160a01b031663c24a0f8b6040518163ffffffff1660e01b8152600401602060405180830381865afa15801561037e573d6000803e3d6000fd5b505050506040513d601f19601f820116820180604052508101906103a29190610ed1565b4211156103f15760405162461bcd60e51b815260206004820152600a60248201527f506f6c6c20656e6465640000000000000000000000000000000000000000000060448201526064016101e6565b806001600160a01b0316638d4e40836040518163ffffffff1660e01b8152600401602060405180830381865afa15801561042f573d6000803e3d6000fd5b505050506040513d601f19601f820116820180604052508101906104539190610eea565b156104a05760405162461bcd60e51b815260206004820152600e60248201527f506f6c6c2066696e616c697a656400000000000000000000000000000000000060448201526064016101e6565b6040517f950c782200000000000000000000000000000000000000000000000000000000815233600482015260009081906001600160a01b0384169063950c782290602401600060405180830381865afa158015610502573d6000803e3d6000fd5b505050506040513d6000823e601f3d908101601f1916820160405261052a9190810190610f71565b9150915060008083511115610704576040517f122d0b9c0000000000000000000000000000000000000000000000000000000081523360048201526001600160a01b0385169063122d0b9c90602401600060405180830381600087803b15801561059357600080fd5b505af11580156105a7573d6000803e3d6000fd5b5050505060005b82518110156105e6578281815181106105c9576105c9610fda565b6020026020010151826105dc9190610ff0565b91506001016105ae565b50801561070457600154865160208801516040808a015160608b0151915163d505accf60e01b81526001600160a01b038f8116600483015233602483015260448201889052606482019590955260ff909316608484015260a483015260c482015291169063d505accf9060e401600060405180830381600087803b15801561066d57600080fd5b505af1158015610681573d6000803e3d6000fd5b50506001546040516323b872dd60e01b81526001600160a01b038d811660048301523360248301526044820186905290911692506323b872dd91506064016020604051808303816000875af11580156106de573d6000803e3d6000fd5b505050506040513d601f19601f820116820180604052508101906107029190610eea565b505b6000805b8960200151518110156107b55760008a60200151828151811061072d5761072d610fda565b6020026020010151116107825760405162461bcd60e51b815260206004820152601160248201527f416d6f756e74206d757374206265203e3000000000000000000000000000000060448201526064016101e6565b8960200151818151811061079857610798610fda565b6020026020010151826107ab9190610ff0565b9150600101610708565b50846001600160a01b031663ca4c20d06040518163ffffffff1660e01b8152600401602060405180830381865afa1580156107f4573d6000803e3d6000fd5b505050506040513d601f19601f820116820180604052508101906108189190610ed1565b8110156108675760405162461bcd60e51b815260206004820152601360248201527f496e73756666696369656e7420746f6b656e730000000000000000000000000060448201526064016101e6565b600154885160208a01516040808c015160608d0151915163d505accf60e01b815233600482015230602482015260448101879052606481019490945260ff909216608484015260a483019190915260c48201526001600160a01b039091169063d505accf9060e401600060405180830381600087803b1580156108e957600080fd5b505af11580156108fd573d6000803e3d6000fd5b50506001546040516323b872dd60e01b81523360048201526001600160a01b038e811660248301526044820186905290911692506323b872dd91506064016020604051808303816000875af115801561095a573d6000803e3d6000fd5b505050506040513d601f19601f8201168201806040525081019061097e9190610eea565b5060005b895151811015610b0e5760008a6000015182815181106109a4576109a4610fda565b6020026020010151905060008b6020015183815181106109c6576109c6610fda565b60200260200101519050876001600160a01b031663b2db35036040518163ffffffff1660e01b8152600401602060405180830381865afa158015610a0e573d6000803e3d6000fd5b505050506040513d601f19601f82011682018060405250810190610a329190610ed1565b8210610a805760405162461bcd60e51b815260206004820152601460248201527f496e76616c6964206f7074696f6e20696e64657800000000000000000000000060448201526064016101e6565b6040517fcab2d76e00000000000000000000000000000000000000000000000000000000815233600482015260248101839052604481018290526001600160a01b0389169063cab2d76e90606401600060405180830381600087803b158015610ae857600080fd5b505af1158015610afc573d6000803e3d6000fd5b50506001909401935061098292505050565b50846001600160a01b031663c24a0f8b6040518163ffffffff1660e01b8152600401602060405180830381865afa158015610b4d573d6000803e3d6000fd5b505050506040513d601f19601f82011682018060405250810190610b719190610ed1565b42118015610bde5750846001600160a01b0316638d4e40836040518163ffffffff1660e01b8152600401602060405180830381865afa158015610bb8573d6000803e3d6000fd5b505050506040513d601f19601f82011682018060405250810190610bdc9190610eea565b155b15610c3157846001600160a01b0316634d6b2df26040518163ffffffff1660e01b8152600401600060405180830381600087803b158015610c1e57600080fd5b505af1925050508015610c2f575060015b505b885160208a015160405133927f7049a2d12f9ec81db6943e202efbb2a52910341f96d20a1611ea08321ab9ea4692610c6892611053565b60405180910390a250505050505050505050565b634e487b7160e01b600052604160045260246000fd5b6040805190810167ffffffffffffffff81118282101715610cb557610cb5610c7c565b60405290565b604051601f8201601f1916810167ffffffffffffffff81118282101715610ce457610ce4610c7c565b604052919050565b600067ffffffffffffffff821115610d0657610d06610c7c565b5060051b60200190565b600082601f830112610d2157600080fd5b8135610d34610d2f82610cec565b610cbb565b8082825260208201915060208360051b860101925085831115610d5657600080fd5b602085015b83811015610d73578035835260209283019201610d5b565b5095945050505050565b600060808284031215610d8f57600080fd5b6040516080810167ffffffffffffffff81118282101715610db257610db2610c7c565b60405282358152905080602083013560ff81168114610dd057600080fd5b602082015260408381013590820152606092830135920191909152919050565b6000806000806101408587031215610e0757600080fd5b84356001600160a01b0381168114610e1e57600080fd5b9350602085013567ffffffffffffffff811115610e3a57600080fd5b850160408188031215610e4c57600080fd5b610e54610c92565b813567ffffffffffffffff811115610e6b57600080fd5b610e7789828501610d10565b825250602082013567ffffffffffffffff811115610e9457600080fd5b610ea089828501610d10565b6020830152509350610eb790508660408701610d7d565b9150610ec68660c08701610d7d565b905092959194509250565b600060208284031215610ee357600080fd5b5051919050565b600060208284031215610efc57600080fd5b81518015158114610f0c57600080fd5b9392505050565b600082601f830112610f2457600080fd5b8151610f32610d2f82610cec565b8082825260208201915060208360051b860101925085831115610f5457600080fd5b602085015b83811015610d73578051835260209283019201610f59565b60008060408385031215610f8457600080fd5b825167ffffffffffffffff811115610f9b57600080fd5b610fa785828601610f13565b925050602083015167ffffffffffffffff811115610fc457600080fd5b610fd085828601610f13565b9150509250929050565b634e487b7160e01b600052603260045260246000fd5b8082018082111561101157634e487b7160e01b600052601160045260246000fd5b92915050565b600081518084526020840193506020830160005b8281101561104957815186526020958601959091019060010161102b565b5093949350505050565b6040815260006110666040830185611017565b82810360208401526110788185611017565b9594505050505056fea2646970667358221220ab096e48541ead126ada437e32ccf636db6e71e25a7c6d04b7d01aac82d230b564736f6c634300081b0033",
  "linkReferences": {},
  "deployedLinkReferences": {}
}